{"contracts/validators/CredentialAtomicQueryMTPValidator.sol":{"CredentialAtomicQueryMTPValidator":{"abi":[{"anonymous":false,"inputs":[{"indexed":false,"internalType":"uint8","name":"version","type":"uint8"}],"name":"Initialized","type":"event"},{"anonymous":false,"inputs":[{"indexed":true,"internalType":"address","name":"previousOwner","type":"address"},{"indexed":true,"internalType":"address","name":"newOwner","type":"address"}],"name":"OwnershipTransferred","type":"event"},{"inputs":[],"name":"getChallengeInputIndex","outputs":[{"internalType":"uint256","name":"index","type":"uint256"}],"stateMutability":"pure","type":"function"},{"inputs":[],"name":"getCircuitId","outputs":[{"internalType":"string","name":"id","type":"string"}],"stateMutability":"pure","type":"function"},{"inputs":[{"internalType":"address","name":"_verifierContractAddr","type":"address"},{"internalType":"address","name":"_stateContractAddr","type":"address"}],"name":"initialize","outputs":[],"stateMutability":"nonpayable","type":"function"},{"inputs":[],"name":"owner","outputs":[{"internalType":"address","name":"","type":"address"}],"stateMutability":"view","type":"function"},{"inputs":[],"name":"renounceOwnership","outputs":[],"stateMutability":"nonpayable","type":"function"},{"inputs":[],"name":"revocationStateExpirationTime","outputs":[{"internalType":"uint256","name":"","type":"uint256"}],"stateMutability":"view","type":"function"},{"inputs":[{"internalType":"uint256","name":"expirationTime","type":"uint256"}],"name":"setRevocationStateExpirationTime","outputs":[],"stateMutability":"nonpayable","type":"function"},{"inputs":[],"name":"state","outputs":[{"internalType":"contract IState","name":"","type":"address"}],"stateMutability":"view","type":"function"},{"inputs":[{"internalType":"address","name":"newOwner","type":"address"}],"name":"transferOwnership","outputs":[],"stateMutability":"nonpayable","type":"function"},{"inputs":[],"name":"verifier","outputs":[{"internalType":"contract IVerifier","name":"","type":"address"}],"stateMutability":"view","type":"function"},{"inputs":[{"internalType":"uint256[]","name":"inputs","type":"uint256[]"},{"internalType":"uint256[2]","name":"a","type":"uint256[2]"},{"internalType":"uint256[2][2]","name":"b","type":"uint256[2][2]"},{"internalType":"uint256[2]","name":"c","type":"uint256[2]"},{"internalType":"uint256","name":"queryHash","type":"uint256"}],"name":"verify","outputs":[{"internalType":"bool","name":"r","type":"bool"}],"stateMutability":"view","type":"function"}],"evm":{"bytecode":{"linkReferences":{},"object":"608060405234801561001057600080fd5b5061265e806100206000396000f3fe608060405234801561001057600080fd5b50600436106100a95760003560e01c8063715018a611610071578063715018a6146101545780638da5cb5b1461015e5780639f442afa1461017c578063c19d93fb1461019a578063e79ce794146101b8578063f2fde38b146101d4576100a9565b806323962482146100ae5780632b7ac3f3146100cc578063434661ef146100ea578063485cc9551461011a57806359a2aeaa14610136575b600080fd5b6100b66101f0565b6040516100c391906112e0565b60405180910390f35b6100d46101f6565b6040516100e1919061137a565b60405180910390f35b61010460048036038101906100ff919061147e565b61021c565b6040516101119190611535565b60405180910390f35b610134600480360381019061012f919061158e565b61086d565b005b61013e610a38565b60405161014b919061165e565b60405180910390f35b61015c610a58565b005b610166610a6c565b604051610173919061168f565b60405180910390f35b610184610a96565b60405161019191906112e0565b60405180910390f35b6101a2610a9f565b6040516101af91906116cb565b60405180910390f35b6101d260048036038101906101cd91906116e6565b610ac5565b005b6101ee60048036038101906101e99190611713565b610ad7565b005b60675481565b606560009054906101000a900473ffffffffffffffffffffffffffffffffffffffff1681565b6000606560009054906101000a900473ffffffffffffffffffffffffffffffffffffffff1673ffffffffffffffffffffffffffffffffffffffff1663c32e370e8686868b8b6040518663ffffffff1660e01b815260040161028195949392919061188a565b602060405180830381865afa15801561029e573d6000803e3d6000fd5b505050506040513d601f19601f820116820180604052508101906102c29190611906565b610301576040517f08c379a00000000000000000000000000000000000000000000000000000000081526004016102f89061197f565b60405180910390fd5b81878760028181106103165761031561199f565b5b905060200201351461035d576040517f08c379a000000000000000000000000000000000000000000000000000000000815260040161035490611a40565b60405180910390fd5b6000878760058181106103735761037261199f565b5b9050602002013590506000888860068181106103925761039161199f565b5b9050602002013590506000898960078181106103b1576103b061199f565b5b90506020020135905060008a8a60098181106103d0576103cf61199f565b5b9050602002013590506000606660009054906101000a900473ffffffffffffffffffffffffffffffffffffffff1673ffffffffffffffffffffffffffffffffffffffff16637c1a66de866040518263ffffffff1660e01b815260040161043691906112e0565b60c060405180830381865afa158015610453573d6000803e3d6000fd5b505050506040513d601f19601f820116820180604052508101906104779190611b95565b9050848160000151146104bf576040517f08c379a00000000000000000000000000000000000000000000000000000000081526004016104b690611c34565b60405180910390fd5b60006104cb8585610b5a565b9050806105bc576000606660009054906101000a900473ffffffffffffffffffffffffffffffffffffffff1673ffffffffffffffffffffffffffffffffffffffff166353c8731287876040518363ffffffff1660e01b8152600401610531929190611c54565b60e060405180830381865afa15801561054e573d6000803e3d6000fd5b505050506040513d601f19601f820116820180604052508101906105729190611d31565b9050806000015186146105ba576040517f08c379a00000000000000000000000000000000000000000000000000000000081526004016105b190611dd0565b60405180910390fd5b505b6000606660009054906101000a900473ffffffffffffffffffffffffffffffffffffffff1673ffffffffffffffffffffffffffffffffffffffff1663b4bdea55876040518263ffffffff1660e01b815260040161061991906112e0565b60e060405180830381865afa158015610636573d6000803e3d6000fd5b505050506040513d601f19601f8201168201806040525081019061065a9190611d31565b905060008160200151036106b6576106728685610b5a565b6106b1576040517f08c379a00000000000000000000000000000000000000000000000000000000081526004016106a890611e62565b60405180910390fd5b610858565b83816020015114610857576000606660009054906101000a900473ffffffffffffffffffffffffffffffffffffffff1673ffffffffffffffffffffffffffffffffffffffff166353c8731288876040518363ffffffff1660e01b8152600401610720929190611c54565b60e060405180830381865afa15801561073d573d6000803e3d6000fd5b505050506040513d601f19601f820116820180604052508101906107619190611d31565b905060008160000151148061077a575086816000015114155b156107ba576040517f08c379a00000000000000000000000000000000000000000000000000000000081526004016107b190611ef4565b60405180910390fd5b6000816080015103610801576040517f08c379a00000000000000000000000000000000000000000000000000000000081526004016107f890611f86565b60405180910390fd5b6067548160800151426108149190611fd5565b1115610855576040517f08c379a000000000000000000000000000000000000000000000000000000000815260040161084c9061207b565b60405180910390fd5b505b5b60019750505050505050509695505050505050565b60008060019054906101000a900460ff1615905080801561089e5750600160008054906101000a900460ff1660ff16105b806108cb57506108ad30610ca5565b1580156108ca5750600160008054906101000a900460ff1660ff16145b5b61090a576040517f08c379a00000000000000000000000000000000000000000000000000000000081526004016109019061210d565b60405180910390fd5b60016000806101000a81548160ff021916908360ff1602179055508015610947576001600060016101000a81548160ff0219169083151502179055505b610e1060678190555082606560006101000a81548173ffffffffffffffffffffffffffffffffffffffff021916908373ffffffffffffffffffffffffffffffffffffffff16021790555081606660006101000a81548173ffffffffffffffffffffffffffffffffffffffff021916908373ffffffffffffffffffffffffffffffffffffffff1602179055506109da610cc8565b8015610a335760008060016101000a81548160ff0219169083151502179055507f7f26b83ff96e1f2b6a682f133852f6798a09c465da95921460cefb38474024986001604051610a2a9190612175565b60405180910390a15b505050565b606060405180606001604052806021815260200161260860219139905090565b610a60610d21565b610a6a6000610d9f565b565b6000603360009054906101000a900473ffffffffffffffffffffffffffffffffffffffff16905090565b60006004905090565b606660009054906101000a900473ffffffffffffffffffffffffffffffffffffffff1681565b610acd610d21565b8060678190555050565b610adf610d21565b600073ffffffffffffffffffffffffffffffffffffffff168173ffffffffffffffffffffffffffffffffffffffff1603610b4e576040517f08c379a0000000000000000000000000000000000000000000000000000000008152600401610b4590612202565b60405180910390fd5b610b5781610d9f565b50565b600080610b6683610e65565b90506000610b7382610fb1565b90506000610b9082601b8451610b899190611fd5565b601b61100e565b90506000604051806040016040528060028152602001600081525090506000610bb9828461112c565b9050601d815114610bff576040517f08c379a0000000000000000000000000000000000000000000000000000000008152600401610bf690612294565b60405180910390fd5b6000610c0a826111b6565b9050600081604051602001610c1f91906122f8565b60405160208183030381529060405290506000610c3c848361112c565b9050601f815114610c82576040517f08c379a0000000000000000000000000000000000000000000000000000000008152600401610c799061235f565b60405180910390fd5b610c93610c8e82611250565b610e65565b8b149850505050505050505092915050565b6000808273ffffffffffffffffffffffffffffffffffffffff163b119050919050565b600060019054906101000a900460ff16610d17576040517f08c379a0000000000000000000000000000000000000000000000000000000008152600401610d0e906123f1565b60405180910390fd5b610d1f61125e565b565b610d296112bf565b73ffffffffffffffffffffffffffffffffffffffff16610d47610a6c565b73ffffffffffffffffffffffffffffffffffffffff1614610d9d576040517f08c379a0000000000000000000000000000000000000000000000000000000008152600401610d949061245d565b60405180910390fd5b565b6000603360009054906101000a900473ffffffffffffffffffffffffffffffffffffffff16905081603360006101000a81548173ffffffffffffffffffffffffffffffffffffffff021916908373ffffffffffffffffffffffffffffffffffffffff1602179055508173ffffffffffffffffffffffffffffffffffffffff168173ffffffffffffffffffffffffffffffffffffffff167f8be0079c531659141344cd1fd0a4f28419497f9722a3daafe3b4186f6b6457e060405160405180910390a35050565b600081905060087eff00ff00ff00ff00ff00ff00ff00ff00ff00ff00ff00ff00ff00ff00ff00ff8216901b60087fff00ff00ff00ff00ff00ff00ff00ff00ff00ff00ff00ff00ff00ff00ff00ff008316901c17905060107dffff0000ffff0000ffff0000ffff0000ffff0000ffff0000ffff0000ffff8216901b60107fffff0000ffff0000ffff0000ffff0000ffff0000ffff0000ffff0000ffff00008316901c17905060207bffffffff00000000ffffffff00000000ffffffff00000000ffffffff8216901b60207fffffffff00000000ffffffff00000000ffffffff00000000ffffffff000000008316901c179050604077ffffffffffffffff0000000000000000ffffffffffffffff8216901b60407fffffffffffffffff0000000000000000ffffffffffffffff00000000000000008316901c179050608081901b608082901c179050919050565b6060602067ffffffffffffffff811115610fce57610fcd611a65565b5b6040519080825280601f01601f1916602001820160405280156110005781602001600182028036833780820191505090505b509050816020820152919050565b606081601f8361101e919061247d565b101561105f576040517f08c379a0000000000000000000000000000000000000000000000000000000008152600401611056906124fd565b60405180910390fd5b818361106b919061247d565b845110156110ae576040517f08c379a00000000000000000000000000000000000000000000000000000000081526004016110a590612569565b60405180910390fd5b60608215600081146110cf5760405191506000825260208201604052611120565b6040519150601f8416801560200281840101858101878315602002848b0101015b8183101561110d57805183526020830192506020810190506110f0565b50868552601f19601f8301166040525050505b50809150509392505050565b6060806040519050835180825260208201818101602087015b818310156111625780518352602083019250602081019050611145565b50855192508351830184528091508282019050602086015b81831015611197578051835260208301925060208101905061117a565b50601f19601f8851850115830101166040525050508091505092915050565b6000601d8251146111fc576040517f08c379a00000000000000000000000000000000000000000000000000000000081526004016111f390612294565b60405180910390fd5b60005b825181101561124a5782818151811061121b5761121a61199f565b5b602001015160f81c60f81b60f81c60ff16826112379190612589565b915080611243906125bf565b90506111ff565b50919050565b600060208201519050919050565b600060019054906101000a900460ff166112ad576040517f08c379a00000000000000000000000000000000000000000000000000000000081526004016112a4906123f1565b60405180910390fd5b6112bd6112b86112bf565b610d9f565b565b600033905090565b6000819050919050565b6112da816112c7565b82525050565b60006020820190506112f560008301846112d1565b92915050565b600073ffffffffffffffffffffffffffffffffffffffff82169050919050565b6000819050919050565b600061134061133b611336846112fb565b61131b565b6112fb565b9050919050565b600061135282611325565b9050919050565b600061136482611347565b9050919050565b61137481611359565b82525050565b600060208201905061138f600083018461136b565b92915050565b6000604051905090565b600080fd5b600080fd5b600080fd5b600080fd5b600080fd5b60008083601f8401126113ce576113cd6113a9565b5b8235905067ffffffffffffffff8111156113eb576113ea6113ae565b5b602083019150836020820283011115611407576114066113b3565b5b9250929050565b60008190508260206002028201111561142a576114296113b3565b5b92915050565b60008190508260406002028201111561144c5761144b6113b3565b5b92915050565b61145b816112c7565b811461146657600080fd5b50565b60008135905061147881611452565b92915050565b600080600080600080610140878903121561149c5761149b61139f565b5b600087013567ffffffffffffffff8111156114ba576114b96113a4565b5b6114c689828a016113b8565b965096505060206114d989828a0161140e565b94505060606114ea89828a01611430565b93505060e06114fb89828a0161140e565b92505061012061150d89828a01611469565b9150509295509295509295565b60008115159050919050565b61152f8161151a565b82525050565b600060208201905061154a6000830184611526565b92915050565b600061155b826112fb565b9050919050565b61156b81611550565b811461157657600080fd5b50565b60008135905061158881611562565b92915050565b600080604083850312156115a5576115a461139f565b5b60006115b385828601611579565b92505060206115c485828601611579565b9150509250929050565b600081519050919050565b600082825260208201905092915050565b60005b838110156116085780820151818401526020810190506115ed565b60008484015250505050565b6000601f19601f8301169050919050565b6000611630826115ce565b61163a81856115d9565b935061164a8185602086016115ea565b61165381611614565b840191505092915050565b600060208201905081810360008301526116788184611625565b905092915050565b61168981611550565b82525050565b60006020820190506116a46000830184611680565b92915050565b60006116b582611347565b9050919050565b6116c5816116aa565b82525050565b60006020820190506116e060008301846116bc565b92915050565b6000602082840312156116fc576116fb61139f565b5b600061170a84828501611469565b91505092915050565b6000602082840312156117295761172861139f565b5b600061173784828501611579565b91505092915050565b82818337505050565b61175560408383611740565b5050565b600060029050919050565b600081905092915050565b6000819050919050565b61178560408383611740565b5050565b60006117958383611779565b60408301905092915050565b600082905092915050565b6000604082019050919050565b6117c281611759565b6117cc8184611764565b92506117d78261176f565b8060005b83811015611810576117ed82846117a1565b6117f78782611789565b9650611802836117ac565b9250506001810190506117db565b505050505050565b600082825260208201905092915050565b600080fd5b600061183a8385611818565b93507f07ffffffffffffffffffffffffffffffffffffffffffffffffffffffffffffff83111561186d5761186c611829565b5b60208302925061187e838584611740565b82840190509392505050565b6000610120820190506118a06000830188611749565b6118ad60408301876117b9565b6118ba60c0830186611749565b8181036101008301526118ce81848661182e565b90509695505050505050565b6118e38161151a565b81146118ee57600080fd5b50565b600081519050611900816118da565b92915050565b60006020828403121561191c5761191b61139f565b5b600061192a848285016118f1565b91505092915050565b7f4d54502070726f6f66206973206e6f742076616c696400000000000000000000600082015250565b60006119696016836115d9565b915061197482611933565b602082019050919050565b600060208201905081810360008301526119988161195c565b9050919050565b7f4e487b7100000000000000000000000000000000000000000000000000000000600052603260045260246000fd5b7f7175657279206861736820646f6573206e6f74206d617463682074686520726560008201527f71756573746564206f6e65000000000000000000000000000000000000000000602082015250565b6000611a2a602b836115d9565b9150611a35826119ce565b604082019050919050565b60006020820190508181036000830152611a5981611a1d565b9050919050565b600080fd5b7f4e487b7100000000000000000000000000000000000000000000000000000000600052604160045260246000fd5b611a9d82611614565b810181811067ffffffffffffffff82111715611abc57611abb611a65565b5b80604052505050565b6000611acf611395565b9050611adb8282611a94565b919050565b600081519050611aef81611452565b92915050565b600060c08284031215611b0b57611b0a611a60565b5b611b1560c0611ac5565b90506000611b2584828501611ae0565b6000830152506020611b3984828501611ae0565b6020830152506040611b4d84828501611ae0565b6040830152506060611b6184828501611ae0565b6060830152506080611b7584828501611ae0565b60808301525060a0611b8984828501611ae0565b60a08301525092915050565b600060c08284031215611bab57611baa61139f565b5b6000611bb984828501611af5565b91505092915050565b7f4769737420726f6f742073746174652069736e277420696e207374617465206360008201527f6f6e747261637400000000000000000000000000000000000000000000000000602082015250565b6000611c1e6027836115d9565b9150611c2982611bc2565b604082019050919050565b60006020820190508181036000830152611c4d81611c11565b9050919050565b6000604082019050611c6960008301856112d1565b611c7660208301846112d1565b9392505050565b600060e08284031215611c9357611c92611a60565b5b611c9d60e0611ac5565b90506000611cad84828501611ae0565b6000830152506020611cc184828501611ae0565b6020830152506040611cd584828501611ae0565b6040830152506060611ce984828501611ae0565b6060830152506080611cfd84828501611ae0565b60808301525060a0611d1184828501611ae0565b60a08301525060c0611d2584828501611ae0565b60c08301525092915050565b600060e08284031215611d4757611d4661139f565b5b6000611d5584828501611c7d565b91505092915050565b7f49737375657220737461746520646f65736e277420657869737420696e20737460008201527f61746520636f6e74726163740000000000000000000000000000000000000000602082015250565b6000611dba602c836115d9565b9150611dc582611d5e565b604082019050919050565b60006020820190508181036000830152611de981611dad565b9050919050565b7f4e6f6e2d5265766f636174696f6e2073746174652069736e277420696e20737460008201527f61746520636f6e747261637420616e64206e6f742067656e6573697300000000602082015250565b6000611e4c603c836115d9565b9150611e5782611df0565b604082019050919050565b60006020820190508181036000830152611e7b81611e3f565b9050919050565b7f737461746520696e207472616e736974696f6e20696e666f20636f6e7461696e60008201527f7320696e76616c69642069640000000000000000000000000000000000000000602082015250565b6000611ede602c836115d9565b9150611ee982611e82565b604082019050919050565b60006020820190508181036000830152611f0d81611ed1565b9050919050565b7f4e6f6e2d4c617465737420737461746520646f65736e277420636f6e7461696e60008201527f207265706c6163656d656e7420696e666f726d6174696f6e0000000000000000602082015250565b6000611f706038836115d9565b9150611f7b82611f14565b604082019050919050565b60006020820190508181036000830152611f9f81611f63565b9050919050565b7f4e487b7100000000000000000000000000000000000000000000000000000000600052601160045260246000fd5b6000611fe0826112c7565b9150611feb836112c7565b925082820390508181111561200357612002611fa6565b5b92915050565b7f4e6f6e2d5265766f636174696f6e207374617465206f6620497373756572206560008201527f7870697265640000000000000000000000000000000000000000000000000000602082015250565b60006120656026836115d9565b915061207082612009565b604082019050919050565b6000602082019050818103600083015261209481612058565b9050919050565b7f496e697469616c697a61626c653a20636f6e747261637420697320616c72656160008201527f647920696e697469616c697a6564000000000000000000000000000000000000602082015250565b60006120f7602e836115d9565b91506121028261209b565b604082019050919050565b60006020820190508181036000830152612126816120ea565b9050919050565b6000819050919050565b600060ff82169050919050565b600061215f61215a6121558461212d565b61131b565b612137565b9050919050565b61216f81612144565b82525050565b600060208201905061218a6000830184612166565b92915050565b7f4f776e61626c653a206e6577206f776e657220697320746865207a65726f206160008201527f6464726573730000000000000000000000000000000000000000000000000000602082015250565b60006121ec6026836115d9565b91506121f782612190565b604082019050919050565b6000602082019050818103600083015261221b816121df565b9050919050565b7f436865636b73756d207265717569726573203239206c656e677468206172726160008201527f7900000000000000000000000000000000000000000000000000000000000000602082015250565b600061227e6021836115d9565b915061228982612222565b604082019050919050565b600060208201905081810360008301526122ad81612271565b9050919050565b600061ffff82169050919050565b60008160f01b9050919050565b60006122da826122c2565b9050919050565b6122f26122ed826122b4565b6122cf565b82525050565b600061230482846122e1565b60028201915081905092915050565b7f69644279746573207265717569726573203331206c656e677468206172726179600082015250565b60006123496020836115d9565b915061235482612313565b602082019050919050565b600060208201905081810360008301526123788161233c565b9050919050565b7f496e697469616c697a61626c653a20636f6e7472616374206973206e6f74206960008201527f6e697469616c697a696e67000000000000000000000000000000000000000000602082015250565b60006123db602b836115d9565b91506123e68261237f565b604082019050919050565b6000602082019050818103600083015261240a816123ce565b9050919050565b7f4f776e61626c653a2063616c6c6572206973206e6f7420746865206f776e6572600082015250565b60006124476020836115d9565b915061245282612411565b602082019050919050565b600060208201905081810360008301526124768161243a565b9050919050565b6000612488826112c7565b9150612493836112c7565b92508282019050808211156124ab576124aa611fa6565b5b92915050565b7f736c6963655f6f766572666c6f77000000000000000000000000000000000000600082015250565b60006124e7600e836115d9565b91506124f2826124b1565b602082019050919050565b60006020820190508181036000830152612516816124da565b9050919050565b7f736c6963655f6f75744f66426f756e6473000000000000000000000000000000600082015250565b60006125536011836115d9565b915061255e8261251d565b602082019050919050565b6000602082019050818103600083015261258281612546565b9050919050565b6000612594826122b4565b915061259f836122b4565b9250828201905061ffff8111156125b9576125b8611fa6565b5b92915050565b60006125ca826112c7565b91507fffffffffffffffffffffffffffffffffffffffffffffffffffffffffffffffff82036125fc576125fb611fa6565b5b60018201905091905056fe63726564656e7469616c41746f6d696351756572794d545056324f6e436861696ea2646970667358221220538f2818ed9a20ad2e8a77dab4c2dbabfb07edcd61a6a470de131e0bddfc2bc264736f6c63430008110033","opcodes":"PUSH1 0x80 PUSH1 0x40 MSTORE CALLVALUE DUP1 ISZERO PUSH2 0x10 JUMPI PUSH1 0x0 DUP1 REVERT JUMPDEST POP PUSH2 0x265E DUP1 PUSH2 0x20 PUSH1 0x0 CODECOPY PUSH1 0x0 RETURN INVALID PUSH1 0x80 PUSH1 0x40 MSTORE CALLVALUE DUP1 ISZERO PUSH2 0x10 JUMPI PUSH1 0x0 DUP1 REVERT JUMPDEST POP PUSH1 0x4 CALLDATASIZE LT PUSH2 0xA9 JUMPI PUSH1 0x0 CALLDATALOAD PUSH1 0xE0 SHR DUP1 PUSH4 0x715018A6 GT PUSH2 0x71 JUMPI DUP1 PUSH4 0x715018A6 EQ PUSH2 0x154 JUMPI DUP1 PUSH4 0x8DA5CB5B EQ PUSH2 0x15E JUMPI DUP1 PUSH4 0x9F442AFA EQ PUSH2 0x17C JUMPI DUP1 PUSH4 0xC19D93FB EQ PUSH2 0x19A JUMPI DUP1 PUSH4 0xE79CE794 EQ PUSH2 0x1B8 JUMPI DUP1 PUSH4 0xF2FDE38B EQ PUSH2 0x1D4 JUMPI PUSH2 0xA9 JUMP JUMPDEST DUP1 PUSH4 0x23962482 EQ PUSH2 0xAE JUMPI DUP1 PUSH4 0x2B7AC3F3 EQ PUSH2 0xCC JUMPI DUP1 PUSH4 0x434661EF EQ PUSH2 0xEA JUMPI DUP1 PUSH4 0x485CC955 EQ PUSH2 0x11A JUMPI DUP1 PUSH4 0x59A2AEAA EQ PUSH2 0x136 JUMPI JUMPDEST PUSH1 0x0 DUP1 REVERT JUMPDEST PUSH2 0xB6 PUSH2 0x1F0 JUMP JUMPDEST PUSH1 0x40 MLOAD PUSH2 0xC3 SWAP2 SWAP1 PUSH2 0x12E0 JUMP JUMPDEST PUSH1 0x40 MLOAD DUP1 SWAP2 SUB SWAP1 RETURN JUMPDEST PUSH2 0xD4 PUSH2 0x1F6 JUMP JUMPDEST PUSH1 0x40 MLOAD PUSH2 0xE1 SWAP2 SWAP1 PUSH2 0x137A JUMP JUMPDEST PUSH1 0x40 MLOAD DUP1 SWAP2 SUB SWAP1 RETURN JUMPDEST PUSH2 0x104 PUSH1 0x4 DUP1 CALLDATASIZE SUB DUP2 ADD SWAP1 PUSH2 0xFF SWAP2 SWAP1 PUSH2 0x147E JUMP JUMPDEST PUSH2 0x21C JUMP JUMPDEST PUSH1 0x40 MLOAD PUSH2 0x111 SWAP2 SWAP1 PUSH2 0x1535 JUMP JUMPDEST PUSH1 0x40 MLOAD DUP1 SWAP2 SUB SWAP1 RETURN JUMPDEST PUSH2 0x134 PUSH1 0x4 DUP1 CALLDATASIZE SUB DUP2 ADD SWAP1 PUSH2 0x12F SWAP2 SWAP1 PUSH2 0x158E JUMP JUMPDEST PUSH2 0x86D JUMP JUMPDEST STOP JUMPDEST PUSH2 0x13E PUSH2 0xA38 JUMP JUMPDEST PUSH1 0x40 MLOAD PUSH2 0x14B SWAP2 SWAP1 PUSH2 0x165E JUMP JUMPDEST PUSH1 0x40 MLOAD DUP1 SWAP2 SUB SWAP1 RETURN JUMPDEST PUSH2 0x15C PUSH2 0xA58 JUMP JUMPDEST STOP JUMPDEST PUSH2 0x166 PUSH2 0xA6C JUMP JUMPDEST PUSH1 0x40 MLOAD PUSH2 0x173 SWAP2 SWAP1 PUSH2 0x168F JUMP JUMPDEST PUSH1 0x40 MLOAD DUP1 SWAP2 SUB SWAP1 RETURN JUMPDEST PUSH2 0x184 PUSH2 0xA96 JUMP JUMPDEST PUSH1 0x40 MLOAD PUSH2 0x191 SWAP2 SWAP1 PUSH2 0x12E0 JUMP JUMPDEST PUSH1 0x40 MLOAD DUP1 SWAP2 SUB SWAP1 RETURN JUMPDEST PUSH2 0x1A2 PUSH2 0xA9F JUMP JUMPDEST PUSH1 0x40 MLOAD PUSH2 0x1AF SWAP2 SWAP1 PUSH2 0x16CB JUMP JUMPDEST PUSH1 0x40 MLOAD DUP1 SWAP2 SUB SWAP1 RETURN JUMPDEST PUSH2 0x1D2 PUSH1 0x4 DUP1 CALLDATASIZE SUB DUP2 ADD SWAP1 PUSH2 0x1CD SWAP2 SWAP1 PUSH2 0x16E6 JUMP JUMPDEST PUSH2 0xAC5 JUMP JUMPDEST STOP JUMPDEST PUSH2 0x1EE PUSH1 0x4 DUP1 CALLDATASIZE SUB DUP2 ADD SWAP1 PUSH2 0x1E9 SWAP2 SWAP1 PUSH2 0x1713 JUMP JUMPDEST PUSH2 0xAD7 JUMP JUMPDEST STOP JUMPDEST PUSH1 0x67 SLOAD DUP2 JUMP JUMPDEST PUSH1 0x65 PUSH1 0x0 SWAP1 SLOAD SWAP1 PUSH2 0x100 EXP SWAP1 DIV PUSH20 0xFFFFFFFFFFFFFFFFFFFFFFFFFFFFFFFFFFFFFFFF AND DUP2 JUMP JUMPDEST PUSH1 0x0 PUSH1 0x65 PUSH1 0x0 SWAP1 SLOAD SWAP1 PUSH2 0x100 EXP SWAP1 DIV PUSH20 0xFFFFFFFFFFFFFFFFFFFFFFFFFFFFFFFFFFFFFFFF AND PUSH20 0xFFFFFFFFFFFFFFFFFFFFFFFFFFFFFFFFFFFFFFFF AND PUSH4 0xC32E370E DUP7 DUP7 DUP7 DUP12 DUP12 PUSH1 0x40 MLOAD DUP7 PUSH4 0xFFFFFFFF AND PUSH1 0xE0 SHL DUP2 MSTORE PUSH1 0x4 ADD PUSH2 0x281 SWAP6 SWAP5 SWAP4 SWAP3 SWAP2 SWAP1 PUSH2 0x188A JUMP JUMPDEST PUSH1 0x20 PUSH1 0x40 MLOAD DUP1 DUP4 SUB DUP2 DUP7 GAS STATICCALL ISZERO DUP1 ISZERO PUSH2 0x29E JUMPI RETURNDATASIZE PUSH1 0x0 DUP1 RETURNDATACOPY RETURNDATASIZE PUSH1 0x0 REVERT JUMPDEST POP POP POP POP PUSH1 0x40 MLOAD RETURNDATASIZE PUSH1 0x1F NOT PUSH1 0x1F DUP3 ADD AND DUP3 ADD DUP1 PUSH1 0x40 MSTORE POP DUP2 ADD SWAP1 PUSH2 0x2C2 SWAP2 SWAP1 PUSH2 0x1906 JUMP JUMPDEST PUSH2 0x301 JUMPI PUSH1 0x40 MLOAD PUSH32 0x8C379A000000000000000000000000000000000000000000000000000000000 DUP2 MSTORE PUSH1 0x4 ADD PUSH2 0x2F8 SWAP1 PUSH2 0x197F JUMP JUMPDEST PUSH1 0x40 MLOAD DUP1 SWAP2 SUB SWAP1 REVERT JUMPDEST DUP2 DUP8 DUP8 PUSH1 0x2 DUP2 DUP2 LT PUSH2 0x316 JUMPI PUSH2 0x315 PUSH2 0x199F JUMP JUMPDEST JUMPDEST SWAP1 POP PUSH1 0x20 MUL ADD CALLDATALOAD EQ PUSH2 0x35D JUMPI PUSH1 0x40 MLOAD PUSH32 0x8C379A000000000000000000000000000000000000000000000000000000000 DUP2 MSTORE PUSH1 0x4 ADD PUSH2 0x354 SWAP1 PUSH2 0x1A40 JUMP JUMPDEST PUSH1 0x40 MLOAD DUP1 SWAP2 SUB SWAP1 REVERT JUMPDEST PUSH1 0x0 DUP8 DUP8 PUSH1 0x5 DUP2 DUP2 LT PUSH2 0x373 JUMPI PUSH2 0x372 PUSH2 0x199F JUMP JUMPDEST JUMPDEST SWAP1 POP PUSH1 0x20 MUL ADD CALLDATALOAD SWAP1 POP PUSH1 0x0 DUP9 DUP9 PUSH1 0x6 DUP2 DUP2 LT PUSH2 0x392 JUMPI PUSH2 0x391 PUSH2 0x199F JUMP JUMPDEST JUMPDEST SWAP1 POP PUSH1 0x20 MUL ADD CALLDATALOAD SWAP1 POP PUSH1 0x0 DUP10 DUP10 PUSH1 0x7 DUP2 DUP2 LT PUSH2 0x3B1 JUMPI PUSH2 0x3B0 PUSH2 0x199F JUMP JUMPDEST JUMPDEST SWAP1 POP PUSH1 0x20 MUL ADD CALLDATALOAD SWAP1 POP PUSH1 0x0 DUP11 DUP11 PUSH1 0x9 DUP2 DUP2 LT PUSH2 0x3D0 JUMPI PUSH2 0x3CF PUSH2 0x199F JUMP JUMPDEST JUMPDEST SWAP1 POP PUSH1 0x20 MUL ADD CALLDATALOAD SWAP1 POP PUSH1 0x0 PUSH1 0x66 PUSH1 0x0 SWAP1 SLOAD SWAP1 PUSH2 0x100 EXP SWAP1 DIV PUSH20 0xFFFFFFFFFFFFFFFFFFFFFFFFFFFFFFFFFFFFFFFF AND PUSH20 0xFFFFFFFFFFFFFFFFFFFFFFFFFFFFFFFFFFFFFFFF AND PUSH4 0x7C1A66DE DUP7 PUSH1 0x40 MLOAD DUP3 PUSH4 0xFFFFFFFF AND PUSH1 0xE0 SHL DUP2 MSTORE PUSH1 0x4 ADD PUSH2 0x436 SWAP2 SWAP1 PUSH2 0x12E0 JUMP JUMPDEST PUSH1 0xC0 PUSH1 0x40 MLOAD DUP1 DUP4 SUB DUP2 DUP7 GAS STATICCALL ISZERO DUP1 ISZERO PUSH2 0x453 JUMPI RETURNDATASIZE PUSH1 0x0 DUP1 RETURNDATACOPY RETURNDATASIZE PUSH1 0x0 REVERT JUMPDEST POP POP POP POP PUSH1 0x40 MLOAD RETURNDATASIZE PUSH1 0x1F NOT PUSH1 0x1F DUP3 ADD AND DUP3 ADD DUP1 PUSH1 0x40 MSTORE POP DUP2 ADD SWAP1 PUSH2 0x477 SWAP2 SWAP1 PUSH2 0x1B95 JUMP JUMPDEST SWAP1 POP DUP5 DUP2 PUSH1 0x0 ADD MLOAD EQ PUSH2 0x4BF JUMPI PUSH1 0x40 MLOAD PUSH32 0x8C379A000000000000000000000000000000000000000000000000000000000 DUP2 MSTORE PUSH1 0x4 ADD PUSH2 0x4B6 SWAP1 PUSH2 0x1C34 JUMP JUMPDEST PUSH1 0x40 MLOAD DUP1 SWAP2 SUB SWAP1 REVERT JUMPDEST PUSH1 0x0 PUSH2 0x4CB DUP6 DUP6 PUSH2 0xB5A JUMP JUMPDEST SWAP1 POP DUP1 PUSH2 0x5BC JUMPI PUSH1 0x0 PUSH1 0x66 PUSH1 0x0 SWAP1 SLOAD SWAP1 PUSH2 0x100 EXP SWAP1 DIV PUSH20 0xFFFFFFFFFFFFFFFFFFFFFFFFFFFFFFFFFFFFFFFF AND PUSH20 0xFFFFFFFFFFFFFFFFFFFFFFFFFFFFFFFFFFFFFFFF AND PUSH4 0x53C87312 DUP8 DUP8 PUSH1 0x40 MLOAD DUP4 PUSH4 0xFFFFFFFF AND PUSH1 0xE0 SHL DUP2 MSTORE PUSH1 0x4 ADD PUSH2 0x531 SWAP3 SWAP2 SWAP1 PUSH2 0x1C54 JUMP JUMPDEST PUSH1 0xE0 PUSH1 0x40 MLOAD DUP1 DUP4 SUB DUP2 DUP7 GAS STATICCALL ISZERO DUP1 ISZERO PUSH2 0x54E JUMPI RETURNDATASIZE PUSH1 0x0 DUP1 RETURNDATACOPY RETURNDATASIZE PUSH1 0x0 REVERT JUMPDEST POP POP POP POP PUSH1 0x40 MLOAD RETURNDATASIZE PUSH1 0x1F NOT PUSH1 0x1F DUP3 ADD AND DUP3 ADD DUP1 PUSH1 0x40 MSTORE POP DUP2 ADD SWAP1 PUSH2 0x572 SWAP2 SWAP1 PUSH2 0x1D31 JUMP JUMPDEST SWAP1 POP DUP1 PUSH1 0x0 ADD MLOAD DUP7 EQ PUSH2 0x5BA JUMPI PUSH1 0x40 MLOAD PUSH32 0x8C379A000000000000000000000000000000000000000000000000000000000 DUP2 MSTORE PUSH1 0x4 ADD PUSH2 0x5B1 SWAP1 PUSH2 0x1DD0 JUMP JUMPDEST PUSH1 0x40 MLOAD DUP1 SWAP2 SUB SWAP1 REVERT JUMPDEST POP JUMPDEST PUSH1 0x0 PUSH1 0x66 PUSH1 0x0 SWAP1 SLOAD SWAP1 PUSH2 0x100 EXP SWAP1 DIV PUSH20 0xFFFFFFFFFFFFFFFFFFFFFFFFFFFFFFFFFFFFFFFF AND PUSH20 0xFFFFFFFFFFFFFFFFFFFFFFFFFFFFFFFFFFFFFFFF AND PUSH4 0xB4BDEA55 DUP8 PUSH1 0x40 MLOAD DUP3 PUSH4 0xFFFFFFFF AND PUSH1 0xE0 SHL DUP2 MSTORE PUSH1 0x4 ADD PUSH2 0x619 SWAP2 SWAP1 PUSH2 0x12E0 JUMP JUMPDEST PUSH1 0xE0 PUSH1 0x40 MLOAD DUP1 DUP4 SUB DUP2 DUP7 GAS STATICCALL ISZERO DUP1 ISZERO PUSH2 0x636 JUMPI RETURNDATASIZE PUSH1 0x0 DUP1 RETURNDATACOPY RETURNDATASIZE PUSH1 0x0 REVERT JUMPDEST POP POP POP POP PUSH1 0x40 MLOAD RETURNDATASIZE PUSH1 0x1F NOT PUSH1 0x1F DUP3 ADD AND DUP3 ADD DUP1 PUSH1 0x40 MSTORE POP DUP2 ADD SWAP1 PUSH2 0x65A SWAP2 SWAP1 PUSH2 0x1D31 JUMP JUMPDEST SWAP1 POP PUSH1 0x0 DUP2 PUSH1 0x20 ADD MLOAD SUB PUSH2 0x6B6 JUMPI PUSH2 0x672 DUP7 DUP6 PUSH2 0xB5A JUMP JUMPDEST PUSH2 0x6B1 JUMPI PUSH1 0x40 MLOAD PUSH32 0x8C379A000000000000000000000000000000000000000000000000000000000 DUP2 MSTORE PUSH1 0x4 ADD PUSH2 0x6A8 SWAP1 PUSH2 0x1E62 JUMP JUMPDEST PUSH1 0x40 MLOAD DUP1 SWAP2 SUB SWAP1 REVERT JUMPDEST PUSH2 0x858 JUMP JUMPDEST DUP4 DUP2 PUSH1 0x20 ADD MLOAD EQ PUSH2 0x857 JUMPI PUSH1 0x0 PUSH1 0x66 PUSH1 0x0 SWAP1 SLOAD SWAP1 PUSH2 0x100 EXP SWAP1 DIV PUSH20 0xFFFFFFFFFFFFFFFFFFFFFFFFFFFFFFFFFFFFFFFF AND PUSH20 0xFFFFFFFFFFFFFFFFFFFFFFFFFFFFFFFFFFFFFFFF AND PUSH4 0x53C87312 DUP9 DUP8 PUSH1 0x40 MLOAD DUP4 PUSH4 0xFFFFFFFF AND PUSH1 0xE0 SHL DUP2 MSTORE PUSH1 0x4 ADD PUSH2 0x720 SWAP3 SWAP2 SWAP1 PUSH2 0x1C54 JUMP JUMPDEST PUSH1 0xE0 PUSH1 0x40 MLOAD DUP1 DUP4 SUB DUP2 DUP7 GAS STATICCALL ISZERO DUP1 ISZERO PUSH2 0x73D JUMPI RETURNDATASIZE PUSH1 0x0 DUP1 RETURNDATACOPY RETURNDATASIZE PUSH1 0x0 REVERT JUMPDEST POP POP POP POP PUSH1 0x40 MLOAD RETURNDATASIZE PUSH1 0x1F NOT PUSH1 0x1F DUP3 ADD AND DUP3 ADD DUP1 PUSH1 0x40 MSTORE POP DUP2 ADD SWAP1 PUSH2 0x761 SWAP2 SWAP1 PUSH2 0x1D31 JUMP JUMPDEST SWAP1 POP PUSH1 0x0 DUP2 PUSH1 0x0 ADD MLOAD EQ DUP1 PUSH2 0x77A JUMPI POP DUP7 DUP2 PUSH1 0x0 ADD MLOAD EQ ISZERO JUMPDEST ISZERO PUSH2 0x7BA JUMPI PUSH1 0x40 MLOAD PUSH32 0x8C379A000000000000000000000000000000000000000000000000000000000 DUP2 MSTORE PUSH1 0x4 ADD PUSH2 0x7B1 SWAP1 PUSH2 0x1EF4 JUMP JUMPDEST PUSH1 0x40 MLOAD DUP1 SWAP2 SUB SWAP1 REVERT JUMPDEST PUSH1 0x0 DUP2 PUSH1 0x80 ADD MLOAD SUB PUSH2 0x801 JUMPI PUSH1 0x40 MLOAD PUSH32 0x8C379A000000000000000000000000000000000000000000000000000000000 DUP2 MSTORE PUSH1 0x4 ADD PUSH2 0x7F8 SWAP1 PUSH2 0x1F86 JUMP JUMPDEST PUSH1 0x40 MLOAD DUP1 SWAP2 SUB SWAP1 REVERT JUMPDEST PUSH1 0x67 SLOAD DUP2 PUSH1 0x80 ADD MLOAD TIMESTAMP PUSH2 0x814 SWAP2 SWAP1 PUSH2 0x1FD5 JUMP JUMPDEST GT ISZERO PUSH2 0x855 JUMPI PUSH1 0x40 MLOAD PUSH32 0x8C379A000000000000000000000000000000000000000000000000000000000 DUP2 MSTORE PUSH1 0x4 ADD PUSH2 0x84C SWAP1 PUSH2 0x207B JUMP JUMPDEST PUSH1 0x40 MLOAD DUP1 SWAP2 SUB SWAP1 REVERT JUMPDEST POP JUMPDEST JUMPDEST PUSH1 0x1 SWAP8 POP POP POP POP POP POP POP POP SWAP7 SWAP6 POP POP POP POP POP POP JUMP JUMPDEST PUSH1 0x0 DUP1 PUSH1 0x1 SWAP1 SLOAD SWAP1 PUSH2 0x100 EXP SWAP1 DIV PUSH1 0xFF AND ISZERO SWAP1 POP DUP1 DUP1 ISZERO PUSH2 0x89E JUMPI POP PUSH1 0x1 PUSH1 0x0 DUP1 SLOAD SWAP1 PUSH2 0x100 EXP SWAP1 DIV PUSH1 0xFF AND PUSH1 0xFF AND LT JUMPDEST DUP1 PUSH2 0x8CB JUMPI POP PUSH2 0x8AD ADDRESS PUSH2 0xCA5 JUMP JUMPDEST ISZERO DUP1 ISZERO PUSH2 0x8CA JUMPI POP PUSH1 0x1 PUSH1 0x0 DUP1 SLOAD SWAP1 PUSH2 0x100 EXP SWAP1 DIV PUSH1 0xFF AND PUSH1 0xFF AND EQ JUMPDEST JUMPDEST PUSH2 0x90A JUMPI PUSH1 0x40 MLOAD PUSH32 0x8C379A000000000000000000000000000000000000000000000000000000000 DUP2 MSTORE PUSH1 0x4 ADD PUSH2 0x901 SWAP1 PUSH2 0x210D JUMP JUMPDEST PUSH1 0x40 MLOAD DUP1 SWAP2 SUB SWAP1 REVERT JUMPDEST PUSH1 0x1 PUSH1 0x0 DUP1 PUSH2 0x100 EXP DUP2 SLOAD DUP2 PUSH1 0xFF MUL NOT AND SWAP1 DUP4 PUSH1 0xFF AND MUL OR SWAP1 SSTORE POP DUP1 ISZERO PUSH2 0x947 JUMPI PUSH1 0x1 PUSH1 0x0 PUSH1 0x1 PUSH2 0x100 EXP DUP2 SLOAD DUP2 PUSH1 0xFF MUL NOT AND SWAP1 DUP4 ISZERO ISZERO MUL OR SWAP1 SSTORE POP JUMPDEST PUSH2 0xE10 PUSH1 0x67 DUP2 SWAP1 SSTORE POP DUP3 PUSH1 0x65 PUSH1 0x0 PUSH2 0x100 EXP DUP2 SLOAD DUP2 PUSH20 0xFFFFFFFFFFFFFFFFFFFFFFFFFFFFFFFFFFFFFFFF MUL NOT AND SWAP1 DUP4 PUSH20 0xFFFFFFFFFFFFFFFFFFFFFFFFFFFFFFFFFFFFFFFF AND MUL OR SWAP1 SSTORE POP DUP2 PUSH1 0x66 PUSH1 0x0 PUSH2 0x100 EXP DUP2 SLOAD DUP2 PUSH20 0xFFFFFFFFFFFFFFFFFFFFFFFFFFFFFFFFFFFFFFFF MUL NOT AND SWAP1 DUP4 PUSH20 0xFFFFFFFFFFFFFFFFFFFFFFFFFFFFFFFFFFFFFFFF AND MUL OR SWAP1 SSTORE POP PUSH2 0x9DA PUSH2 0xCC8 JUMP JUMPDEST DUP1 ISZERO PUSH2 0xA33 JUMPI PUSH1 0x0 DUP1 PUSH1 0x1 PUSH2 0x100 EXP DUP2 SLOAD DUP2 PUSH1 0xFF MUL NOT AND SWAP1 DUP4 ISZERO ISZERO MUL OR SWAP1 SSTORE POP PUSH32 0x7F26B83FF96E1F2B6A682F133852F6798A09C465DA95921460CEFB3847402498 PUSH1 0x1 PUSH1 0x40 MLOAD PUSH2 0xA2A SWAP2 SWAP1 PUSH2 0x2175 JUMP JUMPDEST PUSH1 0x40 MLOAD DUP1 SWAP2 SUB SWAP1 LOG1 JUMPDEST POP POP POP JUMP JUMPDEST PUSH1 0x60 PUSH1 0x40 MLOAD DUP1 PUSH1 0x60 ADD PUSH1 0x40 MSTORE DUP1 PUSH1 0x21 DUP2 MSTORE PUSH1 0x20 ADD PUSH2 0x2608 PUSH1 0x21 SWAP2 CODECOPY SWAP1 POP SWAP1 JUMP JUMPDEST PUSH2 0xA60 PUSH2 0xD21 JUMP JUMPDEST PUSH2 0xA6A PUSH1 0x0 PUSH2 0xD9F JUMP JUMPDEST JUMP JUMPDEST PUSH1 0x0 PUSH1 0x33 PUSH1 0x0 SWAP1 SLOAD SWAP1 PUSH2 0x100 EXP SWAP1 DIV PUSH20 0xFFFFFFFFFFFFFFFFFFFFFFFFFFFFFFFFFFFFFFFF AND SWAP1 POP SWAP1 JUMP JUMPDEST PUSH1 0x0 PUSH1 0x4 SWAP1 POP SWAP1 JUMP JUMPDEST PUSH1 0x66 PUSH1 0x0 SWAP1 SLOAD SWAP1 PUSH2 0x100 EXP SWAP1 DIV PUSH20 0xFFFFFFFFFFFFFFFFFFFFFFFFFFFFFFFFFFFFFFFF AND DUP2 JUMP JUMPDEST PUSH2 0xACD PUSH2 0xD21 JUMP JUMPDEST DUP1 PUSH1 0x67 DUP2 SWAP1 SSTORE POP POP JUMP JUMPDEST PUSH2 0xADF PUSH2 0xD21 JUMP JUMPDEST PUSH1 0x0 PUSH20 0xFFFFFFFFFFFFFFFFFFFFFFFFFFFFFFFFFFFFFFFF AND DUP2 PUSH20 0xFFFFFFFFFFFFFFFFFFFFFFFFFFFFFFFFFFFFFFFF AND SUB PUSH2 0xB4E JUMPI PUSH1 0x40 MLOAD PUSH32 0x8C379A000000000000000000000000000000000000000000000000000000000 DUP2 MSTORE PUSH1 0x4 ADD PUSH2 0xB45 SWAP1 PUSH2 0x2202 JUMP JUMPDEST PUSH1 0x40 MLOAD DUP1 SWAP2 SUB SWAP1 REVERT JUMPDEST PUSH2 0xB57 DUP2 PUSH2 0xD9F JUMP JUMPDEST POP JUMP JUMPDEST PUSH1 0x0 DUP1 PUSH2 0xB66 DUP4 PUSH2 0xE65 JUMP JUMPDEST SWAP1 POP PUSH1 0x0 PUSH2 0xB73 DUP3 PUSH2 0xFB1 JUMP JUMPDEST SWAP1 POP PUSH1 0x0 PUSH2 0xB90 DUP3 PUSH1 0x1B DUP5 MLOAD PUSH2 0xB89 SWAP2 SWAP1 PUSH2 0x1FD5 JUMP JUMPDEST PUSH1 0x1B PUSH2 0x100E JUMP JUMPDEST SWAP1 POP PUSH1 0x0 PUSH1 0x40 MLOAD DUP1 PUSH1 0x40 ADD PUSH1 0x40 MSTORE DUP1 PUSH1 0x2 DUP2 MSTORE PUSH1 0x20 ADD PUSH1 0x0 DUP2 MSTORE POP SWAP1 POP PUSH1 0x0 PUSH2 0xBB9 DUP3 DUP5 PUSH2 0x112C JUMP JUMPDEST SWAP1 POP PUSH1 0x1D DUP2 MLOAD EQ PUSH2 0xBFF JUMPI PUSH1 0x40 MLOAD PUSH32 0x8C379A000000000000000000000000000000000000000000000000000000000 DUP2 MSTORE PUSH1 0x4 ADD PUSH2 0xBF6 SWAP1 PUSH2 0x2294 JUMP JUMPDEST PUSH1 0x40 MLOAD DUP1 SWAP2 SUB SWAP1 REVERT JUMPDEST PUSH1 0x0 PUSH2 0xC0A DUP3 PUSH2 0x11B6 JUMP JUMPDEST SWAP1 POP PUSH1 0x0 DUP2 PUSH1 0x40 MLOAD PUSH1 0x20 ADD PUSH2 0xC1F SWAP2 SWAP1 PUSH2 0x22F8 JUMP JUMPDEST PUSH1 0x40 MLOAD PUSH1 0x20 DUP2 DUP4 SUB SUB DUP2 MSTORE SWAP1 PUSH1 0x40 MSTORE SWAP1 POP PUSH1 0x0 PUSH2 0xC3C DUP5 DUP4 PUSH2 0x112C JUMP JUMPDEST SWAP1 POP PUSH1 0x1F DUP2 MLOAD EQ PUSH2 0xC82 JUMPI PUSH1 0x40 MLOAD PUSH32 0x8C379A000000000000000000000000000000000000000000000000000000000 DUP2 MSTORE PUSH1 0x4 ADD PUSH2 0xC79 SWAP1 PUSH2 0x235F JUMP JUMPDEST PUSH1 0x40 MLOAD DUP1 SWAP2 SUB SWAP1 REVERT JUMPDEST PUSH2 0xC93 PUSH2 0xC8E DUP3 PUSH2 0x1250 JUMP JUMPDEST PUSH2 0xE65 JUMP JUMPDEST DUP12 EQ SWAP9 POP POP POP POP POP POP POP POP POP SWAP3 SWAP2 POP POP JUMP JUMPDEST PUSH1 0x0 DUP1 DUP3 PUSH20 0xFFFFFFFFFFFFFFFFFFFFFFFFFFFFFFFFFFFFFFFF AND EXTCODESIZE GT SWAP1 POP SWAP2 SWAP1 POP JUMP JUMPDEST PUSH1 0x0 PUSH1 0x1 SWAP1 SLOAD SWAP1 PUSH2 0x100 EXP SWAP1 DIV PUSH1 0xFF AND PUSH2 0xD17 JUMPI PUSH1 0x40 MLOAD PUSH32 0x8C379A000000000000000000000000000000000000000000000000000000000 DUP2 MSTORE PUSH1 0x4 ADD PUSH2 0xD0E SWAP1 PUSH2 0x23F1 JUMP JUMPDEST PUSH1 0x40 MLOAD DUP1 SWAP2 SUB SWAP1 REVERT JUMPDEST PUSH2 0xD1F PUSH2 0x125E JUMP JUMPDEST JUMP JUMPDEST PUSH2 0xD29 PUSH2 0x12BF JUMP JUMPDEST PUSH20 0xFFFFFFFFFFFFFFFFFFFFFFFFFFFFFFFFFFFFFFFF AND PUSH2 0xD47 PUSH2 0xA6C JUMP JUMPDEST PUSH20 0xFFFFFFFFFFFFFFFFFFFFFFFFFFFFFFFFFFFFFFFF AND EQ PUSH2 0xD9D JUMPI PUSH1 0x40 MLOAD PUSH32 0x8C379A000000000000000000000000000000000000000000000000000000000 DUP2 MSTORE PUSH1 0x4 ADD PUSH2 0xD94 SWAP1 PUSH2 0x245D JUMP JUMPDEST PUSH1 0x40 MLOAD DUP1 SWAP2 SUB SWAP1 REVERT JUMPDEST JUMP JUMPDEST PUSH1 0x0 PUSH1 0x33 PUSH1 0x0 SWAP1 SLOAD SWAP1 PUSH2 0x100 EXP SWAP1 DIV PUSH20 0xFFFFFFFFFFFFFFFFFFFFFFFFFFFFFFFFFFFFFFFF AND SWAP1 POP DUP2 PUSH1 0x33 PUSH1 0x0 PUSH2 0x100 EXP DUP2 SLOAD DUP2 PUSH20 0xFFFFFFFFFFFFFFFFFFFFFFFFFFFFFFFFFFFFFFFF MUL NOT AND SWAP1 DUP4 PUSH20 0xFFFFFFFFFFFFFFFFFFFFFFFFFFFFFFFFFFFFFFFF AND MUL OR SWAP1 SSTORE POP DUP2 PUSH20 0xFFFFFFFFFFFFFFFFFFFFFFFFFFFFFFFFFFFFFFFF AND DUP2 PUSH20 0xFFFFFFFFFFFFFFFFFFFFFFFFFFFFFFFFFFFFFFFF AND PUSH32 0x8BE0079C531659141344CD1FD0A4F28419497F9722A3DAAFE3B4186F6B6457E0 PUSH1 0x40 MLOAD PUSH1 0x40 MLOAD DUP1 SWAP2 SUB SWAP1 LOG3 POP POP JUMP JUMPDEST PUSH1 0x0 DUP2 SWAP1 POP PUSH1 0x8 PUSH31 0xFF00FF00FF00FF00FF00FF00FF00FF00FF00FF00FF00FF00FF00FF00FF00FF DUP3 AND SWAP1 SHL PUSH1 0x8 PUSH32 0xFF00FF00FF00FF00FF00FF00FF00FF00FF00FF00FF00FF00FF00FF00FF00FF00 DUP4 AND SWAP1 SHR OR SWAP1 POP PUSH1 0x10 PUSH30 0xFFFF0000FFFF0000FFFF0000FFFF0000FFFF0000FFFF0000FFFF0000FFFF DUP3 AND SWAP1 SHL PUSH1 0x10 PUSH32 0xFFFF0000FFFF0000FFFF0000FFFF0000FFFF0000FFFF0000FFFF0000FFFF0000 DUP4 AND SWAP1 SHR OR SWAP1 POP PUSH1 0x20 PUSH28 0xFFFFFFFF00000000FFFFFFFF00000000FFFFFFFF00000000FFFFFFFF DUP3 AND SWAP1 SHL PUSH1 0x20 PUSH32 0xFFFFFFFF00000000FFFFFFFF00000000FFFFFFFF00000000FFFFFFFF00000000 DUP4 AND SWAP1 SHR OR SWAP1 POP PUSH1 0x40 PUSH24 0xFFFFFFFFFFFFFFFF0000000000000000FFFFFFFFFFFFFFFF DUP3 AND SWAP1 SHL PUSH1 0x40 PUSH32 0xFFFFFFFFFFFFFFFF0000000000000000FFFFFFFFFFFFFFFF0000000000000000 DUP4 AND SWAP1 SHR OR SWAP1 POP PUSH1 0x80 DUP2 SWAP1 SHL PUSH1 0x80 DUP3 SWAP1 SHR OR SWAP1 POP SWAP2 SWAP1 POP JUMP JUMPDEST PUSH1 0x60 PUSH1 0x20 PUSH8 0xFFFFFFFFFFFFFFFF DUP2 GT ISZERO PUSH2 0xFCE JUMPI PUSH2 0xFCD PUSH2 0x1A65 JUMP JUMPDEST JUMPDEST PUSH1 0x40 MLOAD SWAP1 DUP1 DUP3 MSTORE DUP1 PUSH1 0x1F ADD PUSH1 0x1F NOT AND PUSH1 0x20 ADD DUP3 ADD PUSH1 0x40 MSTORE DUP1 ISZERO PUSH2 0x1000 JUMPI DUP2 PUSH1 0x20 ADD PUSH1 0x1 DUP3 MUL DUP1 CALLDATASIZE DUP4 CALLDATACOPY DUP1 DUP3 ADD SWAP2 POP POP SWAP1 POP JUMPDEST POP SWAP1 POP DUP2 PUSH1 0x20 DUP3 ADD MSTORE SWAP2 SWAP1 POP JUMP JUMPDEST PUSH1 0x60 DUP2 PUSH1 0x1F DUP4 PUSH2 0x101E SWAP2 SWAP1 PUSH2 0x247D JUMP JUMPDEST LT ISZERO PUSH2 0x105F JUMPI PUSH1 0x40 MLOAD PUSH32 0x8C379A000000000000000000000000000000000000000000000000000000000 DUP2 MSTORE PUSH1 0x4 ADD PUSH2 0x1056 SWAP1 PUSH2 0x24FD JUMP JUMPDEST PUSH1 0x40 MLOAD DUP1 SWAP2 SUB SWAP1 REVERT JUMPDEST DUP2 DUP4 PUSH2 0x106B SWAP2 SWAP1 PUSH2 0x247D JUMP JUMPDEST DUP5 MLOAD LT ISZERO PUSH2 0x10AE JUMPI PUSH1 0x40 MLOAD PUSH32 0x8C379A000000000000000000000000000000000000000000000000000000000 DUP2 MSTORE PUSH1 0x4 ADD PUSH2 0x10A5 SWAP1 PUSH2 0x2569 JUMP JUMPDEST PUSH1 0x40 MLOAD DUP1 SWAP2 SUB SWAP1 REVERT JUMPDEST PUSH1 0x60 DUP3 ISZERO PUSH1 0x0 DUP2 EQ PUSH2 0x10CF JUMPI PUSH1 0x40 MLOAD SWAP2 POP PUSH1 0x0 DUP3 MSTORE PUSH1 0x20 DUP3 ADD PUSH1 0x40 MSTORE PUSH2 0x1120 JUMP JUMPDEST PUSH1 0x40 MLOAD SWAP2 POP PUSH1 0x1F DUP5 AND DUP1 ISZERO PUSH1 0x20 MUL DUP2 DUP5 ADD ADD DUP6 DUP2 ADD DUP8 DUP4 ISZERO PUSH1 0x20 MUL DUP5 DUP12 ADD ADD ADD JUMPDEST DUP2 DUP4 LT ISZERO PUSH2 0x110D JUMPI DUP1 MLOAD DUP4 MSTORE PUSH1 0x20 DUP4 ADD SWAP3 POP PUSH1 0x20 DUP2 ADD SWAP1 POP PUSH2 0x10F0 JUMP JUMPDEST POP DUP7 DUP6 MSTORE PUSH1 0x1F NOT PUSH1 0x1F DUP4 ADD AND PUSH1 0x40 MSTORE POP POP POP JUMPDEST POP DUP1 SWAP2 POP POP SWAP4 SWAP3 POP POP POP JUMP JUMPDEST PUSH1 0x60 DUP1 PUSH1 0x40 MLOAD SWAP1 POP DUP4 MLOAD DUP1 DUP3 MSTORE PUSH1 0x20 DUP3 ADD DUP2 DUP2 ADD PUSH1 0x20 DUP8 ADD JUMPDEST DUP2 DUP4 LT ISZERO PUSH2 0x1162 JUMPI DUP1 MLOAD DUP4 MSTORE PUSH1 0x20 DUP4 ADD SWAP3 POP PUSH1 0x20 DUP2 ADD SWAP1 POP PUSH2 0x1145 JUMP JUMPDEST POP DUP6 MLOAD SWAP3 POP DUP4 MLOAD DUP4 ADD DUP5 MSTORE DUP1 SWAP2 POP DUP3 DUP3 ADD SWAP1 POP PUSH1 0x20 DUP7 ADD JUMPDEST DUP2 DUP4 LT ISZERO PUSH2 0x1197 JUMPI DUP1 MLOAD DUP4 MSTORE PUSH1 0x20 DUP4 ADD SWAP3 POP PUSH1 0x20 DUP2 ADD SWAP1 POP PUSH2 0x117A JUMP JUMPDEST POP PUSH1 0x1F NOT PUSH1 0x1F DUP9 MLOAD DUP6 ADD ISZERO DUP4 ADD ADD AND PUSH1 0x40 MSTORE POP POP POP DUP1 SWAP2 POP POP SWAP3 SWAP2 POP POP JUMP JUMPDEST PUSH1 0x0 PUSH1 0x1D DUP3 MLOAD EQ PUSH2 0x11FC JUMPI PUSH1 0x40 MLOAD PUSH32 0x8C379A000000000000000000000000000000000000000000000000000000000 DUP2 MSTORE PUSH1 0x4 ADD PUSH2 0x11F3 SWAP1 PUSH2 0x2294 JUMP JUMPDEST PUSH1 0x40 MLOAD DUP1 SWAP2 SUB SWAP1 REVERT JUMPDEST PUSH1 0x0 JUMPDEST DUP3 MLOAD DUP2 LT ISZERO PUSH2 0x124A JUMPI DUP3 DUP2 DUP2 MLOAD DUP2 LT PUSH2 0x121B JUMPI PUSH2 0x121A PUSH2 0x199F JUMP JUMPDEST JUMPDEST PUSH1 0x20 ADD ADD MLOAD PUSH1 0xF8 SHR PUSH1 0xF8 SHL PUSH1 0xF8 SHR PUSH1 0xFF AND DUP3 PUSH2 0x1237 SWAP2 SWAP1 PUSH2 0x2589 JUMP JUMPDEST SWAP2 POP DUP1 PUSH2 0x1243 SWAP1 PUSH2 0x25BF JUMP JUMPDEST SWAP1 POP PUSH2 0x11FF JUMP JUMPDEST POP SWAP2 SWAP1 POP JUMP JUMPDEST PUSH1 0x0 PUSH1 0x20 DUP3 ADD MLOAD SWAP1 POP SWAP2 SWAP1 POP JUMP JUMPDEST PUSH1 0x0 PUSH1 0x1 SWAP1 SLOAD SWAP1 PUSH2 0x100 EXP SWAP1 DIV PUSH1 0xFF AND PUSH2 0x12AD JUMPI PUSH1 0x40 MLOAD PUSH32 0x8C379A000000000000000000000000000000000000000000000000000000000 DUP2 MSTORE PUSH1 0x4 ADD PUSH2 0x12A4 SWAP1 PUSH2 0x23F1 JUMP JUMPDEST PUSH1 0x40 MLOAD DUP1 SWAP2 SUB SWAP1 REVERT JUMPDEST PUSH2 0x12BD PUSH2 0x12B8 PUSH2 0x12BF JUMP JUMPDEST PUSH2 0xD9F JUMP JUMPDEST JUMP JUMPDEST PUSH1 0x0 CALLER SWAP1 POP SWAP1 JUMP JUMPDEST PUSH1 0x0 DUP2 SWAP1 POP SWAP2 SWAP1 POP JUMP JUMPDEST PUSH2 0x12DA DUP2 PUSH2 0x12C7 JUMP JUMPDEST DUP3 MSTORE POP POP JUMP JUMPDEST PUSH1 0x0 PUSH1 0x20 DUP3 ADD SWAP1 POP PUSH2 0x12F5 PUSH1 0x0 DUP4 ADD DUP5 PUSH2 0x12D1 JUMP JUMPDEST SWAP3 SWAP2 POP POP JUMP JUMPDEST PUSH1 0x0 PUSH20 0xFFFFFFFFFFFFFFFFFFFFFFFFFFFFFFFFFFFFFFFF DUP3 AND SWAP1 POP SWAP2 SWAP1 POP JUMP JUMPDEST PUSH1 0x0 DUP2 SWAP1 POP SWAP2 SWAP1 POP JUMP JUMPDEST PUSH1 0x0 PUSH2 0x1340 PUSH2 0x133B PUSH2 0x1336 DUP5 PUSH2 0x12FB JUMP JUMPDEST PUSH2 0x131B JUMP JUMPDEST PUSH2 0x12FB JUMP JUMPDEST SWAP1 POP SWAP2 SWAP1 POP JUMP JUMPDEST PUSH1 0x0 PUSH2 0x1352 DUP3 PUSH2 0x1325 JUMP JUMPDEST SWAP1 POP SWAP2 SWAP1 POP JUMP JUMPDEST PUSH1 0x0 PUSH2 0x1364 DUP3 PUSH2 0x1347 JUMP JUMPDEST SWAP1 POP SWAP2 SWAP1 POP JUMP JUMPDEST PUSH2 0x1374 DUP2 PUSH2 0x1359 JUMP JUMPDEST DUP3 MSTORE POP POP JUMP JUMPDEST PUSH1 0x0 PUSH1 0x20 DUP3 ADD SWAP1 POP PUSH2 0x138F PUSH1 0x0 DUP4 ADD DUP5 PUSH2 0x136B JUMP JUMPDEST SWAP3 SWAP2 POP POP JUMP JUMPDEST PUSH1 0x0 PUSH1 0x40 MLOAD SWAP1 POP SWAP1 JUMP JUMPDEST PUSH1 0x0 DUP1 REVERT JUMPDEST PUSH1 0x0 DUP1 REVERT JUMPDEST PUSH1 0x0 DUP1 REVERT JUMPDEST PUSH1 0x0 DUP1 REVERT JUMPDEST PUSH1 0x0 DUP1 REVERT JUMPDEST PUSH1 0x0 DUP1 DUP4 PUSH1 0x1F DUP5 ADD SLT PUSH2 0x13CE JUMPI PUSH2 0x13CD PUSH2 0x13A9 JUMP JUMPDEST JUMPDEST DUP3 CALLDATALOAD SWAP1 POP PUSH8 0xFFFFFFFFFFFFFFFF DUP2 GT ISZERO PUSH2 0x13EB JUMPI PUSH2 0x13EA PUSH2 0x13AE JUMP JUMPDEST JUMPDEST PUSH1 0x20 DUP4 ADD SWAP2 POP DUP4 PUSH1 0x20 DUP3 MUL DUP4 ADD GT ISZERO PUSH2 0x1407 JUMPI PUSH2 0x1406 PUSH2 0x13B3 JUMP JUMPDEST JUMPDEST SWAP3 POP SWAP3 SWAP1 POP JUMP JUMPDEST PUSH1 0x0 DUP2 SWAP1 POP DUP3 PUSH1 0x20 PUSH1 0x2 MUL DUP3 ADD GT ISZERO PUSH2 0x142A JUMPI PUSH2 0x1429 PUSH2 0x13B3 JUMP JUMPDEST JUMPDEST SWAP3 SWAP2 POP POP JUMP JUMPDEST PUSH1 0x0 DUP2 SWAP1 POP DUP3 PUSH1 0x40 PUSH1 0x2 MUL DUP3 ADD GT ISZERO PUSH2 0x144C JUMPI PUSH2 0x144B PUSH2 0x13B3 JUMP JUMPDEST JUMPDEST SWAP3 SWAP2 POP POP JUMP JUMPDEST PUSH2 0x145B DUP2 PUSH2 0x12C7 JUMP JUMPDEST DUP2 EQ PUSH2 0x1466 JUMPI PUSH1 0x0 DUP1 REVERT JUMPDEST POP JUMP JUMPDEST PUSH1 0x0 DUP2 CALLDATALOAD SWAP1 POP PUSH2 0x1478 DUP2 PUSH2 0x1452 JUMP JUMPDEST SWAP3 SWAP2 POP POP JUMP JUMPDEST PUSH1 0x0 DUP1 PUSH1 0x0 DUP1 PUSH1 0x0 DUP1 PUSH2 0x140 DUP8 DUP10 SUB SLT ISZERO PUSH2 0x149C JUMPI PUSH2 0x149B PUSH2 0x139F JUMP JUMPDEST JUMPDEST PUSH1 0x0 DUP8 ADD CALLDATALOAD PUSH8 0xFFFFFFFFFFFFFFFF DUP2 GT ISZERO PUSH2 0x14BA JUMPI PUSH2 0x14B9 PUSH2 0x13A4 JUMP JUMPDEST JUMPDEST PUSH2 0x14C6 DUP10 DUP3 DUP11 ADD PUSH2 0x13B8 JUMP JUMPDEST SWAP7 POP SWAP7 POP POP PUSH1 0x20 PUSH2 0x14D9 DUP10 DUP3 DUP11 ADD PUSH2 0x140E JUMP JUMPDEST SWAP5 POP POP PUSH1 0x60 PUSH2 0x14EA DUP10 DUP3 DUP11 ADD PUSH2 0x1430 JUMP JUMPDEST SWAP4 POP POP PUSH1 0xE0 PUSH2 0x14FB DUP10 DUP3 DUP11 ADD PUSH2 0x140E JUMP JUMPDEST SWAP3 POP POP PUSH2 0x120 PUSH2 0x150D DUP10 DUP3 DUP11 ADD PUSH2 0x1469 JUMP JUMPDEST SWAP2 POP POP SWAP3 SWAP6 POP SWAP3 SWAP6 POP SWAP3 SWAP6 JUMP JUMPDEST PUSH1 0x0 DUP2 ISZERO ISZERO SWAP1 POP SWAP2 SWAP1 POP JUMP JUMPDEST PUSH2 0x152F DUP2 PUSH2 0x151A JUMP JUMPDEST DUP3 MSTORE POP POP JUMP JUMPDEST PUSH1 0x0 PUSH1 0x20 DUP3 ADD SWAP1 POP PUSH2 0x154A PUSH1 0x0 DUP4 ADD DUP5 PUSH2 0x1526 JUMP JUMPDEST SWAP3 SWAP2 POP POP JUMP JUMPDEST PUSH1 0x0 PUSH2 0x155B DUP3 PUSH2 0x12FB JUMP JUMPDEST SWAP1 POP SWAP2 SWAP1 POP JUMP JUMPDEST PUSH2 0x156B DUP2 PUSH2 0x1550 JUMP JUMPDEST DUP2 EQ PUSH2 0x1576 JUMPI PUSH1 0x0 DUP1 REVERT JUMPDEST POP JUMP JUMPDEST PUSH1 0x0 DUP2 CALLDATALOAD SWAP1 POP PUSH2 0x1588 DUP2 PUSH2 0x1562 JUMP JUMPDEST SWAP3 SWAP2 POP POP JUMP JUMPDEST PUSH1 0x0 DUP1 PUSH1 0x40 DUP4 DUP6 SUB SLT ISZERO PUSH2 0x15A5 JUMPI PUSH2 0x15A4 PUSH2 0x139F JUMP JUMPDEST JUMPDEST PUSH1 0x0 PUSH2 0x15B3 DUP6 DUP3 DUP7 ADD PUSH2 0x1579 JUMP JUMPDEST SWAP3 POP POP PUSH1 0x20 PUSH2 0x15C4 DUP6 DUP3 DUP7 ADD PUSH2 0x1579 JUMP JUMPDEST SWAP2 POP POP SWAP3 POP SWAP3 SWAP1 POP JUMP JUMPDEST PUSH1 0x0 DUP2 MLOAD SWAP1 POP SWAP2 SWAP1 POP JUMP JUMPDEST PUSH1 0x0 DUP3 DUP3 MSTORE PUSH1 0x20 DUP3 ADD SWAP1 POP SWAP3 SWAP2 POP POP JUMP JUMPDEST PUSH1 0x0 JUMPDEST DUP4 DUP2 LT ISZERO PUSH2 0x1608 JUMPI DUP1 DUP3 ADD MLOAD DUP2 DUP5 ADD MSTORE PUSH1 0x20 DUP2 ADD SWAP1 POP PUSH2 0x15ED JUMP JUMPDEST PUSH1 0x0 DUP5 DUP5 ADD MSTORE POP POP POP POP JUMP JUMPDEST PUSH1 0x0 PUSH1 0x1F NOT PUSH1 0x1F DUP4 ADD AND SWAP1 POP SWAP2 SWAP1 POP JUMP JUMPDEST PUSH1 0x0 PUSH2 0x1630 DUP3 PUSH2 0x15CE JUMP JUMPDEST PUSH2 0x163A DUP2 DUP6 PUSH2 0x15D9 JUMP JUMPDEST SWAP4 POP PUSH2 0x164A DUP2 DUP6 PUSH1 0x20 DUP7 ADD PUSH2 0x15EA JUMP JUMPDEST PUSH2 0x1653 DUP2 PUSH2 0x1614 JUMP JUMPDEST DUP5 ADD SWAP2 POP POP SWAP3 SWAP2 POP POP JUMP JUMPDEST PUSH1 0x0 PUSH1 0x20 DUP3 ADD SWAP1 POP DUP2 DUP2 SUB PUSH1 0x0 DUP4 ADD MSTORE PUSH2 0x1678 DUP2 DUP5 PUSH2 0x1625 JUMP JUMPDEST SWAP1 POP SWAP3 SWAP2 POP POP JUMP JUMPDEST PUSH2 0x1689 DUP2 PUSH2 0x1550 JUMP JUMPDEST DUP3 MSTORE POP POP JUMP JUMPDEST PUSH1 0x0 PUSH1 0x20 DUP3 ADD SWAP1 POP PUSH2 0x16A4 PUSH1 0x0 DUP4 ADD DUP5 PUSH2 0x1680 JUMP JUMPDEST SWAP3 SWAP2 POP POP JUMP JUMPDEST PUSH1 0x0 PUSH2 0x16B5 DUP3 PUSH2 0x1347 JUMP JUMPDEST SWAP1 POP SWAP2 SWAP1 POP JUMP JUMPDEST PUSH2 0x16C5 DUP2 PUSH2 0x16AA JUMP JUMPDEST DUP3 MSTORE POP POP JUMP JUMPDEST PUSH1 0x0 PUSH1 0x20 DUP3 ADD SWAP1 POP PUSH2 0x16E0 PUSH1 0x0 DUP4 ADD DUP5 PUSH2 0x16BC JUMP JUMPDEST SWAP3 SWAP2 POP POP JUMP JUMPDEST PUSH1 0x0 PUSH1 0x20 DUP3 DUP5 SUB SLT ISZERO PUSH2 0x16FC JUMPI PUSH2 0x16FB PUSH2 0x139F JUMP JUMPDEST JUMPDEST PUSH1 0x0 PUSH2 0x170A DUP5 DUP3 DUP6 ADD PUSH2 0x1469 JUMP JUMPDEST SWAP2 POP POP SWAP3 SWAP2 POP POP JUMP JUMPDEST PUSH1 0x0 PUSH1 0x20 DUP3 DUP5 SUB SLT ISZERO PUSH2 0x1729 JUMPI PUSH2 0x1728 PUSH2 0x139F JUMP JUMPDEST JUMPDEST PUSH1 0x0 PUSH2 0x1737 DUP5 DUP3 DUP6 ADD PUSH2 0x1579 JUMP JUMPDEST SWAP2 POP POP SWAP3 SWAP2 POP POP JUMP JUMPDEST DUP3 DUP2 DUP4 CALLDATACOPY POP POP POP JUMP JUMPDEST PUSH2 0x1755 PUSH1 0x40 DUP4 DUP4 PUSH2 0x1740 JUMP JUMPDEST POP POP JUMP JUMPDEST PUSH1 0x0 PUSH1 0x2 SWAP1 POP SWAP2 SWAP1 POP JUMP JUMPDEST PUSH1 0x0 DUP2 SWAP1 POP SWAP3 SWAP2 POP POP JUMP JUMPDEST PUSH1 0x0 DUP2 SWAP1 POP SWAP2 SWAP1 POP JUMP JUMPDEST PUSH2 0x1785 PUSH1 0x40 DUP4 DUP4 PUSH2 0x1740 JUMP JUMPDEST POP POP JUMP JUMPDEST PUSH1 0x0 PUSH2 0x1795 DUP4 DUP4 PUSH2 0x1779 JUMP JUMPDEST PUSH1 0x40 DUP4 ADD SWAP1 POP SWAP3 SWAP2 POP POP JUMP JUMPDEST PUSH1 0x0 DUP3 SWAP1 POP SWAP3 SWAP2 POP POP JUMP JUMPDEST PUSH1 0x0 PUSH1 0x40 DUP3 ADD SWAP1 POP SWAP2 SWAP1 POP JUMP JUMPDEST PUSH2 0x17C2 DUP2 PUSH2 0x1759 JUMP JUMPDEST PUSH2 0x17CC DUP2 DUP5 PUSH2 0x1764 JUMP JUMPDEST SWAP3 POP PUSH2 0x17D7 DUP3 PUSH2 0x176F JUMP JUMPDEST DUP1 PUSH1 0x0 JUMPDEST DUP4 DUP2 LT ISZERO PUSH2 0x1810 JUMPI PUSH2 0x17ED DUP3 DUP5 PUSH2 0x17A1 JUMP JUMPDEST PUSH2 0x17F7 DUP8 DUP3 PUSH2 0x1789 JUMP JUMPDEST SWAP7 POP PUSH2 0x1802 DUP4 PUSH2 0x17AC JUMP JUMPDEST SWAP3 POP POP PUSH1 0x1 DUP2 ADD SWAP1 POP PUSH2 0x17DB JUMP JUMPDEST POP POP POP POP POP POP JUMP JUMPDEST PUSH1 0x0 DUP3 DUP3 MSTORE PUSH1 0x20 DUP3 ADD SWAP1 POP SWAP3 SWAP2 POP POP JUMP JUMPDEST PUSH1 0x0 DUP1 REVERT JUMPDEST PUSH1 0x0 PUSH2 0x183A DUP4 DUP6 PUSH2 0x1818 JUMP JUMPDEST SWAP4 POP PUSH32 0x7FFFFFFFFFFFFFFFFFFFFFFFFFFFFFFFFFFFFFFFFFFFFFFFFFFFFFFFFFFFFFF DUP4 GT ISZERO PUSH2 0x186D JUMPI PUSH2 0x186C PUSH2 0x1829 JUMP JUMPDEST JUMPDEST PUSH1 0x20 DUP4 MUL SWAP3 POP PUSH2 0x187E DUP4 DUP6 DUP5 PUSH2 0x1740 JUMP JUMPDEST DUP3 DUP5 ADD SWAP1 POP SWAP4 SWAP3 POP POP POP JUMP JUMPDEST PUSH1 0x0 PUSH2 0x120 DUP3 ADD SWAP1 POP PUSH2 0x18A0 PUSH1 0x0 DUP4 ADD DUP9 PUSH2 0x1749 JUMP JUMPDEST PUSH2 0x18AD PUSH1 0x40 DUP4 ADD DUP8 PUSH2 0x17B9 JUMP JUMPDEST PUSH2 0x18BA PUSH1 0xC0 DUP4 ADD DUP7 PUSH2 0x1749 JUMP JUMPDEST DUP2 DUP2 SUB PUSH2 0x100 DUP4 ADD MSTORE PUSH2 0x18CE DUP2 DUP5 DUP7 PUSH2 0x182E JUMP JUMPDEST SWAP1 POP SWAP7 SWAP6 POP POP POP POP POP POP JUMP JUMPDEST PUSH2 0x18E3 DUP2 PUSH2 0x151A JUMP JUMPDEST DUP2 EQ PUSH2 0x18EE JUMPI PUSH1 0x0 DUP1 REVERT JUMPDEST POP JUMP JUMPDEST PUSH1 0x0 DUP2 MLOAD SWAP1 POP PUSH2 0x1900 DUP2 PUSH2 0x18DA JUMP JUMPDEST SWAP3 SWAP2 POP POP JUMP JUMPDEST PUSH1 0x0 PUSH1 0x20 DUP3 DUP5 SUB SLT ISZERO PUSH2 0x191C JUMPI PUSH2 0x191B PUSH2 0x139F JUMP JUMPDEST JUMPDEST PUSH1 0x0 PUSH2 0x192A DUP5 DUP3 DUP6 ADD PUSH2 0x18F1 JUMP JUMPDEST SWAP2 POP POP SWAP3 SWAP2 POP POP JUMP JUMPDEST PUSH32 0x4D54502070726F6F66206973206E6F742076616C696400000000000000000000 PUSH1 0x0 DUP3 ADD MSTORE POP JUMP JUMPDEST PUSH1 0x0 PUSH2 0x1969 PUSH1 0x16 DUP4 PUSH2 0x15D9 JUMP JUMPDEST SWAP2 POP PUSH2 0x1974 DUP3 PUSH2 0x1933 JUMP JUMPDEST PUSH1 0x20 DUP3 ADD SWAP1 POP SWAP2 SWAP1 POP JUMP JUMPDEST PUSH1 0x0 PUSH1 0x20 DUP3 ADD SWAP1 POP DUP2 DUP2 SUB PUSH1 0x0 DUP4 ADD MSTORE PUSH2 0x1998 DUP2 PUSH2 0x195C JUMP JUMPDEST SWAP1 POP SWAP2 SWAP1 POP JUMP JUMPDEST PUSH32 0x4E487B7100000000000000000000000000000000000000000000000000000000 PUSH1 0x0 MSTORE PUSH1 0x32 PUSH1 0x4 MSTORE PUSH1 0x24 PUSH1 0x0 REVERT JUMPDEST PUSH32 0x7175657279206861736820646F6573206E6F74206D6174636820746865207265 PUSH1 0x0 DUP3 ADD MSTORE PUSH32 0x71756573746564206F6E65000000000000000000000000000000000000000000 PUSH1 0x20 DUP3 ADD MSTORE POP JUMP JUMPDEST PUSH1 0x0 PUSH2 0x1A2A PUSH1 0x2B DUP4 PUSH2 0x15D9 JUMP JUMPDEST SWAP2 POP PUSH2 0x1A35 DUP3 PUSH2 0x19CE JUMP JUMPDEST PUSH1 0x40 DUP3 ADD SWAP1 POP SWAP2 SWAP1 POP JUMP JUMPDEST PUSH1 0x0 PUSH1 0x20 DUP3 ADD SWAP1 POP DUP2 DUP2 SUB PUSH1 0x0 DUP4 ADD MSTORE PUSH2 0x1A59 DUP2 PUSH2 0x1A1D JUMP JUMPDEST SWAP1 POP SWAP2 SWAP1 POP JUMP JUMPDEST PUSH1 0x0 DUP1 REVERT JUMPDEST PUSH32 0x4E487B7100000000000000000000000000000000000000000000000000000000 PUSH1 0x0 MSTORE PUSH1 0x41 PUSH1 0x4 MSTORE PUSH1 0x24 PUSH1 0x0 REVERT JUMPDEST PUSH2 0x1A9D DUP3 PUSH2 0x1614 JUMP JUMPDEST DUP2 ADD DUP2 DUP2 LT PUSH8 0xFFFFFFFFFFFFFFFF DUP3 GT OR ISZERO PUSH2 0x1ABC JUMPI PUSH2 0x1ABB PUSH2 0x1A65 JUMP JUMPDEST JUMPDEST DUP1 PUSH1 0x40 MSTORE POP POP POP JUMP JUMPDEST PUSH1 0x0 PUSH2 0x1ACF PUSH2 0x1395 JUMP JUMPDEST SWAP1 POP PUSH2 0x1ADB DUP3 DUP3 PUSH2 0x1A94 JUMP JUMPDEST SWAP2 SWAP1 POP JUMP JUMPDEST PUSH1 0x0 DUP2 MLOAD SWAP1 POP PUSH2 0x1AEF DUP2 PUSH2 0x1452 JUMP JUMPDEST SWAP3 SWAP2 POP POP JUMP JUMPDEST PUSH1 0x0 PUSH1 0xC0 DUP3 DUP5 SUB SLT ISZERO PUSH2 0x1B0B JUMPI PUSH2 0x1B0A PUSH2 0x1A60 JUMP JUMPDEST JUMPDEST PUSH2 0x1B15 PUSH1 0xC0 PUSH2 0x1AC5 JUMP JUMPDEST SWAP1 POP PUSH1 0x0 PUSH2 0x1B25 DUP5 DUP3 DUP6 ADD PUSH2 0x1AE0 JUMP JUMPDEST PUSH1 0x0 DUP4 ADD MSTORE POP PUSH1 0x20 PUSH2 0x1B39 DUP5 DUP3 DUP6 ADD PUSH2 0x1AE0 JUMP JUMPDEST PUSH1 0x20 DUP4 ADD MSTORE POP PUSH1 0x40 PUSH2 0x1B4D DUP5 DUP3 DUP6 ADD PUSH2 0x1AE0 JUMP JUMPDEST PUSH1 0x40 DUP4 ADD MSTORE POP PUSH1 0x60 PUSH2 0x1B61 DUP5 DUP3 DUP6 ADD PUSH2 0x1AE0 JUMP JUMPDEST PUSH1 0x60 DUP4 ADD MSTORE POP PUSH1 0x80 PUSH2 0x1B75 DUP5 DUP3 DUP6 ADD PUSH2 0x1AE0 JUMP JUMPDEST PUSH1 0x80 DUP4 ADD MSTORE POP PUSH1 0xA0 PUSH2 0x1B89 DUP5 DUP3 DUP6 ADD PUSH2 0x1AE0 JUMP JUMPDEST PUSH1 0xA0 DUP4 ADD MSTORE POP SWAP3 SWAP2 POP POP JUMP JUMPDEST PUSH1 0x0 PUSH1 0xC0 DUP3 DUP5 SUB SLT ISZERO PUSH2 0x1BAB JUMPI PUSH2 0x1BAA PUSH2 0x139F JUMP JUMPDEST JUMPDEST PUSH1 0x0 PUSH2 0x1BB9 DUP5 DUP3 DUP6 ADD PUSH2 0x1AF5 JUMP JUMPDEST SWAP2 POP POP SWAP3 SWAP2 POP POP JUMP JUMPDEST PUSH32 0x4769737420726F6F742073746174652069736E277420696E2073746174652063 PUSH1 0x0 DUP3 ADD MSTORE PUSH32 0x6F6E747261637400000000000000000000000000000000000000000000000000 PUSH1 0x20 DUP3 ADD MSTORE POP JUMP JUMPDEST PUSH1 0x0 PUSH2 0x1C1E PUSH1 0x27 DUP4 PUSH2 0x15D9 JUMP JUMPDEST SWAP2 POP PUSH2 0x1C29 DUP3 PUSH2 0x1BC2 JUMP JUMPDEST PUSH1 0x40 DUP3 ADD SWAP1 POP SWAP2 SWAP1 POP JUMP JUMPDEST PUSH1 0x0 PUSH1 0x20 DUP3 ADD SWAP1 POP DUP2 DUP2 SUB PUSH1 0x0 DUP4 ADD MSTORE PUSH2 0x1C4D DUP2 PUSH2 0x1C11 JUMP JUMPDEST SWAP1 POP SWAP2 SWAP1 POP JUMP JUMPDEST PUSH1 0x0 PUSH1 0x40 DUP3 ADD SWAP1 POP PUSH2 0x1C69 PUSH1 0x0 DUP4 ADD DUP6 PUSH2 0x12D1 JUMP JUMPDEST PUSH2 0x1C76 PUSH1 0x20 DUP4 ADD DUP5 PUSH2 0x12D1 JUMP JUMPDEST SWAP4 SWAP3 POP POP POP JUMP JUMPDEST PUSH1 0x0 PUSH1 0xE0 DUP3 DUP5 SUB SLT ISZERO PUSH2 0x1C93 JUMPI PUSH2 0x1C92 PUSH2 0x1A60 JUMP JUMPDEST JUMPDEST PUSH2 0x1C9D PUSH1 0xE0 PUSH2 0x1AC5 JUMP JUMPDEST SWAP1 POP PUSH1 0x0 PUSH2 0x1CAD DUP5 DUP3 DUP6 ADD PUSH2 0x1AE0 JUMP JUMPDEST PUSH1 0x0 DUP4 ADD MSTORE POP PUSH1 0x20 PUSH2 0x1CC1 DUP5 DUP3 DUP6 ADD PUSH2 0x1AE0 JUMP JUMPDEST PUSH1 0x20 DUP4 ADD MSTORE POP PUSH1 0x40 PUSH2 0x1CD5 DUP5 DUP3 DUP6 ADD PUSH2 0x1AE0 JUMP JUMPDEST PUSH1 0x40 DUP4 ADD MSTORE POP PUSH1 0x60 PUSH2 0x1CE9 DUP5 DUP3 DUP6 ADD PUSH2 0x1AE0 JUMP JUMPDEST PUSH1 0x60 DUP4 ADD MSTORE POP PUSH1 0x80 PUSH2 0x1CFD DUP5 DUP3 DUP6 ADD PUSH2 0x1AE0 JUMP JUMPDEST PUSH1 0x80 DUP4 ADD MSTORE POP PUSH1 0xA0 PUSH2 0x1D11 DUP5 DUP3 DUP6 ADD PUSH2 0x1AE0 JUMP JUMPDEST PUSH1 0xA0 DUP4 ADD MSTORE POP PUSH1 0xC0 PUSH2 0x1D25 DUP5 DUP3 DUP6 ADD PUSH2 0x1AE0 JUMP JUMPDEST PUSH1 0xC0 DUP4 ADD MSTORE POP SWAP3 SWAP2 POP POP JUMP JUMPDEST PUSH1 0x0 PUSH1 0xE0 DUP3 DUP5 SUB SLT ISZERO PUSH2 0x1D47 JUMPI PUSH2 0x1D46 PUSH2 0x139F JUMP JUMPDEST JUMPDEST PUSH1 0x0 PUSH2 0x1D55 DUP5 DUP3 DUP6 ADD PUSH2 0x1C7D JUMP JUMPDEST SWAP2 POP POP SWAP3 SWAP2 POP POP JUMP JUMPDEST PUSH32 0x49737375657220737461746520646F65736E277420657869737420696E207374 PUSH1 0x0 DUP3 ADD MSTORE PUSH32 0x61746520636F6E74726163740000000000000000000000000000000000000000 PUSH1 0x20 DUP3 ADD MSTORE POP JUMP JUMPDEST PUSH1 0x0 PUSH2 0x1DBA PUSH1 0x2C DUP4 PUSH2 0x15D9 JUMP JUMPDEST SWAP2 POP PUSH2 0x1DC5 DUP3 PUSH2 0x1D5E JUMP JUMPDEST PUSH1 0x40 DUP3 ADD SWAP1 POP SWAP2 SWAP1 POP JUMP JUMPDEST PUSH1 0x0 PUSH1 0x20 DUP3 ADD SWAP1 POP DUP2 DUP2 SUB PUSH1 0x0 DUP4 ADD MSTORE PUSH2 0x1DE9 DUP2 PUSH2 0x1DAD JUMP JUMPDEST SWAP1 POP SWAP2 SWAP1 POP JUMP JUMPDEST PUSH32 0x4E6F6E2D5265766F636174696F6E2073746174652069736E277420696E207374 PUSH1 0x0 DUP3 ADD MSTORE PUSH32 0x61746520636F6E747261637420616E64206E6F742067656E6573697300000000 PUSH1 0x20 DUP3 ADD MSTORE POP JUMP JUMPDEST PUSH1 0x0 PUSH2 0x1E4C PUSH1 0x3C DUP4 PUSH2 0x15D9 JUMP JUMPDEST SWAP2 POP PUSH2 0x1E57 DUP3 PUSH2 0x1DF0 JUMP JUMPDEST PUSH1 0x40 DUP3 ADD SWAP1 POP SWAP2 SWAP1 POP JUMP JUMPDEST PUSH1 0x0 PUSH1 0x20 DUP3 ADD SWAP1 POP DUP2 DUP2 SUB PUSH1 0x0 DUP4 ADD MSTORE PUSH2 0x1E7B DUP2 PUSH2 0x1E3F JUMP JUMPDEST SWAP1 POP SWAP2 SWAP1 POP JUMP JUMPDEST PUSH32 0x737461746520696E207472616E736974696F6E20696E666F20636F6E7461696E PUSH1 0x0 DUP3 ADD MSTORE PUSH32 0x7320696E76616C69642069640000000000000000000000000000000000000000 PUSH1 0x20 DUP3 ADD MSTORE POP JUMP JUMPDEST PUSH1 0x0 PUSH2 0x1EDE PUSH1 0x2C DUP4 PUSH2 0x15D9 JUMP JUMPDEST SWAP2 POP PUSH2 0x1EE9 DUP3 PUSH2 0x1E82 JUMP JUMPDEST PUSH1 0x40 DUP3 ADD SWAP1 POP SWAP2 SWAP1 POP JUMP JUMPDEST PUSH1 0x0 PUSH1 0x20 DUP3 ADD SWAP1 POP DUP2 DUP2 SUB PUSH1 0x0 DUP4 ADD MSTORE PUSH2 0x1F0D DUP2 PUSH2 0x1ED1 JUMP JUMPDEST SWAP1 POP SWAP2 SWAP1 POP JUMP JUMPDEST PUSH32 0x4E6F6E2D4C617465737420737461746520646F65736E277420636F6E7461696E PUSH1 0x0 DUP3 ADD MSTORE PUSH32 0x207265706C6163656D656E7420696E666F726D6174696F6E0000000000000000 PUSH1 0x20 DUP3 ADD MSTORE POP JUMP JUMPDEST PUSH1 0x0 PUSH2 0x1F70 PUSH1 0x38 DUP4 PUSH2 0x15D9 JUMP JUMPDEST SWAP2 POP PUSH2 0x1F7B DUP3 PUSH2 0x1F14 JUMP JUMPDEST PUSH1 0x40 DUP3 ADD SWAP1 POP SWAP2 SWAP1 POP JUMP JUMPDEST PUSH1 0x0 PUSH1 0x20 DUP3 ADD SWAP1 POP DUP2 DUP2 SUB PUSH1 0x0 DUP4 ADD MSTORE PUSH2 0x1F9F DUP2 PUSH2 0x1F63 JUMP JUMPDEST SWAP1 POP SWAP2 SWAP1 POP JUMP JUMPDEST PUSH32 0x4E487B7100000000000000000000000000000000000000000000000000000000 PUSH1 0x0 MSTORE PUSH1 0x11 PUSH1 0x4 MSTORE PUSH1 0x24 PUSH1 0x0 REVERT JUMPDEST PUSH1 0x0 PUSH2 0x1FE0 DUP3 PUSH2 0x12C7 JUMP JUMPDEST SWAP2 POP PUSH2 0x1FEB DUP4 PUSH2 0x12C7 JUMP JUMPDEST SWAP3 POP DUP3 DUP3 SUB SWAP1 POP DUP2 DUP2 GT ISZERO PUSH2 0x2003 JUMPI PUSH2 0x2002 PUSH2 0x1FA6 JUMP JUMPDEST JUMPDEST SWAP3 SWAP2 POP POP JUMP JUMPDEST PUSH32 0x4E6F6E2D5265766F636174696F6E207374617465206F66204973737565722065 PUSH1 0x0 DUP3 ADD MSTORE PUSH32 0x7870697265640000000000000000000000000000000000000000000000000000 PUSH1 0x20 DUP3 ADD MSTORE POP JUMP JUMPDEST PUSH1 0x0 PUSH2 0x2065 PUSH1 0x26 DUP4 PUSH2 0x15D9 JUMP JUMPDEST SWAP2 POP PUSH2 0x2070 DUP3 PUSH2 0x2009 JUMP JUMPDEST PUSH1 0x40 DUP3 ADD SWAP1 POP SWAP2 SWAP1 POP JUMP JUMPDEST PUSH1 0x0 PUSH1 0x20 DUP3 ADD SWAP1 POP DUP2 DUP2 SUB PUSH1 0x0 DUP4 ADD MSTORE PUSH2 0x2094 DUP2 PUSH2 0x2058 JUMP JUMPDEST SWAP1 POP SWAP2 SWAP1 POP JUMP JUMPDEST PUSH32 0x496E697469616C697A61626C653A20636F6E747261637420697320616C726561 PUSH1 0x0 DUP3 ADD MSTORE PUSH32 0x647920696E697469616C697A6564000000000000000000000000000000000000 PUSH1 0x20 DUP3 ADD MSTORE POP JUMP JUMPDEST PUSH1 0x0 PUSH2 0x20F7 PUSH1 0x2E DUP4 PUSH2 0x15D9 JUMP JUMPDEST SWAP2 POP PUSH2 0x2102 DUP3 PUSH2 0x209B JUMP JUMPDEST PUSH1 0x40 DUP3 ADD SWAP1 POP SWAP2 SWAP1 POP JUMP JUMPDEST PUSH1 0x0 PUSH1 0x20 DUP3 ADD SWAP1 POP DUP2 DUP2 SUB PUSH1 0x0 DUP4 ADD MSTORE PUSH2 0x2126 DUP2 PUSH2 0x20EA JUMP JUMPDEST SWAP1 POP SWAP2 SWAP1 POP JUMP JUMPDEST PUSH1 0x0 DUP2 SWAP1 POP SWAP2 SWAP1 POP JUMP JUMPDEST PUSH1 0x0 PUSH1 0xFF DUP3 AND SWAP1 POP SWAP2 SWAP1 POP JUMP JUMPDEST PUSH1 0x0 PUSH2 0x215F PUSH2 0x215A PUSH2 0x2155 DUP5 PUSH2 0x212D JUMP JUMPDEST PUSH2 0x131B JUMP JUMPDEST PUSH2 0x2137 JUMP JUMPDEST SWAP1 POP SWAP2 SWAP1 POP JUMP JUMPDEST PUSH2 0x216F DUP2 PUSH2 0x2144 JUMP JUMPDEST DUP3 MSTORE POP POP JUMP JUMPDEST PUSH1 0x0 PUSH1 0x20 DUP3 ADD SWAP1 POP PUSH2 0x218A PUSH1 0x0 DUP4 ADD DUP5 PUSH2 0x2166 JUMP JUMPDEST SWAP3 SWAP2 POP POP JUMP JUMPDEST PUSH32 0x4F776E61626C653A206E6577206F776E657220697320746865207A65726F2061 PUSH1 0x0 DUP3 ADD MSTORE PUSH32 0x6464726573730000000000000000000000000000000000000000000000000000 PUSH1 0x20 DUP3 ADD MSTORE POP JUMP JUMPDEST PUSH1 0x0 PUSH2 0x21EC PUSH1 0x26 DUP4 PUSH2 0x15D9 JUMP JUMPDEST SWAP2 POP PUSH2 0x21F7 DUP3 PUSH2 0x2190 JUMP JUMPDEST PUSH1 0x40 DUP3 ADD SWAP1 POP SWAP2 SWAP1 POP JUMP JUMPDEST PUSH1 0x0 PUSH1 0x20 DUP3 ADD SWAP1 POP DUP2 DUP2 SUB PUSH1 0x0 DUP4 ADD MSTORE PUSH2 0x221B DUP2 PUSH2 0x21DF JUMP JUMPDEST SWAP1 POP SWAP2 SWAP1 POP JUMP JUMPDEST PUSH32 0x436865636B73756D207265717569726573203239206C656E6774682061727261 PUSH1 0x0 DUP3 ADD MSTORE PUSH32 0x7900000000000000000000000000000000000000000000000000000000000000 PUSH1 0x20 DUP3 ADD MSTORE POP JUMP JUMPDEST PUSH1 0x0 PUSH2 0x227E PUSH1 0x21 DUP4 PUSH2 0x15D9 JUMP JUMPDEST SWAP2 POP PUSH2 0x2289 DUP3 PUSH2 0x2222 JUMP JUMPDEST PUSH1 0x40 DUP3 ADD SWAP1 POP SWAP2 SWAP1 POP JUMP JUMPDEST PUSH1 0x0 PUSH1 0x20 DUP3 ADD SWAP1 POP DUP2 DUP2 SUB PUSH1 0x0 DUP4 ADD MSTORE PUSH2 0x22AD DUP2 PUSH2 0x2271 JUMP JUMPDEST SWAP1 POP SWAP2 SWAP1 POP JUMP JUMPDEST PUSH1 0x0 PUSH2 0xFFFF DUP3 AND SWAP1 POP SWAP2 SWAP1 POP JUMP JUMPDEST PUSH1 0x0 DUP2 PUSH1 0xF0 SHL SWAP1 POP SWAP2 SWAP1 POP JUMP JUMPDEST PUSH1 0x0 PUSH2 0x22DA DUP3 PUSH2 0x22C2 JUMP JUMPDEST SWAP1 POP SWAP2 SWAP1 POP JUMP JUMPDEST PUSH2 0x22F2 PUSH2 0x22ED DUP3 PUSH2 0x22B4 JUMP JUMPDEST PUSH2 0x22CF JUMP JUMPDEST DUP3 MSTORE POP POP JUMP JUMPDEST PUSH1 0x0 PUSH2 0x2304 DUP3 DUP5 PUSH2 0x22E1 JUMP JUMPDEST PUSH1 0x2 DUP3 ADD SWAP2 POP DUP2 SWAP1 POP SWAP3 SWAP2 POP POP JUMP JUMPDEST PUSH32 0x69644279746573207265717569726573203331206C656E677468206172726179 PUSH1 0x0 DUP3 ADD MSTORE POP JUMP JUMPDEST PUSH1 0x0 PUSH2 0x2349 PUSH1 0x20 DUP4 PUSH2 0x15D9 JUMP JUMPDEST SWAP2 POP PUSH2 0x2354 DUP3 PUSH2 0x2313 JUMP JUMPDEST PUSH1 0x20 DUP3 ADD SWAP1 POP SWAP2 SWAP1 POP JUMP JUMPDEST PUSH1 0x0 PUSH1 0x20 DUP3 ADD SWAP1 POP DUP2 DUP2 SUB PUSH1 0x0 DUP4 ADD MSTORE PUSH2 0x2378 DUP2 PUSH2 0x233C JUMP JUMPDEST SWAP1 POP SWAP2 SWAP1 POP JUMP JUMPDEST PUSH32 0x496E697469616C697A61626C653A20636F6E7472616374206973206E6F742069 PUSH1 0x0 DUP3 ADD MSTORE PUSH32 0x6E697469616C697A696E67000000000000000000000000000000000000000000 PUSH1 0x20 DUP3 ADD MSTORE POP JUMP JUMPDEST PUSH1 0x0 PUSH2 0x23DB PUSH1 0x2B DUP4 PUSH2 0x15D9 JUMP JUMPDEST SWAP2 POP PUSH2 0x23E6 DUP3 PUSH2 0x237F JUMP JUMPDEST PUSH1 0x40 DUP3 ADD SWAP1 POP SWAP2 SWAP1 POP JUMP JUMPDEST PUSH1 0x0 PUSH1 0x20 DUP3 ADD SWAP1 POP DUP2 DUP2 SUB PUSH1 0x0 DUP4 ADD MSTORE PUSH2 0x240A DUP2 PUSH2 0x23CE JUMP JUMPDEST SWAP1 POP SWAP2 SWAP1 POP JUMP JUMPDEST PUSH32 0x4F776E61626C653A2063616C6C6572206973206E6F7420746865206F776E6572 PUSH1 0x0 DUP3 ADD MSTORE POP JUMP JUMPDEST PUSH1 0x0 PUSH2 0x2447 PUSH1 0x20 DUP4 PUSH2 0x15D9 JUMP JUMPDEST SWAP2 POP PUSH2 0x2452 DUP3 PUSH2 0x2411 JUMP JUMPDEST PUSH1 0x20 DUP3 ADD SWAP1 POP SWAP2 SWAP1 POP JUMP JUMPDEST PUSH1 0x0 PUSH1 0x20 DUP3 ADD SWAP1 POP DUP2 DUP2 SUB PUSH1 0x0 DUP4 ADD MSTORE PUSH2 0x2476 DUP2 PUSH2 0x243A JUMP JUMPDEST SWAP1 POP SWAP2 SWAP1 POP JUMP JUMPDEST PUSH1 0x0 PUSH2 0x2488 DUP3 PUSH2 0x12C7 JUMP JUMPDEST SWAP2 POP PUSH2 0x2493 DUP4 PUSH2 0x12C7 JUMP JUMPDEST SWAP3 POP DUP3 DUP3 ADD SWAP1 POP DUP1 DUP3 GT ISZERO PUSH2 0x24AB JUMPI PUSH2 0x24AA PUSH2 0x1FA6 JUMP JUMPDEST JUMPDEST SWAP3 SWAP2 POP POP JUMP JUMPDEST PUSH32 0x736C6963655F6F766572666C6F77000000000000000000000000000000000000 PUSH1 0x0 DUP3 ADD MSTORE POP JUMP JUMPDEST PUSH1 0x0 PUSH2 0x24E7 PUSH1 0xE DUP4 PUSH2 0x15D9 JUMP JUMPDEST SWAP2 POP PUSH2 0x24F2 DUP3 PUSH2 0x24B1 JUMP JUMPDEST PUSH1 0x20 DUP3 ADD SWAP1 POP SWAP2 SWAP1 POP JUMP JUMPDEST PUSH1 0x0 PUSH1 0x20 DUP3 ADD SWAP1 POP DUP2 DUP2 SUB PUSH1 0x0 DUP4 ADD MSTORE PUSH2 0x2516 DUP2 PUSH2 0x24DA JUMP JUMPDEST SWAP1 POP SWAP2 SWAP1 POP JUMP JUMPDEST PUSH32 0x736C6963655F6F75744F66426F756E6473000000000000000000000000000000 PUSH1 0x0 DUP3 ADD MSTORE POP JUMP JUMPDEST PUSH1 0x0 PUSH2 0x2553 PUSH1 0x11 DUP4 PUSH2 0x15D9 JUMP JUMPDEST SWAP2 POP PUSH2 0x255E DUP3 PUSH2 0x251D JUMP JUMPDEST PUSH1 0x20 DUP3 ADD SWAP1 POP SWAP2 SWAP1 POP JUMP JUMPDEST PUSH1 0x0 PUSH1 0x20 DUP3 ADD SWAP1 POP DUP2 DUP2 SUB PUSH1 0x0 DUP4 ADD MSTORE PUSH2 0x2582 DUP2 PUSH2 0x2546 JUMP JUMPDEST SWAP1 POP SWAP2 SWAP1 POP JUMP JUMPDEST PUSH1 0x0 PUSH2 0x2594 DUP3 PUSH2 0x22B4 JUMP JUMPDEST SWAP2 POP PUSH2 0x259F DUP4 PUSH2 0x22B4 JUMP JUMPDEST SWAP3 POP DUP3 DUP3 ADD SWAP1 POP PUSH2 0xFFFF DUP2 GT ISZERO PUSH2 0x25B9 JUMPI PUSH2 0x25B8 PUSH2 0x1FA6 JUMP JUMPDEST JUMPDEST SWAP3 SWAP2 POP POP JUMP JUMPDEST PUSH1 0x0 PUSH2 0x25CA DUP3 PUSH2 0x12C7 JUMP JUMPDEST SWAP2 POP PUSH32 0xFFFFFFFFFFFFFFFFFFFFFFFFFFFFFFFFFFFFFFFFFFFFFFFFFFFFFFFFFFFFFFFF DUP3 SUB PUSH2 0x25FC JUMPI PUSH2 0x25FB PUSH2 0x1FA6 JUMP JUMPDEST JUMPDEST PUSH1 0x1 DUP3 ADD SWAP1 POP SWAP2 SWAP1 POP JUMP INVALID PUSH4 0x72656465 PUSH15 0x7469616C41746F6D69635175657279 0x4D SLOAD POP JUMP ORIGIN 0x4F PUSH15 0x436861696EA2646970667358221220 MSTORE8 DUP16 0x28 XOR 0xED SWAP11 KECCAK256 0xAD 0x2E DUP11 PUSH24 0xDAB4C2DBABFB07EDCD61A6A470DE131E0BDDFC2BC264736F PUSH13 0x63430008110033000000000000 "},"methodIdentifiers":{"getChallengeInputIndex()":"9f442afa","getCircuitId()":"59a2aeaa","initialize(address,address)":"485cc955","owner()":"8da5cb5b","renounceOwnership()":"715018a6","revocationStateExpirationTime()":"23962482","setRevocationStateExpirationTime(uint256)":"e79ce794","state()":"c19d93fb","transferOwnership(address)":"f2fde38b","verifier()":"2b7ac3f3","verify(uint256[],uint256[2],uint256[2][2],uint256[2],uint256)":"434661ef"}},"storageLayout":{"storage":[{"astId":138,"contract":"contracts/validators/CredentialAtomicQueryMTPValidator.sol:CredentialAtomicQueryMTPValidator","label":"_initialized","offset":0,"slot":"0","type":"t_uint8"},{"astId":141,"contract":"contracts/validators/CredentialAtomicQueryMTPValidator.sol:CredentialAtomicQueryMTPValidator","label":"_initializing","offset":1,"slot":"0","type":"t_bool"},{"astId":625,"contract":"contracts/validators/CredentialAtomicQueryMTPValidator.sol:CredentialAtomicQueryMTPValidator","label":"__gap","offset":0,"slot":"1","type":"t_array(t_uint256)50_storage"},{"astId":10,"contract":"contracts/validators/CredentialAtomicQueryMTPValidator.sol:CredentialAtomicQueryMTPValidator","label":"_owner","offset":0,"slot":"51","type":"t_address"},{"astId":130,"contract":"contracts/validators/CredentialAtomicQueryMTPValidator.sol:CredentialAtomicQueryMTPValidator","label":"__gap","offset":0,"slot":"52","type":"t_array(t_uint256)49_storage"},{"astId":2618,"contract":"contracts/validators/CredentialAtomicQueryMTPValidator.sol:CredentialAtomicQueryMTPValidator","label":"verifier","offset":0,"slot":"101","type":"t_contract(IVerifier)1779"},{"astId":2621,"contract":"contracts/validators/CredentialAtomicQueryMTPValidator.sol:CredentialAtomicQueryMTPValidator","label":"state","offset":0,"slot":"102","type":"t_contract(IState)1754"},{"astId":2623,"contract":"contracts/validators/CredentialAtomicQueryMTPValidator.sol:CredentialAtomicQueryMTPValidator","label":"revocationStateExpirationTime","offset":0,"slot":"103","type":"t_uint256"}],"types":{"t_address":{"encoding":"inplace","label":"address","numberOfBytes":"20"},"t_array(t_uint256)49_storage":{"base":"t_uint256","encoding":"inplace","label":"uint256[49]","numberOfBytes":"1568"},"t_array(t_uint256)50_storage":{"base":"t_uint256","encoding":"inplace","label":"uint256[50]","numberOfBytes":"1600"},"t_bool":{"encoding":"inplace","label":"bool","numberOfBytes":"1"},"t_contract(IState)1754":{"encoding":"inplace","label":"contract IState","numberOfBytes":"20"},"t_contract(IVerifier)1779":{"encoding":"inplace","label":"contract IVerifier","numberOfBytes":"20"},"t_uint256":{"encoding":"inplace","label":"uint256","numberOfBytes":"32"},"t_uint8":{"encoding":"inplace","label":"uint8","numberOfBytes":"1"}}}}}}