{
  "_format": "hh-sol-artifact-1",
  "contractName": "CredentialAtomicQueryMTPValidator",
  "sourceName": "contracts/validators/CredentialAtomicQueryMTPValidator.sol",
  "abi": [
    {
      "anonymous": false,
      "inputs": [
        {
          "indexed": false,
          "internalType": "uint8",
          "name": "version",
          "type": "uint8"
        }
      ],
      "name": "Initialized",
      "type": "event"
    },
    {
      "anonymous": false,
      "inputs": [
        {
          "indexed": true,
          "internalType": "address",
          "name": "previousOwner",
          "type": "address"
        },
        {
          "indexed": true,
          "internalType": "address",
          "name": "newOwner",
          "type": "address"
        }
      ],
      "name": "OwnershipTransferred",
      "type": "event"
    },
    {
      "inputs": [],
      "name": "getChallengeInputIndex",
      "outputs": [
        {
          "internalType": "uint256",
          "name": "index",
          "type": "uint256"
        }
      ],
      "stateMutability": "pure",
      "type": "function"
    },
    {
      "inputs": [],
      "name": "getCircuitId",
      "outputs": [
        {
          "internalType": "string",
          "name": "id",
          "type": "string"
        }
      ],
      "stateMutability": "pure",
      "type": "function"
    },
    {
      "inputs": [
        {
          "internalType": "address",
          "name": "_verifierContractAddr",
          "type": "address"
        },
        {
          "internalType": "address",
          "name": "_stateContractAddr",
          "type": "address"
        }
      ],
      "name": "initialize",
      "outputs": [],
      "stateMutability": "nonpayable",
      "type": "function"
    },
    {
      "inputs": [],
      "name": "owner",
      "outputs": [
        {
          "internalType": "address",
          "name": "",
          "type": "address"
        }
      ],
      "stateMutability": "view",
      "type": "function"
    },
    {
      "inputs": [],
      "name": "renounceOwnership",
      "outputs": [],
      "stateMutability": "nonpayable",
      "type": "function"
    },
    {
      "inputs": [],
      "name": "revocationStateExpirationTime",
      "outputs": [
        {
          "internalType": "uint256",
          "name": "",
          "type": "uint256"
        }
      ],
      "stateMutability": "view",
      "type": "function"
    },
    {
      "inputs": [
        {
          "internalType": "uint256",
          "name": "expirationTime",
          "type": "uint256"
        }
      ],
      "name": "setRevocationStateExpirationTime",
      "outputs": [],
      "stateMutability": "nonpayable",
      "type": "function"
    },
    {
      "inputs": [],
      "name": "state",
      "outputs": [
        {
          "internalType": "contract IState",
          "name": "",
          "type": "address"
        }
      ],
      "stateMutability": "view",
      "type": "function"
    },
    {
      "inputs": [
        {
          "internalType": "address",
          "name": "newOwner",
          "type": "address"
        }
      ],
      "name": "transferOwnership",
      "outputs": [],
      "stateMutability": "nonpayable",
      "type": "function"
    },
    {
      "inputs": [],
      "name": "verifier",
      "outputs": [
        {
          "internalType": "contract IVerifier",
          "name": "",
          "type": "address"
        }
      ],
      "stateMutability": "view",
      "type": "function"
    },
    {
      "inputs": [
        {
          "internalType": "uint256[]",
          "name": "inputs",
          "type": "uint256[]"
        },
        {
          "internalType": "uint256[2]",
          "name": "a",
          "type": "uint256[2]"
        },
        {
          "internalType": "uint256[2][2]",
          "name": "b",
          "type": "uint256[2][2]"
        },
        {
          "internalType": "uint256[2]",
          "name": "c",
          "type": "uint256[2]"
        },
        {
          "internalType": "uint256",
          "name": "queryHash",
          "type": "uint256"
        }
      ],
      "name": "verify",
      "outputs": [
        {
          "internalType": "bool",
          "name": "r",
          "type": "bool"
        }
      ],
      "stateMutability": "view",
      "type": "function"
    }
  ],
  "bytecode": "0x608060405234801561001057600080fd5b5061265e806100206000396000f3fe608060405234801561001057600080fd5b50600436106100a95760003560e01c8063715018a611610071578063715018a6146101545780638da5cb5b1461015e5780639f442afa1461017c578063c19d93fb1461019a578063e79ce794146101b8578063f2fde38b146101d4576100a9565b806323962482146100ae5780632b7ac3f3146100cc578063434661ef146100ea578063485cc9551461011a57806359a2aeaa14610136575b600080fd5b6100b66101f0565b6040516100c391906112e0565b60405180910390f35b6100d46101f6565b6040516100e1919061137a565b60405180910390f35b61010460048036038101906100ff919061147e565b61021c565b6040516101119190611535565b60405180910390f35b610134600480360381019061012f919061158e565b61086d565b005b61013e610a38565b60405161014b919061165e565b60405180910390f35b61015c610a58565b005b610166610a6c565b604051610173919061168f565b60405180910390f35b610184610a96565b60405161019191906112e0565b60405180910390f35b6101a2610a9f565b6040516101af91906116cb565b60405180910390f35b6101d260048036038101906101cd91906116e6565b610ac5565b005b6101ee60048036038101906101e99190611713565b610ad7565b005b60675481565b606560009054906101000a900473ffffffffffffffffffffffffffffffffffffffff1681565b6000606560009054906101000a900473ffffffffffffffffffffffffffffffffffffffff1673ffffffffffffffffffffffffffffffffffffffff1663c32e370e8686868b8b6040518663ffffffff1660e01b815260040161028195949392919061188a565b602060405180830381865afa15801561029e573d6000803e3d6000fd5b505050506040513d601f19601f820116820180604052508101906102c29190611906565b610301576040517f08c379a00000000000000000000000000000000000000000000000000000000081526004016102f89061197f565b60405180910390fd5b81878760028181106103165761031561199f565b5b905060200201351461035d576040517f08c379a000000000000000000000000000000000000000000000000000000000815260040161035490611a40565b60405180910390fd5b6000878760058181106103735761037261199f565b5b9050602002013590506000888860068181106103925761039161199f565b5b9050602002013590506000898960078181106103b1576103b061199f565b5b90506020020135905060008a8a60098181106103d0576103cf61199f565b5b9050602002013590506000606660009054906101000a900473ffffffffffffffffffffffffffffffffffffffff1673ffffffffffffffffffffffffffffffffffffffff16637c1a66de866040518263ffffffff1660e01b815260040161043691906112e0565b60c060405180830381865afa158015610453573d6000803e3d6000fd5b505050506040513d601f19601f820116820180604052508101906104779190611b95565b9050848160000151146104bf576040517f08c379a00000000000000000000000000000000000000000000000000000000081526004016104b690611c34565b60405180910390fd5b60006104cb8585610b5a565b9050806105bc576000606660009054906101000a900473ffffffffffffffffffffffffffffffffffffffff1673ffffffffffffffffffffffffffffffffffffffff166353c8731287876040518363ffffffff1660e01b8152600401610531929190611c54565b60e060405180830381865afa15801561054e573d6000803e3d6000fd5b505050506040513d601f19601f820116820180604052508101906105729190611d31565b9050806000015186146105ba576040517f08c379a00000000000000000000000000000000000000000000000000000000081526004016105b190611dd0565b60405180910390fd5b505b6000606660009054906101000a900473ffffffffffffffffffffffffffffffffffffffff1673ffffffffffffffffffffffffffffffffffffffff1663b4bdea55876040518263ffffffff1660e01b815260040161061991906112e0565b60e060405180830381865afa158015610636573d6000803e3d6000fd5b505050506040513d601f19601f8201168201806040525081019061065a9190611d31565b905060008160200151036106b6576106728685610b5a565b6106b1576040517f08c379a00000000000000000000000000000000000000000000000000000000081526004016106a890611e62565b60405180910390fd5b610858565b83816020015114610857576000606660009054906101000a900473ffffffffffffffffffffffffffffffffffffffff1673ffffffffffffffffffffffffffffffffffffffff166353c8731288876040518363ffffffff1660e01b8152600401610720929190611c54565b60e060405180830381865afa15801561073d573d6000803e3d6000fd5b505050506040513d601f19601f820116820180604052508101906107619190611d31565b905060008160000151148061077a575086816000015114155b156107ba576040517f08c379a00000000000000000000000000000000000000000000000000000000081526004016107b190611ef4565b60405180910390fd5b6000816080015103610801576040517f08c379a00000000000000000000000000000000000000000000000000000000081526004016107f890611f86565b60405180910390fd5b6067548160800151426108149190611fd5565b1115610855576040517f08c379a000000000000000000000000000000000000000000000000000000000815260040161084c9061207b565b60405180910390fd5b505b5b60019750505050505050509695505050505050565b60008060019054906101000a900460ff1615905080801561089e5750600160008054906101000a900460ff1660ff16105b806108cb57506108ad30610ca5565b1580156108ca5750600160008054906101000a900460ff1660ff16145b5b61090a576040517f08c379a00000000000000000000000000000000000000000000000000000000081526004016109019061210d565b60405180910390fd5b60016000806101000a81548160ff021916908360ff1602179055508015610947576001600060016101000a81548160ff0219169083151502179055505b610e1060678190555082606560006101000a81548173ffffffffffffffffffffffffffffffffffffffff021916908373ffffffffffffffffffffffffffffffffffffffff16021790555081606660006101000a81548173ffffffffffffffffffffffffffffffffffffffff021916908373ffffffffffffffffffffffffffffffffffffffff1602179055506109da610cc8565b8015610a335760008060016101000a81548160ff0219169083151502179055507f7f26b83ff96e1f2b6a682f133852f6798a09c465da95921460cefb38474024986001604051610a2a9190612175565b60405180910390a15b505050565b606060405180606001604052806021815260200161260860219139905090565b610a60610d21565b610a6a6000610d9f565b565b6000603360009054906101000a900473ffffffffffffffffffffffffffffffffffffffff16905090565b60006004905090565b606660009054906101000a900473ffffffffffffffffffffffffffffffffffffffff1681565b610acd610d21565b8060678190555050565b610adf610d21565b600073ffffffffffffffffffffffffffffffffffffffff168173ffffffffffffffffffffffffffffffffffffffff1603610b4e576040517f08c379a0000000000000000000000000000000000000000000000000000000008152600401610b4590612202565b60405180910390fd5b610b5781610d9f565b50565b600080610b6683610e65565b90506000610b7382610fb1565b90506000610b9082601b8451610b899190611fd5565b601b61100e565b90506000604051806040016040528060028152602001600081525090506000610bb9828461112c565b9050601d815114610bff576040517f08c379a0000000000000000000000000000000000000000000000000000000008152600401610bf690612294565b60405180910390fd5b6000610c0a826111b6565b9050600081604051602001610c1f91906122f8565b60405160208183030381529060405290506000610c3c848361112c565b9050601f815114610c82576040517f08c379a0000000000000000000000000000000000000000000000000000000008152600401610c799061235f565b60405180910390fd5b610c93610c8e82611250565b610e65565b8b149850505050505050505092915050565b6000808273ffffffffffffffffffffffffffffffffffffffff163b119050919050565b600060019054906101000a900460ff16610d17576040517f08c379a0000000000000000000000000000000000000000000000000000000008152600401610d0e906123f1565b60405180910390fd5b610d1f61125e565b565b610d296112bf565b73ffffffffffffffffffffffffffffffffffffffff16610d47610a6c565b73ffffffffffffffffffffffffffffffffffffffff1614610d9d576040517f08c379a0000000000000000000000000000000000000000000000000000000008152600401610d949061245d565b60405180910390fd5b565b6000603360009054906101000a900473ffffffffffffffffffffffffffffffffffffffff16905081603360006101000a81548173ffffffffffffffffffffffffffffffffffffffff021916908373ffffffffffffffffffffffffffffffffffffffff1602179055508173ffffffffffffffffffffffffffffffffffffffff168173ffffffffffffffffffffffffffffffffffffffff167f8be0079c531659141344cd1fd0a4f28419497f9722a3daafe3b4186f6b6457e060405160405180910390a35050565b600081905060087eff00ff00ff00ff00ff00ff00ff00ff00ff00ff00ff00ff00ff00ff00ff00ff8216901b60087fff00ff00ff00ff00ff00ff00ff00ff00ff00ff00ff00ff00ff00ff00ff00ff008316901c17905060107dffff0000ffff0000ffff0000ffff0000ffff0000ffff0000ffff0000ffff8216901b60107fffff0000ffff0000ffff0000ffff0000ffff0000ffff0000ffff0000ffff00008316901c17905060207bffffffff00000000ffffffff00000000ffffffff00000000ffffffff8216901b60207fffffffff00000000ffffffff00000000ffffffff00000000ffffffff000000008316901c179050604077ffffffffffffffff0000000000000000ffffffffffffffff8216901b60407fffffffffffffffff0000000000000000ffffffffffffffff00000000000000008316901c179050608081901b608082901c179050919050565b6060602067ffffffffffffffff811115610fce57610fcd611a65565b5b6040519080825280601f01601f1916602001820160405280156110005781602001600182028036833780820191505090505b509050816020820152919050565b606081601f8361101e919061247d565b101561105f576040517f08c379a0000000000000000000000000000000000000000000000000000000008152600401611056906124fd565b60405180910390fd5b818361106b919061247d565b845110156110ae576040517f08c379a00000000000000000000000000000000000000000000000000000000081526004016110a590612569565b60405180910390fd5b60608215600081146110cf5760405191506000825260208201604052611120565b6040519150601f8416801560200281840101858101878315602002848b0101015b8183101561110d57805183526020830192506020810190506110f0565b50868552601f19601f8301166040525050505b50809150509392505050565b6060806040519050835180825260208201818101602087015b818310156111625780518352602083019250602081019050611145565b50855192508351830184528091508282019050602086015b81831015611197578051835260208301925060208101905061117a565b50601f19601f8851850115830101166040525050508091505092915050565b6000601d8251146111fc576040517f08c379a00000000000000000000000000000000000000000000000000000000081526004016111f390612294565b60405180910390fd5b60005b825181101561124a5782818151811061121b5761121a61199f565b5b602001015160f81c60f81b60f81c60ff16826112379190612589565b915080611243906125bf565b90506111ff565b50919050565b600060208201519050919050565b600060019054906101000a900460ff166112ad576040517f08c379a00000000000000000000000000000000000000000000000000000000081526004016112a4906123f1565b60405180910390fd5b6112bd6112b86112bf565b610d9f565b565b600033905090565b6000819050919050565b6112da816112c7565b82525050565b60006020820190506112f560008301846112d1565b92915050565b600073ffffffffffffffffffffffffffffffffffffffff82169050919050565b6000819050919050565b600061134061133b611336846112fb565b61131b565b6112fb565b9050919050565b600061135282611325565b9050919050565b600061136482611347565b9050919050565b61137481611359565b82525050565b600060208201905061138f600083018461136b565b92915050565b6000604051905090565b600080fd5b600080fd5b600080fd5b600080fd5b600080fd5b60008083601f8401126113ce576113cd6113a9565b5b8235905067ffffffffffffffff8111156113eb576113ea6113ae565b5b602083019150836020820283011115611407576114066113b3565b5b9250929050565b60008190508260206002028201111561142a576114296113b3565b5b92915050565b60008190508260406002028201111561144c5761144b6113b3565b5b92915050565b61145b816112c7565b811461146657600080fd5b50565b60008135905061147881611452565b92915050565b600080600080600080610140878903121561149c5761149b61139f565b5b600087013567ffffffffffffffff8111156114ba576114b96113a4565b5b6114c689828a016113b8565b965096505060206114d989828a0161140e565b94505060606114ea89828a01611430565b93505060e06114fb89828a0161140e565b92505061012061150d89828a01611469565b9150509295509295509295565b60008115159050919050565b61152f8161151a565b82525050565b600060208201905061154a6000830184611526565b92915050565b600061155b826112fb565b9050919050565b61156b81611550565b811461157657600080fd5b50565b60008135905061158881611562565b92915050565b600080604083850312156115a5576115a461139f565b5b60006115b385828601611579565b92505060206115c485828601611579565b9150509250929050565b600081519050919050565b600082825260208201905092915050565b60005b838110156116085780820151818401526020810190506115ed565b60008484015250505050565b6000601f19601f8301169050919050565b6000611630826115ce565b61163a81856115d9565b935061164a8185602086016115ea565b61165381611614565b840191505092915050565b600060208201905081810360008301526116788184611625565b905092915050565b61168981611550565b82525050565b60006020820190506116a46000830184611680565b92915050565b60006116b582611347565b9050919050565b6116c5816116aa565b82525050565b60006020820190506116e060008301846116bc565b92915050565b6000602082840312156116fc576116fb61139f565b5b600061170a84828501611469565b91505092915050565b6000602082840312156117295761172861139f565b5b600061173784828501611579565b91505092915050565b82818337505050565b61175560408383611740565b5050565b600060029050919050565b600081905092915050565b6000819050919050565b61178560408383611740565b5050565b60006117958383611779565b60408301905092915050565b600082905092915050565b6000604082019050919050565b6117c281611759565b6117cc8184611764565b92506117d78261176f565b8060005b83811015611810576117ed82846117a1565b6117f78782611789565b9650611802836117ac565b9250506001810190506117db565b505050505050565b600082825260208201905092915050565b600080fd5b600061183a8385611818565b93507f07ffffffffffffffffffffffffffffffffffffffffffffffffffffffffffffff83111561186d5761186c611829565b5b60208302925061187e838584611740565b82840190509392505050565b6000610120820190506118a06000830188611749565b6118ad60408301876117b9565b6118ba60c0830186611749565b8181036101008301526118ce81848661182e565b90509695505050505050565b6118e38161151a565b81146118ee57600080fd5b50565b600081519050611900816118da565b92915050565b60006020828403121561191c5761191b61139f565b5b600061192a848285016118f1565b91505092915050565b7f4d54502070726f6f66206973206e6f742076616c696400000000000000000000600082015250565b60006119696016836115d9565b915061197482611933565b602082019050919050565b600060208201905081810360008301526119988161195c565b9050919050565b7f4e487b7100000000000000000000000000000000000000000000000000000000600052603260045260246000fd5b7f7175657279206861736820646f6573206e6f74206d617463682074686520726560008201527f71756573746564206f6e65000000000000000000000000000000000000000000602082015250565b6000611a2a602b836115d9565b9150611a35826119ce565b604082019050919050565b60006020820190508181036000830152611a5981611a1d565b9050919050565b600080fd5b7f4e487b7100000000000000000000000000000000000000000000000000000000600052604160045260246000fd5b611a9d82611614565b810181811067ffffffffffffffff82111715611abc57611abb611a65565b5b80604052505050565b6000611acf611395565b9050611adb8282611a94565b919050565b600081519050611aef81611452565b92915050565b600060c08284031215611b0b57611b0a611a60565b5b611b1560c0611ac5565b90506000611b2584828501611ae0565b6000830152506020611b3984828501611ae0565b6020830152506040611b4d84828501611ae0565b6040830152506060611b6184828501611ae0565b6060830152506080611b7584828501611ae0565b60808301525060a0611b8984828501611ae0565b60a08301525092915050565b600060c08284031215611bab57611baa61139f565b5b6000611bb984828501611af5565b91505092915050565b7f4769737420726f6f742073746174652069736e277420696e207374617465206360008201527f6f6e747261637400000000000000000000000000000000000000000000000000602082015250565b6000611c1e6027836115d9565b9150611c2982611bc2565b604082019050919050565b60006020820190508181036000830152611c4d81611c11565b9050919050565b6000604082019050611c6960008301856112d1565b611c7660208301846112d1565b9392505050565b600060e08284031215611c9357611c92611a60565b5b611c9d60e0611ac5565b90506000611cad84828501611ae0565b6000830152506020611cc184828501611ae0565b6020830152506040611cd584828501611ae0565b6040830152506060611ce984828501611ae0565b6060830152506080611cfd84828501611ae0565b60808301525060a0611d1184828501611ae0565b60a08301525060c0611d2584828501611ae0565b60c08301525092915050565b600060e08284031215611d4757611d4661139f565b5b6000611d5584828501611c7d565b91505092915050565b7f49737375657220737461746520646f65736e277420657869737420696e20737460008201527f61746520636f6e74726163740000000000000000000000000000000000000000602082015250565b6000611dba602c836115d9565b9150611dc582611d5e565b604082019050919050565b60006020820190508181036000830152611de981611dad565b9050919050565b7f4e6f6e2d5265766f636174696f6e2073746174652069736e277420696e20737460008201527f61746520636f6e747261637420616e64206e6f742067656e6573697300000000602082015250565b6000611e4c603c836115d9565b9150611e5782611df0565b604082019050919050565b60006020820190508181036000830152611e7b81611e3f565b9050919050565b7f737461746520696e207472616e736974696f6e20696e666f20636f6e7461696e60008201527f7320696e76616c69642069640000000000000000000000000000000000000000602082015250565b6000611ede602c836115d9565b9150611ee982611e82565b604082019050919050565b60006020820190508181036000830152611f0d81611ed1565b9050919050565b7f4e6f6e2d4c617465737420737461746520646f65736e277420636f6e7461696e60008201527f207265706c6163656d656e7420696e666f726d6174696f6e0000000000000000602082015250565b6000611f706038836115d9565b9150611f7b82611f14565b604082019050919050565b60006020820190508181036000830152611f9f81611f63565b9050919050565b7f4e487b7100000000000000000000000000000000000000000000000000000000600052601160045260246000fd5b6000611fe0826112c7565b9150611feb836112c7565b925082820390508181111561200357612002611fa6565b5b92915050565b7f4e6f6e2d5265766f636174696f6e207374617465206f6620497373756572206560008201527f7870697265640000000000000000000000000000000000000000000000000000602082015250565b60006120656026836115d9565b915061207082612009565b604082019050919050565b6000602082019050818103600083015261209481612058565b9050919050565b7f496e697469616c697a61626c653a20636f6e747261637420697320616c72656160008201527f647920696e697469616c697a6564000000000000000000000000000000000000602082015250565b60006120f7602e836115d9565b91506121028261209b565b604082019050919050565b60006020820190508181036000830152612126816120ea565b9050919050565b6000819050919050565b600060ff82169050919050565b600061215f61215a6121558461212d565b61131b565b612137565b9050919050565b61216f81612144565b82525050565b600060208201905061218a6000830184612166565b92915050565b7f4f776e61626c653a206e6577206f776e657220697320746865207a65726f206160008201527f6464726573730000000000000000000000000000000000000000000000000000602082015250565b60006121ec6026836115d9565b91506121f782612190565b604082019050919050565b6000602082019050818103600083015261221b816121df565b9050919050565b7f436865636b73756d207265717569726573203239206c656e677468206172726160008201527f7900000000000000000000000000000000000000000000000000000000000000602082015250565b600061227e6021836115d9565b915061228982612222565b604082019050919050565b600060208201905081810360008301526122ad81612271565b9050919050565b600061ffff82169050919050565b60008160f01b9050919050565b60006122da826122c2565b9050919050565b6122f26122ed826122b4565b6122cf565b82525050565b600061230482846122e1565b60028201915081905092915050565b7f69644279746573207265717569726573203331206c656e677468206172726179600082015250565b60006123496020836115d9565b915061235482612313565b602082019050919050565b600060208201905081810360008301526123788161233c565b9050919050565b7f496e697469616c697a61626c653a20636f6e7472616374206973206e6f74206960008201527f6e697469616c697a696e67000000000000000000000000000000000000000000602082015250565b60006123db602b836115d9565b91506123e68261237f565b604082019050919050565b6000602082019050818103600083015261240a816123ce565b9050919050565b7f4f776e61626c653a2063616c6c6572206973206e6f7420746865206f776e6572600082015250565b60006124476020836115d9565b915061245282612411565b602082019050919050565b600060208201905081810360008301526124768161243a565b9050919050565b6000612488826112c7565b9150612493836112c7565b92508282019050808211156124ab576124aa611fa6565b5b92915050565b7f736c6963655f6f766572666c6f77000000000000000000000000000000000000600082015250565b60006124e7600e836115d9565b91506124f2826124b1565b602082019050919050565b60006020820190508181036000830152612516816124da565b9050919050565b7f736c6963655f6f75744f66426f756e6473000000000000000000000000000000600082015250565b60006125536011836115d9565b915061255e8261251d565b602082019050919050565b6000602082019050818103600083015261258281612546565b9050919050565b6000612594826122b4565b915061259f836122b4565b9250828201905061ffff8111156125b9576125b8611fa6565b5b92915050565b60006125ca826112c7565b91507fffffffffffffffffffffffffffffffffffffffffffffffffffffffffffffffff82036125fc576125fb611fa6565b5b60018201905091905056fe63726564656e7469616c41746f6d696351756572794d545056324f6e436861696ea264697066735822122021299be7dd068c5eec8c7b0fece81499704003081114c282185be7968951444164736f6c63430008110033",
  "linkReferences": {},
  "deployedLinkReferences": {}
}