{
  "_format": "hh-sol-artifact-1",
  "contractName": "ERC20Verifier",
  "sourceName": "contracts/ERC20Verifier.sol",
  "abi": [
    {
      "inputs": [
        {
          "internalType": "string",
          "name": "name_",
          "type": "string"
        },
        {
          "internalType": "string",
          "name": "symbol_",
          "type": "string"
        }
      ],
      "stateMutability": "nonpayable",
      "type": "constructor"
    },
    {
      "inputs": [],
      "name": "AlreadyClaimed",
      "type": "error"
    },
    {
      "inputs": [
        {
          "internalType": "enum AuthType",
          "name": "authType",
          "type": "uint8"
        }
      ],
      "name": "AuthTypeNotFoundInVerifiedResult",
      "type": "error"
    },
    {
      "inputs": [],
      "name": "InvalidShortString",
      "type": "error"
    },
    {
      "inputs": [
        {
          "internalType": "string",
          "name": "str",
          "type": "string"
        }
      ],
      "name": "StringTooLong",
      "type": "error"
    },
    {
      "anonymous": false,
      "inputs": [
        {
          "indexed": true,
          "internalType": "address",
          "name": "owner",
          "type": "address"
        },
        {
          "indexed": true,
          "internalType": "address",
          "name": "spender",
          "type": "address"
        },
        {
          "indexed": false,
          "internalType": "uint256",
          "name": "value",
          "type": "uint256"
        }
      ],
      "name": "Approval",
      "type": "event"
    },
    {
      "anonymous": false,
      "inputs": [
        {
          "indexed": true,
          "internalType": "address",
          "name": "delegator",
          "type": "address"
        },
        {
          "indexed": true,
          "internalType": "address",
          "name": "fromDelegate",
          "type": "address"
        },
        {
          "indexed": true,
          "internalType": "address",
          "name": "toDelegate",
          "type": "address"
        }
      ],
      "name": "DelegateChanged",
      "type": "event"
    },
    {
      "anonymous": false,
      "inputs": [
        {
          "indexed": true,
          "internalType": "address",
          "name": "delegate",
          "type": "address"
        },
        {
          "indexed": false,
          "internalType": "uint256",
          "name": "previousBalance",
          "type": "uint256"
        },
        {
          "indexed": false,
          "internalType": "uint256",
          "name": "newBalance",
          "type": "uint256"
        }
      ],
      "name": "DelegateVotesChanged",
      "type": "event"
    },
    {
      "anonymous": false,
      "inputs": [],
      "name": "EIP712DomainChanged",
      "type": "event"
    },
    {
      "anonymous": false,
      "inputs": [
        {
          "indexed": true,
          "internalType": "address",
          "name": "previousOwner",
          "type": "address"
        },
        {
          "indexed": true,
          "internalType": "address",
          "name": "newOwner",
          "type": "address"
        }
      ],
      "name": "OwnershipTransferred",
      "type": "event"
    },
    {
      "anonymous": false,
      "inputs": [
        {
          "indexed": true,
          "internalType": "address",
          "name": "from",
          "type": "address"
        },
        {
          "indexed": true,
          "internalType": "address",
          "name": "to",
          "type": "address"
        },
        {
          "indexed": false,
          "internalType": "uint256",
          "name": "value",
          "type": "uint256"
        }
      ],
      "name": "Transfer",
      "type": "event"
    },
    {
      "inputs": [],
      "name": "ADDRESSES_PROVIDER_V2",
      "outputs": [
        {
          "internalType": "contract IAddressesProvider",
          "name": "",
          "type": "address"
        }
      ],
      "stateMutability": "view",
      "type": "function"
    },
    {
      "inputs": [],
      "name": "APP_ID",
      "outputs": [
        {
          "internalType": "bytes16",
          "name": "",
          "type": "bytes16"
        }
      ],
      "stateMutability": "view",
      "type": "function"
    },
    {
      "inputs": [],
      "name": "CLOCK_MODE",
      "outputs": [
        {
          "internalType": "string",
          "name": "",
          "type": "string"
        }
      ],
      "stateMutability": "view",
      "type": "function"
    },
    {
      "inputs": [],
      "name": "DOMAIN_SEPARATOR",
      "outputs": [
        {
          "internalType": "bytes32",
          "name": "",
          "type": "bytes32"
        }
      ],
      "stateMutability": "view",
      "type": "function"
    },
    {
      "inputs": [],
      "name": "IS_IMPERSONATION_MODE",
      "outputs": [
        {
          "internalType": "bool",
          "name": "",
          "type": "bool"
        }
      ],
      "stateMutability": "view",
      "type": "function"
    },
    {
      "inputs": [],
      "name": "SISMO_CONNECT_LIB_VERSION",
      "outputs": [
        {
          "internalType": "uint256",
          "name": "",
          "type": "uint256"
        }
      ],
      "stateMutability": "view",
      "type": "function"
    },
    {
      "inputs": [],
      "name": "TOKEN_AMOUNT_FOR_AIRDROP_PER_ID",
      "outputs": [
        {
          "internalType": "uint256",
          "name": "",
          "type": "uint256"
        }
      ],
      "stateMutability": "view",
      "type": "function"
    },
    {
      "inputs": [],
      "name": "TRANSFER_REQUEST_ID",
      "outputs": [
        {
          "internalType": "uint64",
          "name": "",
          "type": "uint64"
        }
      ],
      "stateMutability": "view",
      "type": "function"
    },
    {
      "inputs": [
        {
          "internalType": "address",
          "name": "",
          "type": "address"
        }
      ],
      "name": "addressToId",
      "outputs": [
        {
          "internalType": "uint256",
          "name": "",
          "type": "uint256"
        }
      ],
      "stateMutability": "view",
      "type": "function"
    },
    {
      "inputs": [
        {
          "internalType": "address",
          "name": "owner",
          "type": "address"
        },
        {
          "internalType": "address",
          "name": "spender",
          "type": "address"
        }
      ],
      "name": "allowance",
      "outputs": [
        {
          "internalType": "uint256",
          "name": "",
          "type": "uint256"
        }
      ],
      "stateMutability": "view",
      "type": "function"
    },
    {
      "inputs": [
        {
          "internalType": "address",
          "name": "spender",
          "type": "address"
        },
        {
          "internalType": "uint256",
          "name": "amount",
          "type": "uint256"
        }
      ],
      "name": "approve",
      "outputs": [
        {
          "internalType": "bool",
          "name": "",
          "type": "bool"
        }
      ],
      "stateMutability": "nonpayable",
      "type": "function"
    },
    {
      "inputs": [
        {
          "internalType": "address",
          "name": "account",
          "type": "address"
        }
      ],
      "name": "balanceOf",
      "outputs": [
        {
          "internalType": "uint256",
          "name": "",
          "type": "uint256"
        }
      ],
      "stateMutability": "view",
      "type": "function"
    },
    {
      "inputs": [
        {
          "internalType": "address",
          "name": "account",
          "type": "address"
        },
        {
          "internalType": "uint32",
          "name": "pos",
          "type": "uint32"
        }
      ],
      "name": "checkpoints",
      "outputs": [
        {
          "components": [
            {
              "internalType": "uint32",
              "name": "fromBlock",
              "type": "uint32"
            },
            {
              "internalType": "uint224",
              "name": "votes",
              "type": "uint224"
            }
          ],
          "internalType": "struct ERC20Votes.Checkpoint",
          "name": "",
          "type": "tuple"
        }
      ],
      "stateMutability": "view",
      "type": "function"
    },
    {
      "inputs": [
        {
          "internalType": "bytes",
          "name": "response",
          "type": "bytes"
        }
      ],
      "name": "claimWithSismo",
      "outputs": [],
      "stateMutability": "nonpayable",
      "type": "function"
    },
    {
      "inputs": [
        {
          "internalType": "uint256",
          "name": "",
          "type": "uint256"
        }
      ],
      "name": "claimed",
      "outputs": [
        {
          "internalType": "bool",
          "name": "",
          "type": "bool"
        }
      ],
      "stateMutability": "view",
      "type": "function"
    },
    {
      "inputs": [],
      "name": "clock",
      "outputs": [
        {
          "internalType": "uint48",
          "name": "",
          "type": "uint48"
        }
      ],
      "stateMutability": "view",
      "type": "function"
    },
    {
      "inputs": [],
      "name": "config",
      "outputs": [
        {
          "components": [
            {
              "internalType": "bytes16",
              "name": "appId",
              "type": "bytes16"
            },
            {
              "components": [
                {
                  "internalType": "bool",
                  "name": "isImpersonationMode",
                  "type": "bool"
                }
              ],
              "internalType": "struct VaultConfig",
              "name": "vault",
              "type": "tuple"
            }
          ],
          "internalType": "struct SismoConnectConfig",
          "name": "",
          "type": "tuple"
        }
      ],
      "stateMutability": "view",
      "type": "function"
    },
    {
      "inputs": [],
      "name": "decimals",
      "outputs": [
        {
          "internalType": "uint8",
          "name": "",
          "type": "uint8"
        }
      ],
      "stateMutability": "view",
      "type": "function"
    },
    {
      "inputs": [
        {
          "internalType": "address",
          "name": "spender",
          "type": "address"
        },
        {
          "internalType": "uint256",
          "name": "subtractedValue",
          "type": "uint256"
        }
      ],
      "name": "decreaseAllowance",
      "outputs": [
        {
          "internalType": "bool",
          "name": "",
          "type": "bool"
        }
      ],
      "stateMutability": "nonpayable",
      "type": "function"
    },
    {
      "inputs": [
        {
          "internalType": "address",
          "name": "delegatee",
          "type": "address"
        }
      ],
      "name": "delegate",
      "outputs": [],
      "stateMutability": "nonpayable",
      "type": "function"
    },
    {
      "inputs": [
        {
          "internalType": "address",
          "name": "delegatee",
          "type": "address"
        },
        {
          "internalType": "uint256",
          "name": "nonce",
          "type": "uint256"
        },
        {
          "internalType": "uint256",
          "name": "expiry",
          "type": "uint256"
        },
        {
          "internalType": "uint8",
          "name": "v",
          "type": "uint8"
        },
        {
          "internalType": "bytes32",
          "name": "r",
          "type": "bytes32"
        },
        {
          "internalType": "bytes32",
          "name": "s",
          "type": "bytes32"
        }
      ],
      "name": "delegateBySig",
      "outputs": [],
      "stateMutability": "nonpayable",
      "type": "function"
    },
    {
      "inputs": [
        {
          "internalType": "address",
          "name": "account",
          "type": "address"
        }
      ],
      "name": "delegates",
      "outputs": [
        {
          "internalType": "address",
          "name": "",
          "type": "address"
        }
      ],
      "stateMutability": "view",
      "type": "function"
    },
    {
      "inputs": [],
      "name": "eip712Domain",
      "outputs": [
        {
          "internalType": "bytes1",
          "name": "fields",
          "type": "bytes1"
        },
        {
          "internalType": "string",
          "name": "name",
          "type": "string"
        },
        {
          "internalType": "string",
          "name": "version",
          "type": "string"
        },
        {
          "internalType": "uint256",
          "name": "chainId",
          "type": "uint256"
        },
        {
          "internalType": "address",
          "name": "verifyingContract",
          "type": "address"
        },
        {
          "internalType": "bytes32",
          "name": "salt",
          "type": "bytes32"
        },
        {
          "internalType": "uint256[]",
          "name": "extensions",
          "type": "uint256[]"
        }
      ],
      "stateMutability": "view",
      "type": "function"
    },
    {
      "inputs": [
        {
          "internalType": "uint256",
          "name": "timepoint",
          "type": "uint256"
        }
      ],
      "name": "getPastTotalSupply",
      "outputs": [
        {
          "internalType": "uint256",
          "name": "",
          "type": "uint256"
        }
      ],
      "stateMutability": "view",
      "type": "function"
    },
    {
      "inputs": [
        {
          "internalType": "address",
          "name": "account",
          "type": "address"
        },
        {
          "internalType": "uint256",
          "name": "timepoint",
          "type": "uint256"
        }
      ],
      "name": "getPastVotes",
      "outputs": [
        {
          "internalType": "uint256",
          "name": "",
          "type": "uint256"
        }
      ],
      "stateMutability": "view",
      "type": "function"
    },
    {
      "inputs": [],
      "name": "getSupportedRequests",
      "outputs": [
        {
          "internalType": "uint64[]",
          "name": "arr",
          "type": "uint64[]"
        }
      ],
      "stateMutability": "view",
      "type": "function"
    },
    {
      "inputs": [
        {
          "internalType": "address",
          "name": "account",
          "type": "address"
        }
      ],
      "name": "getVotes",
      "outputs": [
        {
          "internalType": "uint256",
          "name": "",
          "type": "uint256"
        }
      ],
      "stateMutability": "view",
      "type": "function"
    },
    {
      "inputs": [
        {
          "internalType": "uint64",
          "name": "requestId",
          "type": "uint64"
        }
      ],
      "name": "getZKPRequest",
      "outputs": [
        {
          "components": [
            {
              "internalType": "uint256",
              "name": "schema",
              "type": "uint256"
            },
            {
              "internalType": "uint256",
              "name": "claimPathKey",
              "type": "uint256"
            },
            {
              "internalType": "uint256",
              "name": "operator",
              "type": "uint256"
            },
            {
              "internalType": "uint256[]",
              "name": "value",
              "type": "uint256[]"
            },
            {
              "internalType": "uint256",
              "name": "queryHash",
              "type": "uint256"
            },
            {
              "internalType": "string",
              "name": "circuitId",
              "type": "string"
            }
          ],
          "internalType": "struct ICircuitValidator.CircuitQuery",
          "name": "",
          "type": "tuple"
        }
      ],
      "stateMutability": "view",
      "type": "function"
    },
    {
      "inputs": [
        {
          "internalType": "uint256",
          "name": "",
          "type": "uint256"
        }
      ],
      "name": "idToAddress",
      "outputs": [
        {
          "internalType": "address",
          "name": "",
          "type": "address"
        }
      ],
      "stateMutability": "view",
      "type": "function"
    },
    {
      "inputs": [
        {
          "internalType": "address",
          "name": "spender",
          "type": "address"
        },
        {
          "internalType": "uint256",
          "name": "addedValue",
          "type": "uint256"
        }
      ],
      "name": "increaseAllowance",
      "outputs": [
        {
          "internalType": "bool",
          "name": "",
          "type": "bool"
        }
      ],
      "stateMutability": "nonpayable",
      "type": "function"
    },
    {
      "inputs": [],
      "name": "name",
      "outputs": [
        {
          "internalType": "string",
          "name": "",
          "type": "string"
        }
      ],
      "stateMutability": "view",
      "type": "function"
    },
    {
      "inputs": [
        {
          "internalType": "address",
          "name": "owner",
          "type": "address"
        }
      ],
      "name": "nonces",
      "outputs": [
        {
          "internalType": "uint256",
          "name": "",
          "type": "uint256"
        }
      ],
      "stateMutability": "view",
      "type": "function"
    },
    {
      "inputs": [
        {
          "internalType": "address",
          "name": "account",
          "type": "address"
        }
      ],
      "name": "numCheckpoints",
      "outputs": [
        {
          "internalType": "uint32",
          "name": "",
          "type": "uint32"
        }
      ],
      "stateMutability": "view",
      "type": "function"
    },
    {
      "inputs": [],
      "name": "owner",
      "outputs": [
        {
          "internalType": "address",
          "name": "",
          "type": "address"
        }
      ],
      "stateMutability": "view",
      "type": "function"
    },
    {
      "inputs": [
        {
          "internalType": "address",
          "name": "owner",
          "type": "address"
        },
        {
          "internalType": "address",
          "name": "spender",
          "type": "address"
        },
        {
          "internalType": "uint256",
          "name": "value",
          "type": "uint256"
        },
        {
          "internalType": "uint256",
          "name": "deadline",
          "type": "uint256"
        },
        {
          "internalType": "uint8",
          "name": "v",
          "type": "uint8"
        },
        {
          "internalType": "bytes32",
          "name": "r",
          "type": "bytes32"
        },
        {
          "internalType": "bytes32",
          "name": "s",
          "type": "bytes32"
        }
      ],
      "name": "permit",
      "outputs": [],
      "stateMutability": "nonpayable",
      "type": "function"
    },
    {
      "inputs": [
        {
          "internalType": "address",
          "name": "",
          "type": "address"
        },
        {
          "internalType": "uint64",
          "name": "",
          "type": "uint64"
        }
      ],
      "name": "proofs",
      "outputs": [
        {
          "internalType": "bool",
          "name": "",
          "type": "bool"
        }
      ],
      "stateMutability": "view",
      "type": "function"
    },
    {
      "inputs": [],
      "name": "renounceOwnership",
      "outputs": [],
      "stateMutability": "nonpayable",
      "type": "function"
    },
    {
      "inputs": [
        {
          "internalType": "uint64",
          "name": "",
          "type": "uint64"
        }
      ],
      "name": "requestQueries",
      "outputs": [
        {
          "internalType": "uint256",
          "name": "schema",
          "type": "uint256"
        },
        {
          "internalType": "uint256",
          "name": "claimPathKey",
          "type": "uint256"
        },
        {
          "internalType": "uint256",
          "name": "operator",
          "type": "uint256"
        },
        {
          "internalType": "uint256",
          "name": "queryHash",
          "type": "uint256"
        },
        {
          "internalType": "string",
          "name": "circuitId",
          "type": "string"
        }
      ],
      "stateMutability": "view",
      "type": "function"
    },
    {
      "inputs": [
        {
          "internalType": "uint64",
          "name": "",
          "type": "uint64"
        }
      ],
      "name": "requestValidators",
      "outputs": [
        {
          "internalType": "contract ICircuitValidator",
          "name": "",
          "type": "address"
        }
      ],
      "stateMutability": "view",
      "type": "function"
    },
    {
      "inputs": [
        {
          "internalType": "uint64",
          "name": "requestId",
          "type": "uint64"
        },
        {
          "internalType": "contract ICircuitValidator",
          "name": "validator",
          "type": "address"
        },
        {
          "internalType": "uint256",
          "name": "schema",
          "type": "uint256"
        },
        {
          "internalType": "uint256",
          "name": "claimPathKey",
          "type": "uint256"
        },
        {
          "internalType": "uint256",
          "name": "operator",
          "type": "uint256"
        },
        {
          "internalType": "uint256[]",
          "name": "value",
          "type": "uint256[]"
        }
      ],
      "name": "setZKPRequest",
      "outputs": [
        {
          "internalType": "bool",
          "name": "",
          "type": "bool"
        }
      ],
      "stateMutability": "nonpayable",
      "type": "function"
    },
    {
      "inputs": [
        {
          "internalType": "uint64",
          "name": "requestId",
          "type": "uint64"
        },
        {
          "internalType": "contract ICircuitValidator",
          "name": "validator",
          "type": "address"
        },
        {
          "internalType": "uint256",
          "name": "schema",
          "type": "uint256"
        },
        {
          "internalType": "uint256",
          "name": "claimPathKey",
          "type": "uint256"
        },
        {
          "internalType": "uint256",
          "name": "operator",
          "type": "uint256"
        },
        {
          "internalType": "uint256[]",
          "name": "value",
          "type": "uint256[]"
        },
        {
          "internalType": "uint256",
          "name": "queryHash",
          "type": "uint256"
        }
      ],
      "name": "setZKPRequestRaw",
      "outputs": [
        {
          "internalType": "bool",
          "name": "",
          "type": "bool"
        }
      ],
      "stateMutability": "nonpayable",
      "type": "function"
    },
    {
      "inputs": [
        {
          "internalType": "uint64",
          "name": "requestId",
          "type": "uint64"
        },
        {
          "internalType": "uint256[]",
          "name": "inputs",
          "type": "uint256[]"
        },
        {
          "internalType": "uint256[2]",
          "name": "a",
          "type": "uint256[2]"
        },
        {
          "internalType": "uint256[2][2]",
          "name": "b",
          "type": "uint256[2][2]"
        },
        {
          "internalType": "uint256[2]",
          "name": "c",
          "type": "uint256[2]"
        }
      ],
      "name": "submitZKPResponse",
      "outputs": [
        {
          "internalType": "bool",
          "name": "",
          "type": "bool"
        }
      ],
      "stateMutability": "nonpayable",
      "type": "function"
    },
    {
      "inputs": [],
      "name": "symbol",
      "outputs": [
        {
          "internalType": "string",
          "name": "",
          "type": "string"
        }
      ],
      "stateMutability": "view",
      "type": "function"
    },
    {
      "inputs": [],
      "name": "totalSupply",
      "outputs": [
        {
          "internalType": "uint256",
          "name": "",
          "type": "uint256"
        }
      ],
      "stateMutability": "view",
      "type": "function"
    },
    {
      "inputs": [
        {
          "internalType": "address",
          "name": "to",
          "type": "address"
        },
        {
          "internalType": "uint256",
          "name": "amount",
          "type": "uint256"
        }
      ],
      "name": "transfer",
      "outputs": [
        {
          "internalType": "bool",
          "name": "",
          "type": "bool"
        }
      ],
      "stateMutability": "nonpayable",
      "type": "function"
    },
    {
      "inputs": [
        {
          "internalType": "address",
          "name": "from",
          "type": "address"
        },
        {
          "internalType": "address",
          "name": "to",
          "type": "address"
        },
        {
          "internalType": "uint256",
          "name": "amount",
          "type": "uint256"
        }
      ],
      "name": "transferFrom",
      "outputs": [
        {
          "internalType": "bool",
          "name": "",
          "type": "bool"
        }
      ],
      "stateMutability": "nonpayable",
      "type": "function"
    },
    {
      "inputs": [
        {
          "internalType": "address",
          "name": "newOwner",
          "type": "address"
        }
      ],
      "name": "transferOwnership",
      "outputs": [],
      "stateMutability": "nonpayable",
      "type": "function"
    }
  ],
  "bytecode": "0x6102406040526ff4977993e52606cfd67b7a1cde71706960801b601260006101000a8154816fffffffffffffffffffffffffffffffff021916908360801c02179055506001601260106101000a81548160ff0219169083151502179055506200006d6200076a60201b60201c565b60ff16600a6200007e919062000bb3565b60056200008c919062000c04565b6015553480156200009c57600080fd5b506040516200a3ef3803806200a3ef8339818101604052810190620000c2919062000de2565b620000f2601260009054906101000a900460801b601260109054906101000a900460ff166200077360201b60201c565b82806040518060400160405280600181526020017f310000000000000000000000000000000000000000000000000000000000000081525085856200014c62000140620007bd60201b60201c565b620007c560201b60201c565b81600490816200015d9190620010a8565b5080600590816200016f9190620010a8565b5050506200018d600a836200088960201b6200234f1790919060201c565b6101208181525050620001b0600b826200088960201b6200234f1790919060201c565b6101408181525050818051906020012060e08181525050808051906020012061010081815250504660a08181525050620001ef620008e660201b60201c565b608081815250503073ffffffffffffffffffffffffffffffffffffffff1660c08173ffffffffffffffffffffffffffffffffffffffff168152505050505080600001516fffffffffffffffffffffffffffffffff1916610200816fffffffffffffffffffffffffffffffff191681525050806020015160000151151561022081151581525050733cd5334eb64ebbd4003b72022cc25465f1bfcee673ffffffffffffffffffffffffffffffffffffffff1663693ec85e6040518060400160405280601981526020017f7369736d6f436f6e6e65637456657269666965722d76312e32000000000000008152506040518263ffffffff1660e01b8152600401620002f99190620011e1565b602060405180830381865afa15801562000317573d6000803e3d6000fd5b505050506040513d601f19601f820116820180604052508101906200033d91906200126a565b73ffffffffffffffffffffffffffffffffffffffff166101608173ffffffffffffffffffffffffffffffffffffffff1681525050733cd5334eb64ebbd4003b72022cc25465f1bfcee673ffffffffffffffffffffffffffffffffffffffff1663693ec85e6040518060400160405280601781526020017f61757468526571756573744275696c6465722d76312e310000000000000000008152506040518263ffffffff1660e01b8152600401620003f59190620011e1565b602060405180830381865afa15801562000413573d6000803e3d6000fd5b505050506040513d601f19601f820116820180604052508101906200043991906200126a565b73ffffffffffffffffffffffffffffffffffffffff166101808173ffffffffffffffffffffffffffffffffffffffff1681525050733cd5334eb64ebbd4003b72022cc25465f1bfcee673ffffffffffffffffffffffffffffffffffffffff1663693ec85e6040518060400160405280601881526020017f636c61696d526571756573744275696c6465722d76312e3100000000000000008152506040518263ffffffff1660e01b8152600401620004f19190620011e1565b602060405180830381865afa1580156200050f573d6000803e3d6000fd5b505050506040513d601f19601f820116820180604052508101906200053591906200126a565b73ffffffffffffffffffffffffffffffffffffffff166101a08173ffffffffffffffffffffffffffffffffffffffff1681525050733cd5334eb64ebbd4003b72022cc25465f1bfcee673ffffffffffffffffffffffffffffffffffffffff1663693ec85e6040518060400160405280601581526020017f7369676e61747572654275696c6465722d76312e3100000000000000000000008152506040518263ffffffff1660e01b8152600401620005ed9190620011e1565b602060405180830381865afa1580156200060b573d6000803e3d6000fd5b505050506040513d601f19601f820116820180604052508101906200063191906200126a565b73ffffffffffffffffffffffffffffffffffffffff166101c08173ffffffffffffffffffffffffffffffffffffffff1681525050733cd5334eb64ebbd4003b72022cc25465f1bfcee673ffffffffffffffffffffffffffffffffffffffff1663693ec85e6040518060400160405280601381526020017f726571756573744275696c6465722d76312e31000000000000000000000000008152506040518263ffffffff1660e01b8152600401620006e99190620011e1565b602060405180830381865afa15801562000707573d6000803e3d6000fd5b505050506040513d601f19601f820116820180604052508101906200072d91906200126a565b73ffffffffffffffffffffffffffffffffffffffff166101e08173ffffffffffffffffffffffffffffffffffffffff1681525050505050620013d8565b60006012905090565b6200077d620009dc565b6040518060400160405280846fffffffffffffffffffffffffffffffff19168152602001620007b2846200094360201b60201c565b815250905092915050565b600033905090565b60008060009054906101000a900473ffffffffffffffffffffffffffffffffffffffff169050816000806101000a81548173ffffffffffffffffffffffffffffffffffffffff021916908373ffffffffffffffffffffffffffffffffffffffff1602179055508173ffffffffffffffffffffffffffffffffffffffff168173ffffffffffffffffffffffffffffffffffffffff167f8be0079c531659141344cd1fd0a4f28419497f9722a3daafe3b4186f6b6457e060405160405180910390a35050565b6000602083511015620008af57620008a7836200096560201b60201c565b9050620008e0565b82620008c683620009d260201b620023931760201c565b6000019081620008d79190620010a8565b5060ff60001b90505b92915050565b60007f8b73c3c69bb8fe3d512ecc4cf759cc79239f7b179b0ffacaa9a75d522b39400f60e05161010051463060405160200162000928959493929190620012d9565b60405160208183030381529060405280519060200120905090565b6200094d62000a11565b60405180602001604052808315158152509050919050565b600080829050601f81511115620009b557826040517f305a27a9000000000000000000000000000000000000000000000000000000008152600401620009ac9190620011e1565b60405180910390fd5b805181620009c39062001368565b60001c1760001b915050919050565b6000819050919050565b604051806040016040528060006fffffffffffffffffffffffffffffffff1916815260200162000a0b62000a11565b81525090565b60405180602001604052806000151581525090565b7f4e487b7100000000000000000000000000000000000000000000000000000000600052601160045260246000fd5b60008160011c9050919050565b6000808291508390505b600185111562000ab45780860481111562000a8c5762000a8b62000a26565b5b600185161562000a9c5780820291505b808102905062000aac8562000a55565b945062000a6c565b94509492505050565b60008262000acf576001905062000ba2565b8162000adf576000905062000ba2565b816001811462000af8576002811462000b035762000b39565b600191505062000ba2565b60ff84111562000b185762000b1762000a26565b5b8360020a91508482111562000b325762000b3162000a26565b5b5062000ba2565b5060208310610133831016604e8410600b841016171562000b735782820a90508381111562000b6d5762000b6c62000a26565b5b62000ba2565b62000b82848484600162000a62565b9250905081840481111562000b9c5762000b9b62000a26565b5b81810290505b9392505050565b6000819050919050565b600062000bc08262000ba9565b915062000bcd8362000ba9565b925062000bfc7fffffffffffffffffffffffffffffffffffffffffffffffffffffffffffffffff848462000abd565b905092915050565b600062000c118262000ba9565b915062000c1e8362000ba9565b925082820262000c2e8162000ba9565b9150828204841483151762000c485762000c4762000a26565b5b5092915050565b6000604051905090565b600080fd5b600080fd5b600080fd5b600080fd5b6000601f19601f8301169050919050565b7f4e487b7100000000000000000000000000000000000000000000000000000000600052604160045260246000fd5b62000cb88262000c6d565b810181811067ffffffffffffffff8211171562000cda5762000cd962000c7e565b5b80604052505050565b600062000cef62000c4f565b905062000cfd828262000cad565b919050565b600067ffffffffffffffff82111562000d205762000d1f62000c7e565b5b62000d2b8262000c6d565b9050602081019050919050565b60005b8381101562000d5857808201518184015260208101905062000d3b565b60008484015250505050565b600062000d7b62000d758462000d02565b62000ce3565b90508281526020810184848401111562000d9a5762000d9962000c68565b5b62000da784828562000d38565b509392505050565b600082601f83011262000dc75762000dc662000c63565b5b815162000dd984826020860162000d64565b91505092915050565b6000806040838503121562000dfc5762000dfb62000c59565b5b600083015167ffffffffffffffff81111562000e1d5762000e1c62000c5e565b5b62000e2b8582860162000daf565b925050602083015167ffffffffffffffff81111562000e4f5762000e4e62000c5e565b5b62000e5d8582860162000daf565b9150509250929050565b600081519050919050565b7f4e487b7100000000000000000000000000000000000000000000000000000000600052602260045260246000fd5b6000600282049050600182168062000eba57607f821691505b60208210810362000ed05762000ecf62000e72565b5b50919050565b60008190508160005260206000209050919050565b60006020601f8301049050919050565b600082821b905092915050565b60006008830262000f3a7fffffffffffffffffffffffffffffffffffffffffffffffffffffffffffffffff8262000efb565b62000f46868362000efb565b95508019841693508086168417925050509392505050565b6000819050919050565b600062000f8962000f8362000f7d8462000ba9565b62000f5e565b62000ba9565b9050919050565b6000819050919050565b62000fa58362000f68565b62000fbd62000fb48262000f90565b84845462000f08565b825550505050565b600090565b62000fd462000fc5565b62000fe181848462000f9a565b505050565b5b81811015620010095762000ffd60008262000fca565b60018101905062000fe7565b5050565b601f8211156200105857620010228162000ed6565b6200102d8462000eeb565b810160208510156200103d578190505b620010556200104c8562000eeb565b83018262000fe6565b50505b505050565b600082821c905092915050565b60006200107d600019846008026200105d565b1980831691505092915050565b60006200109883836200106a565b9150826002028217905092915050565b620010b38262000e67565b67ffffffffffffffff811115620010cf57620010ce62000c7e565b5b620010db825462000ea1565b620010e88282856200100d565b600060209050601f8311600181146200112057600084156200110b578287015190505b6200111785826200108a565b86555062001187565b601f198416620011308662000ed6565b60005b828110156200115a5784890151825560018201915060208501945060208101905062001133565b868310156200117a578489015162001176601f8916826200106a565b8355505b6001600288020188555050505b505050505050565b600082825260208201905092915050565b6000620011ad8262000e67565b620011b981856200118f565b9350620011cb81856020860162000d38565b620011d68162000c6d565b840191505092915050565b60006020820190508181036000830152620011fd8184620011a0565b905092915050565b600073ffffffffffffffffffffffffffffffffffffffff82169050919050565b6000620012328262001205565b9050919050565b620012448162001225565b81146200125057600080fd5b50565b600081519050620012648162001239565b92915050565b60006020828403121562001283576200128262000c59565b5b6000620012938482850162001253565b91505092915050565b6000819050919050565b620012b1816200129c565b82525050565b620012c28162000ba9565b82525050565b620012d38162001225565b82525050565b600060a082019050620012f06000830188620012a6565b620012ff6020830187620012a6565b6200130e6040830186620012a6565b6200131d6060830185620012b7565b6200132c6080830184620012c8565b9695505050505050565b600081519050919050565b6000819050602082019050919050565b60006200135f82516200129c565b80915050919050565b6000620013758262001336565b82620013818462001341565b90506200138e8162001351565b92506020821015620013d157620013cc7fffffffffffffffffffffffffffffffffffffffffffffffffffffffffffffffff8360200360080262000efb565b831692505b5050919050565b60805160a05160c05160e05161010051610120516101405161016051610180516101a0516101c0516101e0516102005161022051618f646200148b60003960008181610f5d0152611814015260008181610f3c0152611d3d015260006137ec01526000612b2a0152600050506000612a7c01526000612bfe0152600061101d01526000610fe90152600061365e0152600061363d01526000612877015260006128cd015260006128f60152618f646000f3fe608060405234801561001057600080fd5b50600436106102955760003560e01c80638da5cb5b11610167578063b45c0fdf116100ce578063cb0e0d7d11610087578063cb0e0d7d146108c0578063d505accf146108f0578063dbe7e3bd1461090c578063dd62ed3e1461093c578063f1127ed81461096c578063f2fde38b1461099c57610295565b8063b45c0fdf146107d8578063b68967e214610808578063c187bbc114610838578063c3cda52014610856578063c76d084514610872578063c9512d99146108a257610295565b80639abdc645116101205780639abdc645146106ca5780639e621bcf146106fa578063a183dc271461072a578063a457c2d714610748578063a872311414610778578063a9059cbb146107a857610295565b80638da5cb5b146105dc5780638e539e8c146105fa57806391ddadf41461062a57806395d89b411461064857806396bf4741146106665780639ab24eb01461069a57610295565b8063469163011161020b5780637042f36b116101c45780637042f36b1461051257806370a0823114610530578063715018a61461056057806379502c551461056a5780637ecebe001461058857806384b0196e146105b857610295565b8063469163011461043c5780634bf5d7e91461045a578063587cde1e146104785780635c19a95c146104a857806363ec508f146104c45780636fcfff45146104e257610295565b8063313ce5671161025d578063313ce567146103665780633644e5151461038457806337ba9523146103a257806339509351146103c05780633a46b1a8146103f05780633ed1ef381461042057610295565b806306fdde031461029a578063095ea7b3146102b857806318160ddd146102e857806323b872dd146103065780632a2d0c4714610336575b600080fd5b6102a26109b8565b6040516102af9190614953565b60405180910390f35b6102d260048036038101906102cd9190614a1d565b610a4a565b6040516102df9190614a78565b60405180910390f35b6102f0610a6d565b6040516102fd9190614aa2565b60405180910390f35b610320600480360381019061031b9190614abd565b610a77565b60405161032d9190614a78565b60405180910390f35b610350600480360381019061034b9190614b10565b610aa6565b60405161035d9190614b4c565b60405180910390f35b61036e610ad9565b60405161037b9190614b83565b60405180910390f35b61038c610ae2565b6040516103999190614bb7565b60405180910390f35b6103aa610af1565b6040516103b79190614ca4565b60405180910390f35b6103da60048036038101906103d59190614a1d565b610b7d565b6040516103e79190614a78565b60405180910390f35b61040a60048036038101906104059190614a1d565b610bb4565b6040516104179190614aa2565b60405180910390f35b61043a60048036038101906104359190614dfb565b610c57565b005b610444610d50565b6040516104519190614ea3565b60405180910390f35b610462610d68565b60405161046f9190614953565b60405180910390f35b610492600480360381019061048d9190614ebe565b610df6565b60405161049f9190614b4c565b60405180910390f35b6104c260048036038101906104bd9190614ebe565b610e5f565b005b6104cc610e73565b6040516104d99190614efa565b60405180910390f35b6104fc60048036038101906104f79190614ebe565b610e78565b6040516105099190614f34565b60405180910390f35b61051a610ecc565b6040516105279190614aa2565b60405180910390f35b61054a60048036038101906105459190614ebe565b610ed2565b6040516105579190614aa2565b60405180910390f35b610568610f1b565b005b610572610f2f565b60405161057f9190614fe4565b60405180910390f35b6105a2600480360381019061059d9190614ebe565b610f86565b6040516105af9190614aa2565b60405180910390f35b6105c0610fd6565b6040516105d397969594939291906150f8565b60405180910390f35b6105e46110d8565b6040516105f19190614b4c565b60405180910390f35b610614600480360381019061060f9190614b10565b611101565b6040516106219190614aa2565b60405180910390f35b610632611166565b60405161063f919061519d565b60405180910390f35b610650611176565b60405161065d9190614953565b60405180910390f35b610680600480360381019061067b91906151e4565b611208565b604051610691959493929190615211565b60405180910390f35b6106b460048036038101906106af9190614ebe565b6112c6565b6040516106c19190614aa2565b60405180910390f35b6106e460048036038101906106df9190615309565b6113ce565b6040516106f19190614a78565b60405180910390f35b610714600480360381019061070f91906153b8565b61151f565b6040516107219190614a78565b60405180910390f35b610732611812565b60405161073f9190614a78565b60405180910390f35b610762600480360381019061075d9190614a1d565b611836565b60405161076f9190614a78565b60405180910390f35b610792600480360381019061078d91906151e4565b6118ad565b60405161079f919061549b565b60405180910390f35b6107c260048036038101906107bd9190614a1d565b6118e0565b6040516107cf9190614a78565b60405180910390f35b6107f260048036038101906107ed91906154b6565b611903565b6040516107ff9190614a78565b60405180910390f35b610822600480360381019061081d919061553a565b611932565b60405161082f9190614a78565b60405180910390f35b610840611d3b565b60405161084d91906155e5565b60405180910390f35b610870600480360381019061086b9190615658565b611d5f565b005b61088c600480360381019061088791906151e4565b611e63565b604051610899919061582e565b60405180910390f35b6108aa611fb6565b6040516108b79190614aa2565b60405180910390f35b6108da60048036038101906108d59190614ebe565b611fbb565b6040516108e79190614aa2565b60405180910390f35b61090a60048036038101906109059190615850565b611fd3565b005b61092660048036038101906109219190614b10565b612115565b6040516109339190614a78565b60405180910390f35b610956600480360381019061095191906158f2565b612135565b6040516109639190614aa2565b60405180910390f35b6109866004803603810190610981919061595e565b6121bc565b6040516109939190615a13565b60405180910390f35b6109b660048036038101906109b19190614ebe565b6122cc565b005b6060600480546109c790615a5d565b80601f01602080910402602001604051908101604052809291908181526020018280546109f390615a5d565b8015610a405780601f10610a1557610100808354040283529160200191610a40565b820191906000526020600020905b815481529060010190602001808311610a2357829003601f168201915b5050505050905090565b600080610a5561239d565b9050610a628185856123a5565b600191505092915050565b6000600354905090565b600080610a8261239d565b9050610a8f85828561256e565b610a9a8585856125fa565b60019150509392505050565b60136020528060005260406000206000915054906101000a900473ffffffffffffffffffffffffffffffffffffffff1681565b60006012905090565b6000610aec612873565b905090565b60606009805480602002602001604051908101604052809291908181526020018280548015610b7357602002820191906000526020600020906000905b82829054906101000a900467ffffffffffffffff1667ffffffffffffffff1681526020019060080190602082600701049283019260010382029150808411610b2e5790505b5050505050905090565b600080610b8861239d565b9050610ba9818585610b9a8589612135565b610ba49190615abd565b6123a5565b600191505092915050565b6000610bbe611166565b65ffffffffffff168210610c07576040517f08c379a0000000000000000000000000000000000000000000000000000000008152600401610bfe90615b3d565b60405180910390fd5b610c4f600f60008573ffffffffffffffffffffffffffffffffffffffff1673ffffffffffffffffffffffffffffffffffffffff1681526020019081526020016000208361292a565b905092915050565b6000610c9482610c676000612a72565b610c8f33604051602001610c7b9190614b4c565b604051602081830303815290604052612b20565b612bce565b90506000610cac600083612cb390919063ffffffff16565b90506011600082815260200190815260200160002060009054906101000a900460ff1615610d06576040517f646cf55800000000000000000000000000000000000000000000000000000000815260040160405180910390fd5b600068056bc75e2d63100000905060016011600084815260200190815260200160002060006101000a81548160ff021916908315150217905550610d4a3382612d97565b50505050565b733cd5334eb64ebbd4003b72022cc25465f1bfcee681565b606043610d73611166565b65ffffffffffff1614610dbb576040517f08c379a0000000000000000000000000000000000000000000000000000000008152600401610db290615ba9565b60405180910390fd5b6040518060400160405280601d81526020017f6d6f64653d626c6f636b6e756d6265722666726f6d3d64656661756c74000000815250905090565b6000600e60008373ffffffffffffffffffffffffffffffffffffffff1673ffffffffffffffffffffffffffffffffffffffff16815260200190815260200160002060009054906101000a900473ffffffffffffffffffffffffffffffffffffffff169050919050565b610e70610e6a61239d565b82612da5565b50565b600181565b6000610ec5600f60008473ffffffffffffffffffffffffffffffffffffffff1673ffffffffffffffffffffffffffffffffffffffff16815260200190815260200160002080549050612ebf565b9050919050565b60155481565b6000600160008373ffffffffffffffffffffffffffffffffffffffff1673ffffffffffffffffffffffffffffffffffffffff168152602001908152602001600020549050919050565b610f23612f12565b610f2d6000612f90565b565b610f3761468c565b610f817f00000000000000000000000000000000000000000000000000000000000000007f0000000000000000000000000000000000000000000000000000000000000000613054565b905090565b6000610fcf600c60008473ffffffffffffffffffffffffffffffffffffffff1673ffffffffffffffffffffffffffffffffffffffff168152602001908152602001600020613094565b9050919050565b600060608060008060006060611016600a7f00000000000000000000000000000000000000000000000000000000000000006130a290919063ffffffff16565b61104a600b7f00000000000000000000000000000000000000000000000000000000000000006130a290919063ffffffff16565b46306000801b600067ffffffffffffffff81111561106b5761106a614cd0565b5b6040519080825280602002602001820160405280156110995781602001602082028036833780820191505090505b507f0f00000000000000000000000000000000000000000000000000000000000000959493929190965096509650965096509650965090919293949596565b60008060009054906101000a900473ffffffffffffffffffffffffffffffffffffffff16905090565b600061110b611166565b65ffffffffffff168210611154576040517f08c379a000000000000000000000000000000000000000000000000000000000815260040161114b90615b3d565b60405180910390fd5b61115f60108361292a565b9050919050565b600061117143613152565b905090565b60606005805461118590615a5d565b80601f01602080910402602001604051908101604052809291908181526020018280546111b190615a5d565b80156111fe5780601f106111d3576101008083540402835291602001916111fe565b820191906000526020600020905b8154815290600101906020018083116111e157829003601f168201915b5050505050905090565b600760205280600052604060002060009150905080600001549080600101549080600201549080600401549080600501805461124390615a5d565b80601f016020809104026020016040519081016040528092919081815260200182805461126f90615a5d565b80156112bc5780601f10611291576101008083540402835291602001916112bc565b820191906000526020600020905b81548152906001019060200180831161129f57829003601f168201915b5050505050905085565b600080600f60008473ffffffffffffffffffffffffffffffffffffffff1673ffffffffffffffffffffffffffffffffffffffff168152602001908152602001600020805490509050600081146113a557600f60008473ffffffffffffffffffffffffffffffffffffffff1673ffffffffffffffffffffffffffffffffffffffff168152602001908152602001600020600182038154811061136a57611369615bc9565b5b9060005260206000200160000160049054906101000a90047bffffffffffffffffffffffffffffffffffffffffffffffffffffffff166113a8565b60005b7bffffffffffffffffffffffffffffffffffffffffffffffffffffffff16915050919050565b60006113d8612f12565b600073__$933e38ee1bac859086d8d4e5388b6d5e5f$__6340ec6e4985856040518363ffffffff1660e01b8152600401611413929190615c73565b602060405180830381865af4158015611430573d6000803e3d6000fd5b505050506040513d601f19601f820116820180604052508101906114549190615cac565b9050600073__$149ddb96bf5d692e763ea65f305faba249$__63f5b4a7886040518060c001604052808b8152602001600081526020018981526020018a815260200160008152602001858152506040518263ffffffff1660e01b81526004016114bd9190615d84565b602060405180830381865af41580156114da573d6000803e3d6000fd5b505050506040513d601f19601f820116820180604052508101906114fe9190615cac565b90506115108a8a8a8a8a8a8a8861151f565b92505050979650505050505050565b6000611529612f12565b600073ffffffffffffffffffffffffffffffffffffffff16600860008b67ffffffffffffffff1667ffffffffffffffff16815260200190815260200160002060009054906101000a900473ffffffffffffffffffffffffffffffffffffffff1673ffffffffffffffffffffffffffffffffffffffff16036115fb5760098990806001815401808255809150506001900390600052602060002090600491828204019190066008029091909190916101000a81548167ffffffffffffffff021916908367ffffffffffffffff1602179055505b81600760008b67ffffffffffffffff1667ffffffffffffffff1681526020019081526020016000206004018190555084600760008b67ffffffffffffffff1667ffffffffffffffff168152602001908152602001600020600201819055508773ffffffffffffffffffffffffffffffffffffffff166359a2aeaa6040518163ffffffff1660e01b8152600401600060405180830381865afa1580156116a4573d6000803e3d6000fd5b505050506040513d6000823e3d601f19601f820116820180604052508101906116cd9190615e40565b600760008b67ffffffffffffffff1667ffffffffffffffff1681526020019081526020016000206005019081611703919061602b565b5085600760008b67ffffffffffffffff1667ffffffffffffffff1681526020019081526020016000206001018190555086600760008b67ffffffffffffffff1667ffffffffffffffff168152602001908152602001600020600001819055508383600760008c67ffffffffffffffff1667ffffffffffffffff168152602001908152602001600020600301919061179b9291906146bf565b5087600860008b67ffffffffffffffff1667ffffffffffffffff16815260200190815260200160002060006101000a81548173ffffffffffffffffffffffffffffffffffffffff021916908373ffffffffffffffffffffffffffffffffffffffff1602179055506001905098975050505050505050565b7f000000000000000000000000000000000000000000000000000000000000000081565b60008061184161239d565b9050600061184f8286612135565b905083811015611894576040517f08c379a000000000000000000000000000000000000000000000000000000000815260040161188b9061616f565b60405180910390fd5b6118a182868684036123a5565b60019250505092915050565b60086020528060005260406000206000915054906101000a900473ffffffffffffffffffffffffffffffffffffffff1681565b6000806118eb61239d565b90506118f88185856125fa565b600191505092915050565b60066020528160005260406000206020528060005260406000206000915091509054906101000a900460ff1681565b60008073ffffffffffffffffffffffffffffffffffffffff16600860008967ffffffffffffffff1667ffffffffffffffff16815260200190815260200160002060009054906101000a900473ffffffffffffffffffffffffffffffffffffffff1673ffffffffffffffffffffffffffffffffffffffff16036119e9576040517f08c379a00000000000000000000000000000000000000000000000000000000081526004016119e090616201565b60405180910390fd5b6000600760008967ffffffffffffffff1667ffffffffffffffff1681526020019081526020016000206004015403611a56576040517f08c379a0000000000000000000000000000000000000000000000000000000008152600401611a4d90616293565b60405180910390fd5b611ae987878780806020026020016040519081016040528093929190818152602001838360200280828437600081840152601f19601f82011690508083019250505050505050600860008b67ffffffffffffffff1667ffffffffffffffff16815260200190815260200160002060009054906101000a900473ffffffffffffffffffffffffffffffffffffffff166131a7565b600860008867ffffffffffffffff1667ffffffffffffffff16815260200190815260200160002060009054906101000a900473ffffffffffffffffffffffffffffffffffffffff1673ffffffffffffffffffffffffffffffffffffffff1663434661ef8787878787600760008f67ffffffffffffffff1667ffffffffffffffff168152602001908152602001600020600401546040518763ffffffff1660e01b8152600401611b9d969594939291906163de565b602060405180830381865afa158015611bba573d6000803e3d6000fd5b505050506040513d601f19601f82011682018060405250810190611bde9190616468565b611c1d576040517f08c379a0000000000000000000000000000000000000000000000000000000008152600401611c14906164e1565b60405180910390fd5b6001600660003373ffffffffffffffffffffffffffffffffffffffff1673ffffffffffffffffffffffffffffffffffffffff16815260200190815260200160002060008967ffffffffffffffff1667ffffffffffffffff16815260200190815260200160002060006101000a81548160ff021916908315150217905550611d2d87878780806020026020016040519081016040528093929190818152602001838360200280828437600081840152601f19601f82011690508083019250505050505050600860008b67ffffffffffffffff1667ffffffffffffffff16815260200190815260200160002060009054906101000a900473ffffffffffffffffffffffffffffffffffffffff166132b7565b600190509695505050505050565b7f000000000000000000000000000000000000000000000000000000000000000081565b83421115611da2576040517f08c379a0000000000000000000000000000000000000000000000000000000008152600401611d999061654d565b60405180910390fd5b6000611e04611dfc7fe48329057bfd03d55e49b547132e39cffd9c1820ad7b9d4c5307691425d15adf898989604051602001611de1949392919061656d565b604051602081830303815290604052805190602001206134f8565b858585613512565b9050611e0f8161353d565b8614611e50576040517f08c379a0000000000000000000000000000000000000000000000000000000008152600401611e47906165fe565b60405180910390fd5b611e5a8188612da5565b50505050505050565b611e6b61470c565b600760008367ffffffffffffffff1667ffffffffffffffff1681526020019081526020016000206040518060c001604052908160008201548152602001600182015481526020016002820154815260200160038201805480602002602001604051908101604052809291908181526020018280548015611f0a57602002820191906000526020600020905b815481526020019060010190808311611ef6575b5050505050815260200160048201548152602001600582018054611f2d90615a5d565b80601f0160208091040260200160405190810160405280929190818152602001828054611f5990615a5d565b8015611fa65780601f10611f7b57610100808354040283529160200191611fa6565b820191906000526020600020905b815481529060010190602001808311611f8957829003601f168201915b5050505050815250509050919050565b600281565b60146020528060005260406000206000915090505481565b83421115612016576040517f08c379a000000000000000000000000000000000000000000000000000000000815260040161200d9061666a565b60405180910390fd5b60007f6e71edae12b1b97f4d1f60370fef10105fa2faae0126114a169c64845d6126c98888886120458c61353d565b8960405160200161205b9695949392919061668a565b604051602081830303815290604052805190602001209050600061207e826134f8565b9050600061208e82878787613512565b90508973ffffffffffffffffffffffffffffffffffffffff168173ffffffffffffffffffffffffffffffffffffffff16146120fe576040517f08c379a00000000000000000000000000000000000000000000000000000000081526004016120f590616737565b60405180910390fd5b6121098a8a8a6123a5565b50505050505050505050565b60116020528060005260406000206000915054906101000a900460ff1681565b6000600260008473ffffffffffffffffffffffffffffffffffffffff1673ffffffffffffffffffffffffffffffffffffffff16815260200190815260200160002060008373ffffffffffffffffffffffffffffffffffffffff1673ffffffffffffffffffffffffffffffffffffffff16815260200190815260200160002054905092915050565b6121c4614742565b600f60008473ffffffffffffffffffffffffffffffffffffffff1673ffffffffffffffffffffffffffffffffffffffff1681526020019081526020016000208263ffffffff168154811061221b5761221a615bc9565b5b906000526020600020016040518060400160405290816000820160009054906101000a900463ffffffff1663ffffffff1663ffffffff1681526020016000820160049054906101000a90047bffffffffffffffffffffffffffffffffffffffffffffffffffffffff167bffffffffffffffffffffffffffffffffffffffffffffffffffffffff167bffffffffffffffffffffffffffffffffffffffffffffffffffffffff1681525050905092915050565b6122d4612f12565b600073ffffffffffffffffffffffffffffffffffffffff168173ffffffffffffffffffffffffffffffffffffffff1603612343576040517f08c379a000000000000000000000000000000000000000000000000000000000815260040161233a906167c9565b60405180910390fd5b61234c81612f90565b50565b600060208351101561236b576123648361359b565b905061238d565b8261237583612393565b6000019081612384919061602b565b5060ff60001b90505b92915050565b6000819050919050565b600033905090565b600073ffffffffffffffffffffffffffffffffffffffff168373ffffffffffffffffffffffffffffffffffffffff1603612414576040517f08c379a000000000000000000000000000000000000000000000000000000000815260040161240b9061685b565b60405180910390fd5b600073ffffffffffffffffffffffffffffffffffffffff168273ffffffffffffffffffffffffffffffffffffffff1603612483576040517f08c379a000000000000000000000000000000000000000000000000000000000815260040161247a906168ed565b60405180910390fd5b80600260008573ffffffffffffffffffffffffffffffffffffffff1673ffffffffffffffffffffffffffffffffffffffff16815260200190815260200160002060008473ffffffffffffffffffffffffffffffffffffffff1673ffffffffffffffffffffffffffffffffffffffff168152602001908152602001600020819055508173ffffffffffffffffffffffffffffffffffffffff168373ffffffffffffffffffffffffffffffffffffffff167f8c5be1e5ebec7d5bd14f71427d1e84f3dd0314c0f7b2291e5b200ac8c7c3b925836040516125619190614aa2565b60405180910390a3505050565b600061257a8484612135565b90507fffffffffffffffffffffffffffffffffffffffffffffffffffffffffffffffff81146125f457818110156125e6576040517f08c379a00000000000000000000000000000000000000000000000000000000081526004016125dd90616959565b60405180910390fd5b6125f384848484036123a5565b5b50505050565b600073ffffffffffffffffffffffffffffffffffffffff168373ffffffffffffffffffffffffffffffffffffffff1603612669576040517f08c379a0000000000000000000000000000000000000000000000000000000008152600401612660906169eb565b60405180910390fd5b600073ffffffffffffffffffffffffffffffffffffffff168273ffffffffffffffffffffffffffffffffffffffff16036126d8576040517f08c379a00000000000000000000000000000000000000000000000000000000081526004016126cf90616a7d565b60405180910390fd5b6126e3838383613603565b6000600160008573ffffffffffffffffffffffffffffffffffffffff1673ffffffffffffffffffffffffffffffffffffffff1681526020019081526020016000205490508181101561276a576040517f08c379a000000000000000000000000000000000000000000000000000000000815260040161276190616b0f565b60405180910390fd5b818103600160008673ffffffffffffffffffffffffffffffffffffffff1673ffffffffffffffffffffffffffffffffffffffff1681526020019081526020016000208190555081600160008573ffffffffffffffffffffffffffffffffffffffff1673ffffffffffffffffffffffffffffffffffffffff168152602001908152602001600020600082825401925050819055508273ffffffffffffffffffffffffffffffffffffffff168473ffffffffffffffffffffffffffffffffffffffff167fddf252ad1be2c89b69c2b068fc378daa952ba7f163c4a11628f55a4df523b3ef8460405161285a9190614aa2565b60405180910390a361286d848484613608565b50505050565b60007f000000000000000000000000000000000000000000000000000000000000000073ffffffffffffffffffffffffffffffffffffffff163073ffffffffffffffffffffffffffffffffffffffff161480156128ef57507f000000000000000000000000000000000000000000000000000000000000000046145b1561291c577f00000000000000000000000000000000000000000000000000000000000000009050612927565b612924613618565b90505b90565b6000808380549050905060008082905060058311156129a057600061294e846136ae565b846129599190616b2f565b90508561296688836137a7565b60000160009054906101000a900463ffffffff1663ffffffff16111561298e5780915061299e565b60018161299b9190615abd565b92505b505b5b80821015612a005760006129b583836137bc565b9050856129c288836137a7565b60000160009054906101000a900463ffffffff1663ffffffff1611156129ea578091506129fa565b6001816129f79190615abd565b92505b506129a1565b60008114612a4657612a1586600183036137a7565b60000160049054906101000a90047bffffffffffffffffffffffffffffffffffffffffffffffffffffffff16612a49565b60005b7bffffffffffffffffffffffffffffffffffffffffffffffffffffffff16935050505092915050565b612a7a614780565b7f000000000000000000000000000000000000000000000000000000000000000073ffffffffffffffffffffffffffffffffffffffff16633a0ba6ff836040518263ffffffff1660e01b8152600401612ad39190616bda565b600060405180830381865afa158015612af0573d6000803e3d6000fd5b505050506040513d6000823e3d601f19601f82011682018060405250810190612b199190616d50565b9050919050565b612b286147ce565b7f000000000000000000000000000000000000000000000000000000000000000073ffffffffffffffffffffffffffffffffffffffff16636835f32c836040518263ffffffff1660e01b8152600401612b819190616dee565b600060405180830381865afa158015612b9e573d6000803e3d6000fd5b505050506040513d6000823e3d601f19601f82011682018060405250810190612bc79190616eac565b9050919050565b612bd66147f1565b600084806020019051810190612bec9190617522565b90506000612bfa85856137e2565b90507f000000000000000000000000000000000000000000000000000000000000000073ffffffffffffffffffffffffffffffffffffffff166312b037ff8383612c42610f2f565b6040518463ffffffff1660e01b8152600401612c6093929190617dd9565b6000604051808303816000875af1158015612c7f573d6000803e3d6000fd5b505050506040513d6000823e3d601f19601f82011682018060405250810190612ca89190618284565b925050509392505050565b600080600090505b836060015151811015612d5357826005811115612cdb57612cda616b63565b5b84606001518281518110612cf257612cf1615bc9565b5b6020026020010151600001516005811115612d1057612d0f616b63565b5b03612d405783606001518181518110612d2c57612d2b615bc9565b5b602002602001015160400151915050612d91565b8080612d4b906182cd565b915050612cbb565b50816040517f267ac2cf000000000000000000000000000000000000000000000000000000008152600401612d889190616bda565b60405180910390fd5b92915050565b612da18282613893565b5050565b6000612db083610df6565b90506000612dbd84610ed2565b905082600e60008673ffffffffffffffffffffffffffffffffffffffff1673ffffffffffffffffffffffffffffffffffffffff16815260200190815260200160002060006101000a81548173ffffffffffffffffffffffffffffffffffffffff021916908373ffffffffffffffffffffffffffffffffffffffff1602179055508273ffffffffffffffffffffffffffffffffffffffff168273ffffffffffffffffffffffffffffffffffffffff168573ffffffffffffffffffffffffffffffffffffffff167f3134e8a2e6d97e929a7e54011ea5485d7d196dd5f0ba4d4ef95803e8e3fc257f60405160405180910390a4612eb9828483613920565b50505050565b600063ffffffff8016821115612f0a576040517f08c379a0000000000000000000000000000000000000000000000000000000008152600401612f0190618387565b60405180910390fd5b819050919050565b612f1a61239d565b73ffffffffffffffffffffffffffffffffffffffff16612f386110d8565b73ffffffffffffffffffffffffffffffffffffffff1614612f8e576040517f08c379a0000000000000000000000000000000000000000000000000000000008152600401612f85906183f3565b60405180910390fd5b565b60008060009054906101000a900473ffffffffffffffffffffffffffffffffffffffff169050816000806101000a81548173ffffffffffffffffffffffffffffffffffffffff021916908373ffffffffffffffffffffffffffffffffffffffff1602179055508173ffffffffffffffffffffffffffffffffffffffff168173ffffffffffffffffffffffffffffffffffffffff167f8be0079c531659141344cd1fd0a4f28419497f9722a3daafe3b4186f6b6457e060405160405180910390a35050565b61305c61468c565b6040518060400160405280846fffffffffffffffffffffffffffffffff1916815260200161308984613b19565b815250905092915050565b600081600001549050919050565b606060ff60001b83146130bf576130b883613b39565b905061314c565b8180546130cb90615a5d565b80601f01602080910402602001604051908101604052809291908181526020018280546130f790615a5d565b80156131445780601f1061311957610100808354040283529160200191613144565b820191906000526020600020905b81548152906001019060200180831161312757829003601f168201915b505050505090505b92915050565b600065ffffffffffff801682111561319f576040517f08c379a000000000000000000000000000000000000000000000000000000000815260040161319690618485565b60405180910390fd5b819050919050565b600061323a838373ffffffffffffffffffffffffffffffffffffffff16639f442afa6040518163ffffffff1660e01b8152600401602060405180830381865afa1580156131f8573d6000803e3d6000fd5b505050506040513d601f19601f8201168201806040525081019061321c9190615cac565b8151811061322d5761322c615bc9565b5b6020026020010151613bad565b90508073ffffffffffffffffffffffffffffffffffffffff1661325b61239d565b73ffffffffffffffffffffffffffffffffffffffff16146132b1576040517f08c379a00000000000000000000000000000000000000000000000000000000081526004016132a890618517565b60405180910390fd5b50505050565b600167ffffffffffffffff168367ffffffffffffffff1614801561332157506000601460006132e461239d565b73ffffffffffffffffffffffffffffffffffffffff1673ffffffffffffffffffffffffffffffffffffffff16815260200190815260200160002054145b613360576040517f08c379a0000000000000000000000000000000000000000000000000000000008152600401613357906185a9565b60405180910390fd5b60008260018151811061337657613375615bc9565b5b60200260200101519050600073ffffffffffffffffffffffffffffffffffffffff166013600083815260200190815260200160002060009054906101000a900473ffffffffffffffffffffffffffffffffffffffff1673ffffffffffffffffffffffffffffffffffffffff1614801561343557506000601460006133f861239d565b73ffffffffffffffffffffffffffffffffffffffff1673ffffffffffffffffffffffffffffffffffffffff16815260200190815260200160002054145b156134f25761344d61344561239d565b601554613893565b806014600061345a61239d565b73ffffffffffffffffffffffffffffffffffffffff1673ffffffffffffffffffffffffffffffffffffffff168152602001908152602001600020819055506134a061239d565b6013600083815260200190815260200160002060006101000a81548173ffffffffffffffffffffffffffffffffffffffff021916908373ffffffffffffffffffffffffffffffffffffffff1602179055505b50505050565b600061350b613505612873565b83613bcf565b9050919050565b600080600061352387878787613c10565b9150915061353081613cf2565b8192505050949350505050565b600080600c60008473ffffffffffffffffffffffffffffffffffffffff1673ffffffffffffffffffffffffffffffffffffffff168152602001908152602001600020905061358a81613094565b915061359581613e58565b50919050565b600080829050601f815111156135e857826040517f305a27a90000000000000000000000000000000000000000000000000000000081526004016135df9190614953565b60405180910390fd5b8051816135f4906185ee565b60001c1760001b915050919050565b505050565b613613838383613e6e565b505050565b60007f8b73c3c69bb8fe3d512ecc4cf759cc79239f7b179b0ffacaa9a75d522b39400f7f00000000000000000000000000000000000000000000000000000000000000007f00000000000000000000000000000000000000000000000000000000000000004630604051602001613693959493929190618655565b60405160208183030381529060405280519060200120905090565b60008082036136c057600090506137a2565b600060016136cd84613e99565b901c6001901b905060018184816136e7576136e66186a8565b5b048201901c90506001818481613700576136ff6186a8565b5b048201901c90506001818481613719576137186186a8565b5b048201901c90506001818481613732576137316186a8565b5b048201901c9050600181848161374b5761374a6186a8565b5b048201901c90506001818481613764576137636186a8565b5b048201901c9050600181848161377d5761377c6186a8565b5b048201901c905061379e81828581613798576137976186a8565b5b04613f7a565b9150505b919050565b60008260005281602060002001905092915050565b600060028284186137cd91906186d7565b8284166137da9190615abd565b905092915050565b6137ea614850565b7f000000000000000000000000000000000000000000000000000000000000000073ffffffffffffffffffffffffffffffffffffffff166348fd24cc84846040518363ffffffff1660e01b81526004016138459291906187e8565b600060405180830381865afa158015613862573d6000803e3d6000fd5b505050506040513d6000823e3d601f19601f8201168201806040525081019061388b9190618b7d565b905092915050565b61389d8282613f93565b6138a56140ea565b7bffffffffffffffffffffffffffffffffffffffffffffffffffffffff166138cb610a6d565b111561390c576040517f08c379a000000000000000000000000000000000000000000000000000000000815260040161390390618c38565b60405180910390fd5b61391a601061410e83614124565b50505050565b8173ffffffffffffffffffffffffffffffffffffffff168373ffffffffffffffffffffffffffffffffffffffff161415801561395c5750600081115b15613b1457600073ffffffffffffffffffffffffffffffffffffffff168373ffffffffffffffffffffffffffffffffffffffff1614613a3a576000806139e3600f60008773ffffffffffffffffffffffffffffffffffffffff1673ffffffffffffffffffffffffffffffffffffffff1681526020019081526020016000206143ff85614124565b915091508473ffffffffffffffffffffffffffffffffffffffff167fdec2bacdd2f05b59de34da9b523dff8be42e5e38e818c82fdb0bae774387a7248383604051613a2f929190618c58565b60405180910390a250505b600073ffffffffffffffffffffffffffffffffffffffff168273ffffffffffffffffffffffffffffffffffffffff1614613b1357600080613abc600f60008673ffffffffffffffffffffffffffffffffffffffff1673ffffffffffffffffffffffffffffffffffffffff16815260200190815260200160002061410e85614124565b915091508373ffffffffffffffffffffffffffffffffffffffff167fdec2bacdd2f05b59de34da9b523dff8be42e5e38e818c82fdb0bae774387a7248383604051613b08929190618c58565b60405180910390a250505b5b505050565b613b21614891565b60405180602001604052808315158152509050919050565b60606000613b4683614415565b90506000602067ffffffffffffffff811115613b6557613b64614cd0565b5b6040519080825280601f01601f191660200182016040528015613b975781602001600182028036833780820191505090505b5090508181528360208201528092505050919050565b6000613bc8613bc3613bbe84614465565b6145b1565b61460e565b9050919050565b60006040517f190100000000000000000000000000000000000000000000000000000000000081528360028201528260228201526042812091505092915050565b6000807f7fffffffffffffffffffffffffffffff5d576e7357a4501ddfe92f46681b20a08360001c1115613c4b576000600391509150613ce9565b600060018787878760405160008152602001604052604051613c709493929190618c81565b6020604051602081039080840390855afa158015613c92573d6000803e3d6000fd5b505050602060405103519050600073ffffffffffffffffffffffffffffffffffffffff168173ffffffffffffffffffffffffffffffffffffffff1603613ce057600060019250925050613ce9565b80600092509250505b94509492505050565b60006004811115613d0657613d05616b63565b5b816004811115613d1957613d18616b63565b5b0315613e555760016004811115613d3357613d32616b63565b5b816004811115613d4657613d45616b63565b5b03613d86576040517f08c379a0000000000000000000000000000000000000000000000000000000008152600401613d7d90618d12565b60405180910390fd5b60026004811115613d9a57613d99616b63565b5b816004811115613dad57613dac616b63565b5b03613ded576040517f08c379a0000000000000000000000000000000000000000000000000000000008152600401613de490618d7e565b60405180910390fd5b60036004811115613e0157613e00616b63565b5b816004811115613e1457613e13616b63565b5b03613e54576040517f08c379a0000000000000000000000000000000000000000000000000000000008152600401613e4b90618e10565b60405180910390fd5b5b50565b6001816000016000828254019250508190555050565b613e7983838361461c565b613e94613e8584610df6565b613e8e84610df6565b83613920565b505050565b600080600090506000608084901c1115613ebb57608083901c92506080810190505b6000604084901c1115613ed657604083901c92506040810190505b6000602084901c1115613ef157602083901c92506020810190505b6000601084901c1115613f0c57601083901c92506010810190505b6000600884901c1115613f2757600883901c92506008810190505b6000600484901c1115613f4257600483901c92506004810190505b6000600284901c1115613f5d57600283901c92506002810190505b6000600184901c1115613f71576001810190505b80915050919050565b6000818310613f895781613f8b565b825b905092915050565b600073ffffffffffffffffffffffffffffffffffffffff168273ffffffffffffffffffffffffffffffffffffffff1603614002576040517f08c379a0000000000000000000000000000000000000000000000000000000008152600401613ff990618e7c565b60405180910390fd5b61400e60008383613603565b80600360008282546140209190615abd565b9250508190555080600160008473ffffffffffffffffffffffffffffffffffffffff1673ffffffffffffffffffffffffffffffffffffffff168152602001908152602001600020600082825401925050819055508173ffffffffffffffffffffffffffffffffffffffff16600073ffffffffffffffffffffffffffffffffffffffff167fddf252ad1be2c89b69c2b068fc378daa952ba7f163c4a11628f55a4df523b3ef836040516140d29190614aa2565b60405180910390a36140e660008383613608565b5050565b60007bffffffffffffffffffffffffffffffffffffffffffffffffffffffff905090565b6000818361411c9190615abd565b905092915050565b60008060008580549050905060008082146141ea5761414687600184036137a7565b6040518060400160405290816000820160009054906101000a900463ffffffff1663ffffffff1663ffffffff1681526020016000820160049054906101000a90047bffffffffffffffffffffffffffffffffffffffffffffffffffffffff167bffffffffffffffffffffffffffffffffffffffffffffffffffffffff167bffffffffffffffffffffffffffffffffffffffffffffffffffffffff1681525050614226565b6040518060400160405280600063ffffffff16815260200160007bffffffffffffffffffffffffffffffffffffffffffffffffffffffff168152505b905080602001517bffffffffffffffffffffffffffffffffffffffffffffffffffffffff16935061425b84868863ffffffff16565b92506000821180156142855750614270611166565b65ffffffffffff16816000015163ffffffff16145b156142f65761429383614621565b6142a088600185036137a7565b60000160046101000a8154817bffffffffffffffffffffffffffffffffffffffffffffffffffffffff02191690837bffffffffffffffffffffffffffffffffffffffffffffffffffffffff1602179055506143f5565b86604051806040016040528061431a61430d611166565b65ffffffffffff16612ebf565b63ffffffff16815260200161432e86614621565b7bffffffffffffffffffffffffffffffffffffffffffffffffffffffff168152509080600181540180825580915050600190039060005260206000200160009091909190915060008201518160000160006101000a81548163ffffffff021916908363ffffffff16021790555060208201518160000160046101000a8154817bffffffffffffffffffffffffffffffffffffffffffffffffffffffff02191690837bffffffffffffffffffffffffffffffffffffffffffffffffffffffff16021790555050505b5050935093915050565b6000818361440d9190616b2f565b905092915050565b60008060ff8360001c169050601f81111561445c576040517fb3512b0c00000000000000000000000000000000000000000000000000000000815260040160405180910390fd5b80915050919050565b600081905060087eff00ff00ff00ff00ff00ff00ff00ff00ff00ff00ff00ff00ff00ff00ff00ff8216901b60087fff00ff00ff00ff00ff00ff00ff00ff00ff00ff00ff00ff00ff00ff00ff00ff008316901c17905060107dffff0000ffff0000ffff0000ffff0000ffff0000ffff0000ffff0000ffff8216901b60107fffff0000ffff0000ffff0000ffff0000ffff0000ffff0000ffff0000ffff00008316901c17905060207bffffffff00000000ffffffff00000000ffffffff00000000ffffffff8216901b60207fffffffff00000000ffffffff00000000ffffffff00000000ffffffff000000008316901c179050604077ffffffffffffffff0000000000000000ffffffffffffffff8216901b60407fffffffffffffffff0000000000000000ffffffffffffffff00000000000000008316901c179050608081901b608082901c179050919050565b6060602067ffffffffffffffff8111156145ce576145cd614cd0565b5b6040519080825280601f01601f1916602001820160405280156146005781602001600182028036833780820191505090505b509050816020820152919050565b600060148201519050919050565b505050565b60007bffffffffffffffffffffffffffffffffffffffffffffffffffffffff8016821115614684576040517f08c379a000000000000000000000000000000000000000000000000000000000815260040161467b90618f0e565b60405180910390fd5b819050919050565b604051806040016040528060006fffffffffffffffffffffffffffffffff191681526020016146b9614891565b81525090565b8280548282559060005260206000209081019282156146fb579160200282015b828111156146fa5782358255916020019190600101906146df565b5b50905061470891906148a6565b5090565b6040518060c001604052806000815260200160008152602001600081526020016060815260200160008152602001606081525090565b6040518060400160405280600063ffffffff16815260200160007bffffffffffffffffffffffffffffffffffffffffffffffffffffffff1681525090565b6040518060c001604052806000600581111561479f5761479e616b63565b5b815260200160008152602001600015158152602001600015158152602001600015158152602001606081525090565b604051806060016040528060608152602001600015158152602001606081525090565b6040518060c0016040528060006fffffffffffffffffffffffffffffffff1916815260200160006fffffffffffffffffffffffffffffffff19168152602001600080191681526020016060815260200160608152602001606081525090565b604051806080016040528060006fffffffffffffffffffffffffffffffff19168152602001606081526020016060815260200161488b6147ce565b81525090565b60405180602001604052806000151581525090565b5b808211156148bf5760008160009055506001016148a7565b5090565b600081519050919050565b600082825260208201905092915050565b60005b838110156148fd5780820151818401526020810190506148e2565b60008484015250505050565b6000601f19601f8301169050919050565b6000614925826148c3565b61492f81856148ce565b935061493f8185602086016148df565b61494881614909565b840191505092915050565b6000602082019050818103600083015261496d818461491a565b905092915050565b6000604051905090565b600080fd5b600080fd5b600073ffffffffffffffffffffffffffffffffffffffff82169050919050565b60006149b482614989565b9050919050565b6149c4816149a9565b81146149cf57600080fd5b50565b6000813590506149e1816149bb565b92915050565b6000819050919050565b6149fa816149e7565b8114614a0557600080fd5b50565b600081359050614a17816149f1565b92915050565b60008060408385031215614a3457614a3361497f565b5b6000614a42858286016149d2565b9250506020614a5385828601614a08565b9150509250929050565b60008115159050919050565b614a7281614a5d565b82525050565b6000602082019050614a8d6000830184614a69565b92915050565b614a9c816149e7565b82525050565b6000602082019050614ab76000830184614a93565b92915050565b600080600060608486031215614ad657614ad561497f565b5b6000614ae4868287016149d2565b9350506020614af5868287016149d2565b9250506040614b0686828701614a08565b9150509250925092565b600060208284031215614b2657614b2561497f565b5b6000614b3484828501614a08565b91505092915050565b614b46816149a9565b82525050565b6000602082019050614b616000830184614b3d565b92915050565b600060ff82169050919050565b614b7d81614b67565b82525050565b6000602082019050614b986000830184614b74565b92915050565b6000819050919050565b614bb181614b9e565b82525050565b6000602082019050614bcc6000830184614ba8565b92915050565b600081519050919050565b600082825260208201905092915050565b6000819050602082019050919050565b600067ffffffffffffffff82169050919050565b614c1b81614bfe565b82525050565b6000614c2d8383614c12565b60208301905092915050565b6000602082019050919050565b6000614c5182614bd2565b614c5b8185614bdd565b9350614c6683614bee565b8060005b83811015614c97578151614c7e8882614c21565b9750614c8983614c39565b925050600181019050614c6a565b5085935050505092915050565b60006020820190508181036000830152614cbe8184614c46565b905092915050565b600080fd5b600080fd5b7f4e487b7100000000000000000000000000000000000000000000000000000000600052604160045260246000fd5b614d0882614909565b810181811067ffffffffffffffff82111715614d2757614d26614cd0565b5b80604052505050565b6000614d3a614975565b9050614d468282614cff565b919050565b600067ffffffffffffffff821115614d6657614d65614cd0565b5b614d6f82614909565b9050602081019050919050565b82818337600083830152505050565b6000614d9e614d9984614d4b565b614d30565b905082815260208101848484011115614dba57614db9614ccb565b5b614dc5848285614d7c565b509392505050565b600082601f830112614de257614de1614cc6565b5b8135614df2848260208601614d8b565b91505092915050565b600060208284031215614e1157614e1061497f565b5b600082013567ffffffffffffffff811115614e2f57614e2e614984565b5b614e3b84828501614dcd565b91505092915050565b6000819050919050565b6000614e69614e64614e5f84614989565b614e44565b614989565b9050919050565b6000614e7b82614e4e565b9050919050565b6000614e8d82614e70565b9050919050565b614e9d81614e82565b82525050565b6000602082019050614eb86000830184614e94565b92915050565b600060208284031215614ed457614ed361497f565b5b6000614ee2848285016149d2565b91505092915050565b614ef481614bfe565b82525050565b6000602082019050614f0f6000830184614eeb565b92915050565b600063ffffffff82169050919050565b614f2e81614f15565b82525050565b6000602082019050614f496000830184614f25565b92915050565b60007fffffffffffffffffffffffffffffffff0000000000000000000000000000000082169050919050565b614f8481614f4f565b82525050565b614f9381614a5d565b82525050565b602082016000820151614faf6000850182614f8a565b50505050565b604082016000820151614fcb6000850182614f7b565b506020820151614fde6020850182614f99565b50505050565b6000604082019050614ff96000830184614fb5565b92915050565b60007fff0000000000000000000000000000000000000000000000000000000000000082169050919050565b61503481614fff565b82525050565b600081519050919050565b600082825260208201905092915050565b6000819050602082019050919050565b61506f816149e7565b82525050565b60006150818383615066565b60208301905092915050565b6000602082019050919050565b60006150a58261503a565b6150af8185615045565b93506150ba83615056565b8060005b838110156150eb5781516150d28882615075565b97506150dd8361508d565b9250506001810190506150be565b5085935050505092915050565b600060e08201905061510d600083018a61502b565b818103602083015261511f818961491a565b90508181036040830152615133818861491a565b90506151426060830187614a93565b61514f6080830186614b3d565b61515c60a0830185614ba8565b81810360c083015261516e818461509a565b905098975050505050505050565b600065ffffffffffff82169050919050565b6151978161517c565b82525050565b60006020820190506151b2600083018461518e565b92915050565b6151c181614bfe565b81146151cc57600080fd5b50565b6000813590506151de816151b8565b92915050565b6000602082840312156151fa576151f961497f565b5b6000615208848285016151cf565b91505092915050565b600060a0820190506152266000830188614a93565b6152336020830187614a93565b6152406040830186614a93565b61524d6060830185614a93565b818103608083015261525f818461491a565b90509695505050505050565b6000615276826149a9565b9050919050565b6152868161526b565b811461529157600080fd5b50565b6000813590506152a38161527d565b92915050565b600080fd5b600080fd5b60008083601f8401126152c9576152c8614cc6565b5b8235905067ffffffffffffffff8111156152e6576152e56152a9565b5b602083019150836020820283011115615302576153016152ae565b5b9250929050565b600080600080600080600060c0888a0312156153285761532761497f565b5b60006153368a828b016151cf565b97505060206153478a828b01615294565b96505060406153588a828b01614a08565b95505060606153698a828b01614a08565b945050608061537a8a828b01614a08565b93505060a088013567ffffffffffffffff81111561539b5761539a614984565b5b6153a78a828b016152b3565b925092505092959891949750929550565b60008060008060008060008060e0898b0312156153d8576153d761497f565b5b60006153e68b828c016151cf565b98505060206153f78b828c01615294565b97505060406154088b828c01614a08565b96505060606154198b828c01614a08565b955050608061542a8b828c01614a08565b94505060a089013567ffffffffffffffff81111561544b5761544a614984565b5b6154578b828c016152b3565b935093505060c061546a8b828c01614a08565b9150509295985092959890939650565b600061548582614e70565b9050919050565b6154958161547a565b82525050565b60006020820190506154b0600083018461548c565b92915050565b600080604083850312156154cd576154cc61497f565b5b60006154db858286016149d2565b92505060206154ec858286016151cf565b9150509250929050565b600081905082602060020282011115615512576155116152ae565b5b92915050565b600081905082604060020282011115615534576155336152ae565b5b92915050565b60008060008060008061014087890312156155585761555761497f565b5b600061556689828a016151cf565b965050602087013567ffffffffffffffff81111561558757615586614984565b5b61559389828a016152b3565b955095505060406155a689828a016154f6565b93505060806155b789828a01615518565b9250506101006155c989828a016154f6565b9150509295509295509295565b6155df81614f4f565b82525050565b60006020820190506155fa60008301846155d6565b92915050565b61560981614b67565b811461561457600080fd5b50565b60008135905061562681615600565b92915050565b61563581614b9e565b811461564057600080fd5b50565b6000813590506156528161562c565b92915050565b60008060008060008060c087890312156156755761567461497f565b5b600061568389828a016149d2565b965050602061569489828a01614a08565b95505060406156a589828a01614a08565b94505060606156b689828a01615617565b93505060806156c789828a01615643565b92505060a06156d889828a01615643565b9150509295509295509295565b600082825260208201905092915050565b60006157018261503a565b61570b81856156e5565b935061571683615056565b8060005b8381101561574757815161572e8882615075565b97506157398361508d565b92505060018101905061571a565b5085935050505092915050565b600082825260208201905092915050565b6000615770826148c3565b61577a8185615754565b935061578a8185602086016148df565b61579381614909565b840191505092915050565b600060c0830160008301516157b66000860182615066565b5060208301516157c96020860182615066565b5060408301516157dc6040860182615066565b50606083015184820360608601526157f482826156f6565b91505060808301516158096080860182615066565b5060a083015184820360a08601526158218282615765565b9150508091505092915050565b60006020820190508181036000830152615848818461579e565b905092915050565b600080600080600080600060e0888a03121561586f5761586e61497f565b5b600061587d8a828b016149d2565b975050602061588e8a828b016149d2565b965050604061589f8a828b01614a08565b95505060606158b08a828b01614a08565b94505060806158c18a828b01615617565b93505060a06158d28a828b01615643565b92505060c06158e38a828b01615643565b91505092959891949750929550565b600080604083850312156159095761590861497f565b5b6000615917858286016149d2565b9250506020615928858286016149d2565b9150509250929050565b61593b81614f15565b811461594657600080fd5b50565b60008135905061595881615932565b92915050565b600080604083850312156159755761597461497f565b5b6000615983858286016149d2565b925050602061599485828601615949565b9150509250929050565b6159a781614f15565b82525050565b60007bffffffffffffffffffffffffffffffffffffffffffffffffffffffff82169050919050565b6159de816159ad565b82525050565b6040820160008201516159fa600085018261599e565b506020820151615a0d60208501826159d5565b50505050565b6000604082019050615a2860008301846159e4565b92915050565b7f4e487b7100000000000000000000000000000000000000000000000000000000600052602260045260246000fd5b60006002820490506001821680615a7557607f821691505b602082108103615a8857615a87615a2e565b5b50919050565b7f4e487b7100000000000000000000000000000000000000000000000000000000600052601160045260246000fd5b6000615ac8826149e7565b9150615ad3836149e7565b9250828201905080821115615aeb57615aea615a8e565b5b92915050565b7f4552433230566f7465733a20667574757265206c6f6f6b757000000000000000600082015250565b6000615b276019836148ce565b9150615b3282615af1565b602082019050919050565b60006020820190508181036000830152615b5681615b1a565b9050919050565b7f4552433230566f7465733a2062726f6b656e20636c6f636b206d6f6465000000600082015250565b6000615b93601d836148ce565b9150615b9e82615b5d565b602082019050919050565b60006020820190508181036000830152615bc281615b86565b9050919050565b7f4e487b7100000000000000000000000000000000000000000000000000000000600052603260045260246000fd5b600082825260208201905092915050565b600080fd5b82818337505050565b6000615c238385615bf8565b93507f07ffffffffffffffffffffffffffffffffffffffffffffffffffffffffffffff831115615c5657615c55615c09565b5b602083029250615c67838584615c0e565b82840190509392505050565b60006020820190508181036000830152615c8e818486615c17565b90509392505050565b600081519050615ca6816149f1565b92915050565b600060208284031215615cc257615cc161497f565b5b6000615cd084828501615c97565b91505092915050565b600060069050919050565b600081905092915050565b6000819050919050565b615d02816149e7565b82525050565b6000615d148383615cf9565b60208301905092915050565b6000602082019050919050565b615d3681615cd9565b615d408184615ce4565b9250615d4b82615cef565b8060005b83811015615d7c578151615d638782615d08565b9650615d6e83615d20565b925050600181019050615d4f565b505050505050565b600060c082019050615d996000830184615d2d565b92915050565b600067ffffffffffffffff821115615dba57615db9614cd0565b5b615dc382614909565b9050602081019050919050565b6000615de3615dde84615d9f565b614d30565b905082815260208101848484011115615dff57615dfe614ccb565b5b615e0a8482856148df565b509392505050565b600082601f830112615e2757615e26614cc6565b5b8151615e37848260208601615dd0565b91505092915050565b600060208284031215615e5657615e5561497f565b5b600082015167ffffffffffffffff811115615e7457615e73614984565b5b615e8084828501615e12565b91505092915050565b60008190508160005260206000209050919050565b60006020601f8301049050919050565b600082821b905092915050565b600060088302615eeb7fffffffffffffffffffffffffffffffffffffffffffffffffffffffffffffffff82615eae565b615ef58683615eae565b95508019841693508086168417925050509392505050565b6000615f28615f23615f1e846149e7565b614e44565b6149e7565b9050919050565b6000819050919050565b615f4283615f0d565b615f56615f4e82615f2f565b848454615ebb565b825550505050565b600090565b615f6b615f5e565b615f76818484615f39565b505050565b5b81811015615f9a57615f8f600082615f63565b600181019050615f7c565b5050565b601f821115615fdf57615fb081615e89565b615fb984615e9e565b81016020851015615fc8578190505b615fdc615fd485615e9e565b830182615f7b565b50505b505050565b600082821c905092915050565b600061600260001984600802615fe4565b1980831691505092915050565b600061601b8383615ff1565b9150826002028217905092915050565b616034826148c3565b67ffffffffffffffff81111561604d5761604c614cd0565b5b6160578254615a5d565b616062828285615f9e565b600060209050601f8311600181146160955760008415616083578287015190505b61608d858261600f565b8655506160f5565b601f1984166160a386615e89565b60005b828110156160cb578489015182556001820191506020850194506020810190506160a6565b868310156160e857848901516160e4601f891682615ff1565b8355505b6001600288020188555050505b505050505050565b7f45524332303a2064656372656173656420616c6c6f77616e63652062656c6f7760008201527f207a65726f000000000000000000000000000000000000000000000000000000602082015250565b60006161596025836148ce565b9150616164826160fd565b604082019050919050565b600060208201905081810360008301526161888161614c565b9050919050565b7f76616c696461746f72206973206e6f742073657420666f72207468697320726560008201527f7175657374206964000000000000000000000000000000000000000000000000602082015250565b60006161eb6028836148ce565b91506161f68261618f565b604082019050919050565b6000602082019050818103600083015261621a816161de565b9050919050565b7f7175657279206973206e6f742073657420666f7220746869732072657175657360008201527f7420696400000000000000000000000000000000000000000000000000000000602082015250565b600061627d6024836148ce565b915061628882616221565b604082019050919050565b600060208201905081810360008301526162ac81616270565b9050919050565b60006162bf8385615045565b93507f07ffffffffffffffffffffffffffffffffffffffffffffffffffffffffffffff8311156162f2576162f1615c09565b5b602083029250616303838584615c0e565b82840190509392505050565b61631b60408383615c0e565b5050565b600060029050919050565b600081905092915050565b6000819050919050565b61634b60408383615c0e565b5050565b600061635b838361633f565b60408301905092915050565b600082905092915050565b6000604082019050919050565b6163888161631f565b616392818461632a565b925061639d82616335565b8060005b838110156163d6576163b38284616367565b6163bd878261634f565b96506163c883616372565b9250506001810190506163a1565b505050505050565b60006101408201905081810360008301526163fa81888a6162b3565b9050616409602083018761630f565b616416606083018661637f565b61642360e083018561630f565b616431610120830184614a93565b979650505050505050565b61644581614a5d565b811461645057600080fd5b50565b6000815190506164628161643c565b92915050565b60006020828403121561647e5761647d61497f565b5b600061648c84828501616453565b91505092915050565b7f70726f6f6620726573706f6e7365206973206e6f742076616c69640000000000600082015250565b60006164cb601b836148ce565b91506164d682616495565b602082019050919050565b600060208201905081810360008301526164fa816164be565b9050919050565b7f4552433230566f7465733a207369676e61747572652065787069726564000000600082015250565b6000616537601d836148ce565b915061654282616501565b602082019050919050565b600060208201905081810360008301526165668161652a565b9050919050565b60006080820190506165826000830187614ba8565b61658f6020830186614b3d565b61659c6040830185614a93565b6165a96060830184614a93565b95945050505050565b7f4552433230566f7465733a20696e76616c6964206e6f6e636500000000000000600082015250565b60006165e86019836148ce565b91506165f3826165b2565b602082019050919050565b60006020820190508181036000830152616617816165db565b9050919050565b7f45524332305065726d69743a206578706972656420646561646c696e65000000600082015250565b6000616654601d836148ce565b915061665f8261661e565b602082019050919050565b6000602082019050818103600083015261668381616647565b9050919050565b600060c08201905061669f6000830189614ba8565b6166ac6020830188614b3d565b6166b96040830187614b3d565b6166c66060830186614a93565b6166d36080830185614a93565b6166e060a0830184614a93565b979650505050505050565b7f45524332305065726d69743a20696e76616c6964207369676e61747572650000600082015250565b6000616721601e836148ce565b915061672c826166eb565b602082019050919050565b6000602082019050818103600083015261675081616714565b9050919050565b7f4f776e61626c653a206e6577206f776e657220697320746865207a65726f206160008201527f6464726573730000000000000000000000000000000000000000000000000000602082015250565b60006167b36026836148ce565b91506167be82616757565b604082019050919050565b600060208201905081810360008301526167e2816167a6565b9050919050565b7f45524332303a20617070726f76652066726f6d20746865207a65726f2061646460008201527f7265737300000000000000000000000000000000000000000000000000000000602082015250565b60006168456024836148ce565b9150616850826167e9565b604082019050919050565b6000602082019050818103600083015261687481616838565b9050919050565b7f45524332303a20617070726f766520746f20746865207a65726f20616464726560008201527f7373000000000000000000000000000000000000000000000000000000000000602082015250565b60006168d76022836148ce565b91506168e28261687b565b604082019050919050565b60006020820190508181036000830152616906816168ca565b9050919050565b7f45524332303a20696e73756666696369656e7420616c6c6f77616e6365000000600082015250565b6000616943601d836148ce565b915061694e8261690d565b602082019050919050565b6000602082019050818103600083015261697281616936565b9050919050565b7f45524332303a207472616e736665722066726f6d20746865207a65726f20616460008201527f6472657373000000000000000000000000000000000000000000000000000000602082015250565b60006169d56025836148ce565b91506169e082616979565b604082019050919050565b60006020820190508181036000830152616a04816169c8565b9050919050565b7f45524332303a207472616e7366657220746f20746865207a65726f206164647260008201527f6573730000000000000000000000000000000000000000000000000000000000602082015250565b6000616a676023836148ce565b9150616a7282616a0b565b604082019050919050565b60006020820190508181036000830152616a9681616a5a565b9050919050565b7f45524332303a207472616e7366657220616d6f756e742065786365656473206260008201527f616c616e63650000000000000000000000000000000000000000000000000000602082015250565b6000616af96026836148ce565b9150616b0482616a9d565b604082019050919050565b60006020820190508181036000830152616b2881616aec565b9050919050565b6000616b3a826149e7565b9150616b45836149e7565b9250828203905081811115616b5d57616b5c615a8e565b5b92915050565b7f4e487b7100000000000000000000000000000000000000000000000000000000600052602160045260246000fd5b60068110616ba357616ba2616b63565b5b50565b6000819050616bb482616b92565b919050565b6000616bc482616ba6565b9050919050565b616bd481616bb9565b82525050565b6000602082019050616bef6000830184616bcb565b92915050565b600080fd5b600080fd5b60068110616c0c57600080fd5b50565b600081519050616c1e81616bff565b92915050565b6000616c37616c3284614d4b565b614d30565b905082815260208101848484011115616c5357616c52614ccb565b5b616c5e8482856148df565b509392505050565b600082601f830112616c7b57616c7a614cc6565b5b8151616c8b848260208601616c24565b91505092915050565b600060c08284031215616caa57616ca9616bf5565b5b616cb460c0614d30565b90506000616cc484828501616c0f565b6000830152506020616cd884828501615c97565b6020830152506040616cec84828501616453565b6040830152506060616d0084828501616453565b6060830152506080616d1484828501616453565b60808301525060a082015167ffffffffffffffff811115616d3857616d37616bfa565b5b616d4484828501616c66565b60a08301525092915050565b600060208284031215616d6657616d6561497f565b5b600082015167ffffffffffffffff811115616d8457616d83614984565b5b616d9084828501616c94565b91505092915050565b600081519050919050565b600082825260208201905092915050565b6000616dc082616d99565b616dca8185616da4565b9350616dda8185602086016148df565b616de381614909565b840191505092915050565b60006020820190508181036000830152616e088184616db5565b905092915050565b600060608284031215616e2657616e25616bf5565b5b616e306060614d30565b9050600082015167ffffffffffffffff811115616e5057616e4f616bfa565b5b616e5c84828501616c66565b6000830152506020616e7084828501616453565b602083015250604082015167ffffffffffffffff811115616e9457616e93616bfa565b5b616ea084828501616c66565b60408301525092915050565b600060208284031215616ec257616ec161497f565b5b600082015167ffffffffffffffff811115616ee057616edf614984565b5b616eec84828501616e10565b91505092915050565b616efe81614f4f565b8114616f0957600080fd5b50565b600081519050616f1b81616ef5565b92915050565b600081519050616f308161562c565b92915050565b600067ffffffffffffffff821115616f5157616f50614cd0565b5b602082029050602081019050919050565b600067ffffffffffffffff821115616f7d57616f7c614cd0565b5b602082029050602081019050919050565b600060a08284031215616fa457616fa3616bf5565b5b616fae60a0614d30565b90506000616fbe84828501616c0f565b6000830152506020616fd284828501616453565b6020830152506040616fe684828501616453565b6040830152506060616ffa84828501615c97565b606083015250608082015167ffffffffffffffff81111561701e5761701d616bfa565b5b61702a84828501616c66565b60808301525092915050565b600061704961704484616f62565b614d30565b9050808382526020820190506020840283018581111561706c5761706b6152ae565b5b835b818110156170b357805167ffffffffffffffff81111561709157617090614cc6565b5b80860161709e8982616f8e565b8552602085019450505060208101905061706e565b5050509392505050565b600082601f8301126170d2576170d1614cc6565b5b81516170e2848260208601617036565b91505092915050565b600067ffffffffffffffff82111561710657617105614cd0565b5b602082029050602081019050919050565b6005811061712457600080fd5b50565b60008151905061713681617117565b92915050565b600060c0828403121561715257617151616bf5565b5b61715c60c0614d30565b9050600061716c84828501617127565b600083015250602061718084828501616f0c565b602083015250604061719484828501616f0c565b60408301525060606171a884828501616453565b60608301525060806171bc84828501615c97565b60808301525060a082015167ffffffffffffffff8111156171e0576171df616bfa565b5b6171ec84828501616c66565b60a08301525092915050565b600061720b617206846170eb565b614d30565b9050808382526020820190506020840283018581111561722e5761722d6152ae565b5b835b8181101561727557805167ffffffffffffffff81111561725357617252614cc6565b5b808601617260898261713c565b85526020850194505050602081019050617230565b5050509392505050565b600082601f83011261729457617293614cc6565b5b81516172a48482602086016171f8565b91505092915050565b600060a082840312156172c3576172c2616bf5565b5b6172cd60a0614d30565b9050600082015167ffffffffffffffff8111156172ed576172ec616bfa565b5b6172f9848285016170bd565b600083015250602082015167ffffffffffffffff81111561731d5761731c616bfa565b5b6173298482850161727f565b602083015250604061733d84828501616f21565b604083015250606082015167ffffffffffffffff81111561736157617360616bfa565b5b61736d84828501616c66565b606083015250608082015167ffffffffffffffff81111561739157617390616bfa565b5b61739d84828501616c66565b60808301525092915050565b60006173bc6173b784616f36565b614d30565b905080838252602082019050602084028301858111156173df576173de6152ae565b5b835b8181101561742657805167ffffffffffffffff81111561740457617403614cc6565b5b80860161741189826172ad565b855260208501945050506020810190506173e1565b5050509392505050565b600082601f83011261744557617444614cc6565b5b81516174558482602086016173a9565b91505092915050565b600060a0828403121561747457617473616bf5565b5b61747e60a0614d30565b9050600061748e84828501616f0c565b60008301525060206174a284828501616f0c565b60208301525060406174b684828501616f21565b604083015250606082015167ffffffffffffffff8111156174da576174d9616bfa565b5b6174e684828501616c66565b606083015250608082015167ffffffffffffffff81111561750a57617509616bfa565b5b61751684828501617430565b60808301525092915050565b6000602082840312156175385761753761497f565b5b600082015167ffffffffffffffff81111561755657617555614984565b5b6175628482850161745e565b91505092915050565b61757481614b9e565b82525050565b600082825260208201905092915050565b600061759682616d99565b6175a0818561757a565b93506175b08185602086016148df565b6175b981614909565b840191505092915050565b600081519050919050565b600082825260208201905092915050565b6000819050602082019050919050565b600081519050919050565b600082825260208201905092915050565b6000819050602082019050919050565b61762581616bb9565b82525050565b600060a083016000830151617643600086018261761c565b5060208301516176566020860182614f8a565b5060408301516176696040860182614f8a565b50606083015161767c6060860182615066565b5060808301518482036080860152617694828261758b565b9150508091505092915050565b60006176ad838361762b565b905092915050565b6000602082019050919050565b60006176cd826175f0565b6176d781856175fb565b9350836020820285016176e98561760c565b8060005b85811015617725578484038952815161770685826176a1565b9450617711836176b5565b925060208a019950506001810190506176ed565b50829750879550505050505092915050565b600081519050919050565b600082825260208201905092915050565b6000819050602082019050919050565b6005811061777457617773616b63565b5b50565b600081905061778582617763565b919050565b600061779582617777565b9050919050565b6177a58161778a565b82525050565b600060c0830160008301516177c3600086018261779c565b5060208301516177d66020860182614f7b565b5060408301516177e96040860182614f7b565b5060608301516177fc6060860182614f8a565b50608083015161780f6080860182615066565b5060a083015184820360a0860152617827828261758b565b9150508091505092915050565b600061784083836177ab565b905092915050565b6000602082019050919050565b600061786082617737565b61786a8185617742565b93508360208202850161787c85617753565b8060005b858110156178b857848403895281516178998582617834565b94506178a483617848565b925060208a01995050600181019050617880565b50829750879550505050505092915050565b600060a08301600083015184820360008601526178e782826176c2565b915050602083015184820360208601526179018282617855565b9150506040830151617916604086018261756b565b506060830151848203606086015261792e828261758b565b91505060808301518482036080860152617948828261758b565b9150508091505092915050565b600061796183836178ca565b905092915050565b6000602082019050919050565b6000617981826175c4565b61798b81856175cf565b93508360208202850161799d856175e0565b8060005b858110156179d957848403895281516179ba8582617955565b94506179c583617969565b925060208a019950506001810190506179a1565b50829750879550505050505092915050565b600060a083016000830151617a036000860182614f7b565b506020830151617a166020860182614f7b565b506040830151617a29604086018261756b565b5060608301518482036060860152617a41828261758b565b91505060808301518482036080860152617a5b8282617976565b9150508091505092915050565b600081519050919050565b600082825260208201905092915050565b6000819050602082019050919050565b600060c083016000830151617aac600086018261761c565b506020830151617abf6020860182615066565b506040830151617ad26040860182614f8a565b506060830151617ae56060860182614f8a565b506080830151617af86080860182614f8a565b5060a083015184820360a0860152617b10828261758b565b9150508091505092915050565b6000617b298383617a94565b905092915050565b6000602082019050919050565b6000617b4982617a68565b617b538185617a73565b935083602082028501617b6585617a84565b8060005b85811015617ba15784840389528151617b828582617b1d565b9450617b8d83617b31565b925060208a01995050600181019050617b69565b50829750879550505050505092915050565b600081519050919050565b600082825260208201905092915050565b6000819050602082019050919050565b600060e083016000830151617bf7600086018261779c565b506020830151617c0a6020860182614f7b565b506040830151617c1d6040860182614f7b565b506060830151617c306060860182615066565b506080830151617c436080860182614f8a565b5060a0830151617c5660a0860182614f8a565b5060c083015184820360c0860152617c6e828261758b565b9150508091505092915050565b6000617c878383617bdf565b905092915050565b6000602082019050919050565b6000617ca782617bb3565b617cb18185617bbe565b935083602082028501617cc385617bcf565b8060005b85811015617cff5784840389528151617ce08582617c7b565b9450617ceb83617c8f565b925060208a01995050600181019050617cc7565b50829750879550505050505092915050565b60006060830160008301518482036000860152617d2e828261758b565b9150506020830151617d436020860182614f8a565b5060408301518482036040860152617d5b828261758b565b9150508091505092915050565b6000608083016000830151617d806000860182614f7b565b5060208301518482036020860152617d988282617b3e565b91505060408301518482036040860152617db28282617c9c565b91505060608301518482036060860152617dcc8282617d11565b9150508091505092915050565b60006080820190508181036000830152617df381866179eb565b90508181036020830152617e078185617d68565b9050617e166040830184614fb5565b949350505050565b600067ffffffffffffffff821115617e3957617e38614cd0565b5b602082029050602081019050919050565b600060a08284031215617e6057617e5f616bf5565b5b617e6a60a0614d30565b90506000617e7a84828501616c0f565b6000830152506020617e8e84828501616453565b6020830152506040617ea284828501615c97565b604083015250606082015167ffffffffffffffff811115617ec657617ec5616bfa565b5b617ed284828501616c66565b606083015250608082015167ffffffffffffffff811115617ef657617ef5616bfa565b5b617f0284828501616c66565b60808301525092915050565b6000617f21617f1c84617e1e565b614d30565b90508083825260208201905060208402830185811115617f4457617f436152ae565b5b835b81811015617f8b57805167ffffffffffffffff811115617f6957617f68614cc6565b5b808601617f768982617e4a565b85526020850194505050602081019050617f46565b5050509392505050565b600082601f830112617faa57617fa9614cc6565b5b8151617fba848260208601617f0e565b91505092915050565b600067ffffffffffffffff821115617fde57617fdd614cd0565b5b602082029050602081019050919050565b600060e0828403121561800557618004616bf5565b5b61800f60e0614d30565b9050600061801f84828501617127565b600083015250602061803384828501616f0c565b602083015250604061804784828501616f0c565b604083015250606061805b84828501615c97565b606083015250608082015167ffffffffffffffff81111561807f5761807e616bfa565b5b61808b84828501616c66565b60808301525060a061809f84828501615c97565b60a08301525060c082015167ffffffffffffffff8111156180c3576180c2616bfa565b5b6180cf84828501616c66565b60c08301525092915050565b60006180ee6180e984617fc3565b614d30565b90508083825260208201905060208402830185811115618111576181106152ae565b5b835b8181101561815857805167ffffffffffffffff81111561813657618135614cc6565b5b8086016181438982617fef565b85526020850194505050602081019050618113565b5050509392505050565b600082601f83011261817757618176614cc6565b5b81516181878482602086016180db565b91505092915050565b600060c082840312156181a6576181a5616bf5565b5b6181b060c0614d30565b905060006181c084828501616f0c565b60008301525060206181d484828501616f0c565b60208301525060406181e884828501616f21565b604083015250606082015167ffffffffffffffff81111561820c5761820b616bfa565b5b61821884828501617f95565b606083015250608082015167ffffffffffffffff81111561823c5761823b616bfa565b5b61824884828501618162565b60808301525060a082015167ffffffffffffffff81111561826c5761826b616bfa565b5b61827884828501616c66565b60a08301525092915050565b60006020828403121561829a5761829961497f565b5b600082015167ffffffffffffffff8111156182b8576182b7614984565b5b6182c484828501618190565b91505092915050565b60006182d8826149e7565b91507fffffffffffffffffffffffffffffffffffffffffffffffffffffffffffffffff820361830a57618309615a8e565b5b600182019050919050565b7f53616665436173743a2076616c756520646f65736e27742066697420696e203360008201527f3220626974730000000000000000000000000000000000000000000000000000602082015250565b60006183716026836148ce565b915061837c82618315565b604082019050919050565b600060208201905081810360008301526183a081618364565b9050919050565b7f4f776e61626c653a2063616c6c6572206973206e6f7420746865206f776e6572600082015250565b60006183dd6020836148ce565b91506183e8826183a7565b602082019050919050565b6000602082019050818103600083015261840c816183d0565b9050919050565b7f53616665436173743a2076616c756520646f65736e27742066697420696e203460008201527f3820626974730000000000000000000000000000000000000000000000000000602082015250565b600061846f6026836148ce565b915061847a82618413565b604082019050919050565b6000602082019050818103600083015261849e81618462565b9050919050565b7f6164647265737320696e2070726f6f66206973206e6f7420612073656e64657260008201527f2061646472657373000000000000000000000000000000000000000000000000602082015250565b60006185016028836148ce565b915061850c826184a5565b604082019050919050565b60006020820190508181036000830152618530816184f4565b9050919050565b7f70726f6f662063616e206e6f74206265207375626d6974746564206d6f72652060008201527f7468616e206f6e63650000000000000000000000000000000000000000000000602082015250565b60006185936029836148ce565b915061859e82618537565b604082019050919050565b600060208201905081810360008301526185c281618586565b9050919050565b6000819050602082019050919050565b60006185e58251614b9e565b80915050919050565b60006185f982616d99565b82618603846185c9565b905061860e816185d9565b9250602082101561864e576186497fffffffffffffffffffffffffffffffffffffffffffffffffffffffffffffffff83602003600802615eae565b831692505b5050919050565b600060a08201905061866a6000830188614ba8565b6186776020830187614ba8565b6186846040830186614ba8565b6186916060830185614a93565b61869e6080830184614b3d565b9695505050505050565b7f4e487b7100000000000000000000000000000000000000000000000000000000600052601260045260246000fd5b60006186e2826149e7565b91506186ed836149e7565b9250826186fd576186fc6186a8565b5b828204905092915050565b600060c083016000830151618720600086018261761c565b5060208301516187336020860182615066565b5060408301516187466040860182614f8a565b5060608301516187596060860182614f8a565b50608083015161876c6080860182614f8a565b5060a083015184820360a0860152618784828261758b565b9150508091505092915050565b600060608301600083015184820360008601526187ae828261758b565b91505060208301516187c36020860182614f8a565b50604083015184820360408601526187db828261758b565b9150508091505092915050565b600060408201905081810360008301526188028185618708565b905081810360208301526188168184618791565b90509392505050565b600067ffffffffffffffff82111561883a57618839614cd0565b5b602082029050602081019050919050565b600061885e6188598461881f565b614d30565b90508083825260208201905060208402830185811115618881576188806152ae565b5b835b818110156188c857805167ffffffffffffffff8111156188a6576188a5614cc6565b5b8086016188b38982616c94565b85526020850194505050602081019050618883565b5050509392505050565b600082601f8301126188e7576188e6614cc6565b5b81516188f784826020860161884b565b91505092915050565b600067ffffffffffffffff82111561891b5761891a614cd0565b5b602082029050602081019050919050565b600060e0828403121561894257618941616bf5565b5b61894c60e0614d30565b9050600061895c84828501617127565b600083015250602061897084828501616f0c565b602083015250604061898484828501616f0c565b604083015250606061899884828501615c97565b60608301525060806189ac84828501616453565b60808301525060a06189c084828501616453565b60a08301525060c082015167ffffffffffffffff8111156189e4576189e3616bfa565b5b6189f084828501616c66565b60c08301525092915050565b6000618a0f618a0a84618900565b614d30565b90508083825260208201905060208402830185811115618a3257618a316152ae565b5b835b81811015618a7957805167ffffffffffffffff811115618a5757618a56614cc6565b5b808601618a64898261892c565b85526020850194505050602081019050618a34565b5050509392505050565b600082601f830112618a9857618a97614cc6565b5b8151618aa88482602086016189fc565b91505092915050565b600060808284031215618ac757618ac6616bf5565b5b618ad16080614d30565b90506000618ae184828501616f0c565b600083015250602082015167ffffffffffffffff811115618b0557618b04616bfa565b5b618b11848285016188d2565b602083015250604082015167ffffffffffffffff811115618b3557618b34616bfa565b5b618b4184828501618a83565b604083015250606082015167ffffffffffffffff811115618b6557618b64616bfa565b5b618b7184828501616e10565b60608301525092915050565b600060208284031215618b9357618b9261497f565b5b600082015167ffffffffffffffff811115618bb157618bb0614984565b5b618bbd84828501618ab1565b91505092915050565b7f4552433230566f7465733a20746f74616c20737570706c79207269736b73206f60008201527f766572666c6f77696e6720766f74657300000000000000000000000000000000602082015250565b6000618c226030836148ce565b9150618c2d82618bc6565b604082019050919050565b60006020820190508181036000830152618c5181618c15565b9050919050565b6000604082019050618c6d6000830185614a93565b618c7a6020830184614a93565b9392505050565b6000608082019050618c966000830187614ba8565b618ca36020830186614b74565b618cb06040830185614ba8565b618cbd6060830184614ba8565b95945050505050565b7f45434453413a20696e76616c6964207369676e61747572650000000000000000600082015250565b6000618cfc6018836148ce565b9150618d0782618cc6565b602082019050919050565b60006020820190508181036000830152618d2b81618cef565b9050919050565b7f45434453413a20696e76616c6964207369676e6174757265206c656e67746800600082015250565b6000618d68601f836148ce565b9150618d7382618d32565b602082019050919050565b60006020820190508181036000830152618d9781618d5b565b9050919050565b7f45434453413a20696e76616c6964207369676e6174757265202773272076616c60008201527f7565000000000000000000000000000000000000000000000000000000000000602082015250565b6000618dfa6022836148ce565b9150618e0582618d9e565b604082019050919050565b60006020820190508181036000830152618e2981618ded565b9050919050565b7f45524332303a206d696e7420746f20746865207a65726f206164647265737300600082015250565b6000618e66601f836148ce565b9150618e7182618e30565b602082019050919050565b60006020820190508181036000830152618e9581618e59565b9050919050565b7f53616665436173743a2076616c756520646f65736e27742066697420696e203260008201527f3234206269747300000000000000000000000000000000000000000000000000602082015250565b6000618ef86027836148ce565b9150618f0382618e9c565b604082019050919050565b60006020820190508181036000830152618f2781618eeb565b905091905056fea26469706673582212200e0e4cc537be4c4a1a7f97fa2ad0b4f40dbb3d4d18bc4f42995665fbe154e51e64736f6c63430008110033",
  "linkReferences": {
    "contracts/lib/Poseidon.sol": {
      "PoseidonUnit6L": [
        {
          "length": 20,
          "start": 10469
        }
      ]
    },
    "contracts/lib/SpongePoseidon.sol": {
      "SpongePoseidon": [
        {
          "length": 20,
          "start": 10343
        }
      ]
    }
  },
  "deployedLinkReferences": {
    "contracts/lib/Poseidon.sol": {
      "PoseidonUnit6L": [
        {
          "length": 20,
          "start": 5210
        }
      ]
    },
    "contracts/lib/SpongePoseidon.sol": {
      "SpongePoseidon": [
        {
          "length": 20,
          "start": 5084
        }
      ]
    }
  }
}