{
  "_format": "hh-sol-artifact-1",
  "contractName": "SismoConnect",
  "sourceName": "sismo-connect-onchain-verifier/src/SismoConnectLib.sol",
  "abi": [
    {
      "inputs": [
        {
          "components": [
            {
              "internalType": "bytes16",
              "name": "appId",
              "type": "bytes16"
            },
            {
              "components": [
                {
                  "internalType": "bool",
                  "name": "isImpersonationMode",
                  "type": "bool"
                }
              ],
              "internalType": "struct VaultConfig",
              "name": "vault",
              "type": "tuple"
            }
          ],
          "internalType": "struct SismoConnectConfig",
          "name": "_config",
          "type": "tuple"
        }
      ],
      "stateMutability": "nonpayable",
      "type": "constructor"
    },
    {
      "inputs": [],
      "name": "ADDRESSES_PROVIDER_V2",
      "outputs": [
        {
          "internalType": "contract IAddressesProvider",
          "name": "",
          "type": "address"
        }
      ],
      "stateMutability": "view",
      "type": "function"
    },
    {
      "inputs": [],
      "name": "APP_ID",
      "outputs": [
        {
          "internalType": "bytes16",
          "name": "",
          "type": "bytes16"
        }
      ],
      "stateMutability": "view",
      "type": "function"
    },
    {
      "inputs": [],
      "name": "IS_IMPERSONATION_MODE",
      "outputs": [
        {
          "internalType": "bool",
          "name": "",
          "type": "bool"
        }
      ],
      "stateMutability": "view",
      "type": "function"
    },
    {
      "inputs": [],
      "name": "SISMO_CONNECT_LIB_VERSION",
      "outputs": [
        {
          "internalType": "uint256",
          "name": "",
          "type": "uint256"
        }
      ],
      "stateMutability": "view",
      "type": "function"
    },
    {
      "inputs": [],
      "name": "config",
      "outputs": [
        {
          "components": [
            {
              "internalType": "bytes16",
              "name": "appId",
              "type": "bytes16"
            },
            {
              "components": [
                {
                  "internalType": "bool",
                  "name": "isImpersonationMode",
                  "type": "bool"
                }
              ],
              "internalType": "struct VaultConfig",
              "name": "vault",
              "type": "tuple"
            }
          ],
          "internalType": "struct SismoConnectConfig",
          "name": "",
          "type": "tuple"
        }
      ],
      "stateMutability": "view",
      "type": "function"
    }
  ],
  "bytecode": "0x6101606040523480156200001257600080fd5b5060405162000d8838038062000d8883398181016040528101906200003891906200074e565b80600001516fffffffffffffffffffffffffffffffff1916610120816fffffffffffffffffffffffffffffffff191681525050806020015160000151151561014081151581525050733cd5334eb64ebbd4003b72022cc25465f1bfcee673ffffffffffffffffffffffffffffffffffffffff1663693ec85e6040518060400160405280601981526020017f7369736d6f436f6e6e65637456657269666965722d76312e32000000000000008152506040518263ffffffff1660e01b815260040162000104919062000809565b602060405180830381865afa15801562000122573d6000803e3d6000fd5b505050506040513d601f19601f8201168201806040525081019062000148919062000892565b73ffffffffffffffffffffffffffffffffffffffff1660808173ffffffffffffffffffffffffffffffffffffffff1681525050733cd5334eb64ebbd4003b72022cc25465f1bfcee673ffffffffffffffffffffffffffffffffffffffff1663693ec85e6040518060400160405280601781526020017f61757468526571756573744275696c6465722d76312e310000000000000000008152506040518263ffffffff1660e01b8152600401620001ff919062000809565b602060405180830381865afa1580156200021d573d6000803e3d6000fd5b505050506040513d601f19601f8201168201806040525081019062000243919062000892565b73ffffffffffffffffffffffffffffffffffffffff1660a08173ffffffffffffffffffffffffffffffffffffffff1681525050733cd5334eb64ebbd4003b72022cc25465f1bfcee673ffffffffffffffffffffffffffffffffffffffff1663693ec85e6040518060400160405280601881526020017f636c61696d526571756573744275696c6465722d76312e3100000000000000008152506040518263ffffffff1660e01b8152600401620002fa919062000809565b602060405180830381865afa15801562000318573d6000803e3d6000fd5b505050506040513d601f19601f820116820180604052508101906200033e919062000892565b73ffffffffffffffffffffffffffffffffffffffff1660c08173ffffffffffffffffffffffffffffffffffffffff1681525050733cd5334eb64ebbd4003b72022cc25465f1bfcee673ffffffffffffffffffffffffffffffffffffffff1663693ec85e6040518060400160405280601581526020017f7369676e61747572654275696c6465722d76312e3100000000000000000000008152506040518263ffffffff1660e01b8152600401620003f5919062000809565b602060405180830381865afa15801562000413573d6000803e3d6000fd5b505050506040513d601f19601f8201168201806040525081019062000439919062000892565b73ffffffffffffffffffffffffffffffffffffffff1660e08173ffffffffffffffffffffffffffffffffffffffff1681525050733cd5334eb64ebbd4003b72022cc25465f1bfcee673ffffffffffffffffffffffffffffffffffffffff1663693ec85e6040518060400160405280601381526020017f726571756573744275696c6465722d76312e31000000000000000000000000008152506040518263ffffffff1660e01b8152600401620004f0919062000809565b602060405180830381865afa1580156200050e573d6000803e3d6000fd5b505050506040513d601f19601f8201168201806040525081019062000534919062000892565b73ffffffffffffffffffffffffffffffffffffffff166101008173ffffffffffffffffffffffffffffffffffffffff168152505050620008c4565b6000604051905090565b600080fd5b600080fd5b6000601f19601f8301169050919050565b7f4e487b7100000000000000000000000000000000000000000000000000000000600052604160045260246000fd5b620005ce8262000583565b810181811067ffffffffffffffff82111715620005f057620005ef62000594565b5b80604052505050565b6000620006056200056f565b9050620006138282620005c3565b919050565b60007fffffffffffffffffffffffffffffffff0000000000000000000000000000000082169050919050565b6200064f8162000618565b81146200065b57600080fd5b50565b6000815190506200066f8162000644565b92915050565b60008115159050919050565b6200068c8162000675565b81146200069857600080fd5b50565b600081519050620006ac8162000681565b92915050565b600060208284031215620006cb57620006ca6200057e565b5b620006d76020620005f9565b90506000620006e9848285016200069b565b60008301525092915050565b6000604082840312156200070e576200070d6200057e565b5b6200071a6040620005f9565b905060006200072c848285016200065e565b60008301525060206200074284828501620006b2565b60208301525092915050565b60006040828403121562000767576200076662000579565b5b60006200077784828501620006f5565b91505092915050565b600081519050919050565b600082825260208201905092915050565b60005b83811015620007bc5780820151818401526020810190506200079f565b60008484015250505050565b6000620007d58262000780565b620007e181856200078b565b9350620007f38185602086016200079c565b620007fe8162000583565b840191505092915050565b60006020820190508181036000830152620008258184620007c8565b905092915050565b600073ffffffffffffffffffffffffffffffffffffffff82169050919050565b60006200085a826200082d565b9050919050565b6200086c816200084d565b81146200087857600080fd5b50565b6000815190506200088c8162000861565b92915050565b600060208284031215620008ab57620008aa62000579565b5b6000620008bb848285016200087b565b91505092915050565b60805160a05160c05160e05161010051610120516101405161046a6200091e60003960008181610138015261016301526000818161011701526101870152600050506000505060005050600050506000505061046a6000f3fe608060405234801561001057600080fd5b50600436106100575760003560e01c8063469163011461005c57806379502c551461007a578063a183dc2714610098578063c187bbc1146100b6578063c9512d99146100d4575b600080fd5b6100646100f2565b60405161007191906102d5565b60405180910390f35b61008261010a565b60405161008f9190610391565b60405180910390f35b6100a0610161565b6040516100ad91906103bb565b60405180910390f35b6100be610185565b6040516100cb91906103e5565b60405180910390f35b6100dc6101a9565b6040516100e99190610419565b60405180910390f35b733cd5334eb64ebbd4003b72022cc25465f1bfcee681565b61011261020e565b61015c7f00000000000000000000000000000000000000000000000000000000000000007f00000000000000000000000000000000000000000000000000000000000000006101ae565b905090565b7f000000000000000000000000000000000000000000000000000000000000000081565b7f000000000000000000000000000000000000000000000000000000000000000081565b600281565b6101b661020e565b6040518060400160405280846fffffffffffffffffffffffffffffffff191681526020016101e3846101ee565b815250905092915050565b6101f6610241565b60405180602001604052808315158152509050919050565b604051806040016040528060006fffffffffffffffffffffffffffffffff1916815260200161023b610241565b81525090565b60405180602001604052806000151581525090565b600073ffffffffffffffffffffffffffffffffffffffff82169050919050565b6000819050919050565b600061029b61029661029184610256565b610276565b610256565b9050919050565b60006102ad82610280565b9050919050565b60006102bf826102a2565b9050919050565b6102cf816102b4565b82525050565b60006020820190506102ea60008301846102c6565b92915050565b60007fffffffffffffffffffffffffffffffff0000000000000000000000000000000082169050919050565b610325816102f0565b82525050565b60008115159050919050565b6103408161032b565b82525050565b60208201600082015161035c6000850182610337565b50505050565b604082016000820151610378600085018261031c565b50602082015161038b6020850182610346565b50505050565b60006040820190506103a66000830184610362565b92915050565b6103b58161032b565b82525050565b60006020820190506103d060008301846103ac565b92915050565b6103df816102f0565b82525050565b60006020820190506103fa60008301846103d6565b92915050565b6000819050919050565b61041381610400565b82525050565b600060208201905061042e600083018461040a565b9291505056fea2646970667358221220befbb839861dc5c841dacdd731ffb321b1d149c534f3dfa6a178dba54f67a03564736f6c63430008110033",
  "linkReferences": {},
  "deployedLinkReferences": {}
}