{
  "_format": "hh-sol-artifact-1",
  "contractName": "ZKPVerifier",
  "sourceName": "contracts/verifiers/ZKPVerifier.sol",
  "abi": [
    {
      "anonymous": false,
      "inputs": [
        {
          "indexed": true,
          "internalType": "address",
          "name": "previousOwner",
          "type": "address"
        },
        {
          "indexed": true,
          "internalType": "address",
          "name": "newOwner",
          "type": "address"
        }
      ],
      "name": "OwnershipTransferred",
      "type": "event"
    },
    {
      "inputs": [],
      "name": "getSupportedRequests",
      "outputs": [
        {
          "internalType": "uint64[]",
          "name": "arr",
          "type": "uint64[]"
        }
      ],
      "stateMutability": "view",
      "type": "function"
    },
    {
      "inputs": [
        {
          "internalType": "uint64",
          "name": "requestId",
          "type": "uint64"
        }
      ],
      "name": "getZKPRequest",
      "outputs": [
        {
          "components": [
            {
              "internalType": "uint256",
              "name": "schema",
              "type": "uint256"
            },
            {
              "internalType": "uint256",
              "name": "claimPathKey",
              "type": "uint256"
            },
            {
              "internalType": "uint256",
              "name": "operator",
              "type": "uint256"
            },
            {
              "internalType": "uint256[]",
              "name": "value",
              "type": "uint256[]"
            },
            {
              "internalType": "uint256",
              "name": "queryHash",
              "type": "uint256"
            },
            {
              "internalType": "string",
              "name": "circuitId",
              "type": "string"
            }
          ],
          "internalType": "struct ICircuitValidator.CircuitQuery",
          "name": "",
          "type": "tuple"
        }
      ],
      "stateMutability": "view",
      "type": "function"
    },
    {
      "inputs": [],
      "name": "owner",
      "outputs": [
        {
          "internalType": "address",
          "name": "",
          "type": "address"
        }
      ],
      "stateMutability": "view",
      "type": "function"
    },
    {
      "inputs": [
        {
          "internalType": "address",
          "name": "",
          "type": "address"
        },
        {
          "internalType": "uint64",
          "name": "",
          "type": "uint64"
        }
      ],
      "name": "proofs",
      "outputs": [
        {
          "internalType": "bool",
          "name": "",
          "type": "bool"
        }
      ],
      "stateMutability": "view",
      "type": "function"
    },
    {
      "inputs": [],
      "name": "renounceOwnership",
      "outputs": [],
      "stateMutability": "nonpayable",
      "type": "function"
    },
    {
      "inputs": [
        {
          "internalType": "uint64",
          "name": "",
          "type": "uint64"
        }
      ],
      "name": "requestQueries",
      "outputs": [
        {
          "internalType": "uint256",
          "name": "schema",
          "type": "uint256"
        },
        {
          "internalType": "uint256",
          "name": "claimPathKey",
          "type": "uint256"
        },
        {
          "internalType": "uint256",
          "name": "operator",
          "type": "uint256"
        },
        {
          "internalType": "uint256",
          "name": "queryHash",
          "type": "uint256"
        },
        {
          "internalType": "string",
          "name": "circuitId",
          "type": "string"
        }
      ],
      "stateMutability": "view",
      "type": "function"
    },
    {
      "inputs": [
        {
          "internalType": "uint64",
          "name": "",
          "type": "uint64"
        }
      ],
      "name": "requestValidators",
      "outputs": [
        {
          "internalType": "contract ICircuitValidator",
          "name": "",
          "type": "address"
        }
      ],
      "stateMutability": "view",
      "type": "function"
    },
    {
      "inputs": [
        {
          "internalType": "uint64",
          "name": "requestId",
          "type": "uint64"
        },
        {
          "internalType": "contract ICircuitValidator",
          "name": "validator",
          "type": "address"
        },
        {
          "internalType": "uint256",
          "name": "schema",
          "type": "uint256"
        },
        {
          "internalType": "uint256",
          "name": "claimPathKey",
          "type": "uint256"
        },
        {
          "internalType": "uint256",
          "name": "operator",
          "type": "uint256"
        },
        {
          "internalType": "uint256[]",
          "name": "value",
          "type": "uint256[]"
        }
      ],
      "name": "setZKPRequest",
      "outputs": [
        {
          "internalType": "bool",
          "name": "",
          "type": "bool"
        }
      ],
      "stateMutability": "nonpayable",
      "type": "function"
    },
    {
      "inputs": [
        {
          "internalType": "uint64",
          "name": "requestId",
          "type": "uint64"
        },
        {
          "internalType": "contract ICircuitValidator",
          "name": "validator",
          "type": "address"
        },
        {
          "internalType": "uint256",
          "name": "schema",
          "type": "uint256"
        },
        {
          "internalType": "uint256",
          "name": "claimPathKey",
          "type": "uint256"
        },
        {
          "internalType": "uint256",
          "name": "operator",
          "type": "uint256"
        },
        {
          "internalType": "uint256[]",
          "name": "value",
          "type": "uint256[]"
        },
        {
          "internalType": "uint256",
          "name": "queryHash",
          "type": "uint256"
        }
      ],
      "name": "setZKPRequestRaw",
      "outputs": [
        {
          "internalType": "bool",
          "name": "",
          "type": "bool"
        }
      ],
      "stateMutability": "nonpayable",
      "type": "function"
    },
    {
      "inputs": [
        {
          "internalType": "uint64",
          "name": "requestId",
          "type": "uint64"
        },
        {
          "internalType": "uint256[]",
          "name": "inputs",
          "type": "uint256[]"
        },
        {
          "internalType": "uint256[2]",
          "name": "a",
          "type": "uint256[2]"
        },
        {
          "internalType": "uint256[2][2]",
          "name": "b",
          "type": "uint256[2][2]"
        },
        {
          "internalType": "uint256[2]",
          "name": "c",
          "type": "uint256[2]"
        }
      ],
      "name": "submitZKPResponse",
      "outputs": [
        {
          "internalType": "bool",
          "name": "",
          "type": "bool"
        }
      ],
      "stateMutability": "nonpayable",
      "type": "function"
    },
    {
      "inputs": [
        {
          "internalType": "address",
          "name": "newOwner",
          "type": "address"
        }
      ],
      "name": "transferOwnership",
      "outputs": [],
      "stateMutability": "nonpayable",
      "type": "function"
    }
  ],
  "bytecode": "0x608060405234801561001057600080fd5b5061002d61002261003260201b60201c565b61003a60201b60201c565b6100fe565b600033905090565b60008060009054906101000a900473ffffffffffffffffffffffffffffffffffffffff169050816000806101000a81548173ffffffffffffffffffffffffffffffffffffffff021916908373ffffffffffffffffffffffffffffffffffffffff1602179055508173ffffffffffffffffffffffffffffffffffffffff168173ffffffffffffffffffffffffffffffffffffffff167f8be0079c531659141344cd1fd0a4f28419497f9722a3daafe3b4186f6b6457e060405160405180910390a35050565b6123e2806200010e6000396000f3fe608060405234801561001057600080fd5b50600436106100a95760003560e01c80639e621bcf116100715780639e621bcf14610158578063a872311414610188578063b45c0fdf146101b8578063b68967e2146101e8578063c76d084514610218578063f2fde38b14610248576100a9565b806337ba9523146100ae578063715018a6146100cc5780638da5cb5b146100d657806396bf4741146100f45780639abdc64514610128575b600080fd5b6100b6610264565b6040516100c39190611135565b60405180910390f35b6100d46102f0565b005b6100de610304565b6040516100eb9190611198565b60405180910390f35b61010e600480360381019061010991906111f3565b61032d565b60405161011f9594939291906112c9565b60405180910390f35b610142600480360381019061013d91906113f2565b6103eb565b60405161014f91906114bc565b60405180910390f35b610172600480360381019061016d91906114d7565b61053c565b60405161017f91906114bc565b60405180910390f35b6101a2600480360381019061019d91906111f3565b61082f565b6040516101af91906115f8565b60405180910390f35b6101d260048036038101906101cd919061163f565b610862565b6040516101df91906114bc565b60405180910390f35b61020260048036038101906101fd91906116c3565b610891565b60405161020f91906114bc565b60405180910390f35b610232600480360381019061022d91906111f3565b610c99565b60405161023f91906118f7565b60405180910390f35b610262600480360381019061025d9190611919565b610dec565b005b606060048054806020026020016040519081016040528092919081815260200182805480156102e657602002820191906000526020600020906000905b82829054906101000a900467ffffffffffffffff1667ffffffffffffffff16815260200190600801906020826007010492830192600103820291508084116102a15790505b5050505050905090565b6102f8610e6f565b6103026000610eed565b565b60008060009054906101000a900473ffffffffffffffffffffffffffffffffffffffff16905090565b600260205280600052604060002060009150905080600001549080600101549080600201549080600401549080600501805461036890611975565b80601f016020809104026020016040519081016040528092919081815260200182805461039490611975565b80156103e15780601f106103b6576101008083540402835291602001916103e1565b820191906000526020600020905b8154815290600101906020018083116103c457829003601f168201915b5050505050905085565b60006103f5610e6f565b600073__$933e38ee1bac859086d8d4e5388b6d5e5f$__6340ec6e4985856040518363ffffffff1660e01b8152600401610430929190611a21565b602060405180830381865af415801561044d573d6000803e3d6000fd5b505050506040513d601f19601f820116820180604052508101906104719190611a5a565b9050600073__$149ddb96bf5d692e763ea65f305faba249$__63f5b4a7886040518060c001604052808b8152602001600081526020018981526020018a815260200160008152602001858152506040518263ffffffff1660e01b81526004016104da9190611b32565b602060405180830381865af41580156104f7573d6000803e3d6000fd5b505050506040513d601f19601f8201168201806040525081019061051b9190611a5a565b905061052d8a8a8a8a8a8a8a8861053c565b92505050979650505050505050565b6000610546610e6f565b600073ffffffffffffffffffffffffffffffffffffffff16600360008b67ffffffffffffffff1667ffffffffffffffff16815260200190815260200160002060009054906101000a900473ffffffffffffffffffffffffffffffffffffffff1673ffffffffffffffffffffffffffffffffffffffff16036106185760048990806001815401808255809150506001900390600052602060002090600491828204019190066008029091909190916101000a81548167ffffffffffffffff021916908367ffffffffffffffff1602179055505b81600260008b67ffffffffffffffff1667ffffffffffffffff1681526020019081526020016000206004018190555084600260008b67ffffffffffffffff1667ffffffffffffffff168152602001908152602001600020600201819055508773ffffffffffffffffffffffffffffffffffffffff166359a2aeaa6040518163ffffffff1660e01b8152600401600060405180830381865afa1580156106c1573d6000803e3d6000fd5b505050506040513d6000823e3d601f19601f820116820180604052508101906106ea9190611c6e565b600260008b67ffffffffffffffff1667ffffffffffffffff16815260200190815260200160002060050190816107209190611e59565b5085600260008b67ffffffffffffffff1667ffffffffffffffff1681526020019081526020016000206001018190555086600260008b67ffffffffffffffff1667ffffffffffffffff168152602001908152602001600020600001819055508383600260008c67ffffffffffffffff1667ffffffffffffffff16815260200190815260200160002060030191906107b8929190610fc3565b5087600360008b67ffffffffffffffff1667ffffffffffffffff16815260200190815260200160002060006101000a81548173ffffffffffffffffffffffffffffffffffffffff021916908373ffffffffffffffffffffffffffffffffffffffff1602179055506001905098975050505050505050565b60036020528060005260406000206000915054906101000a900473ffffffffffffffffffffffffffffffffffffffff1681565b60016020528160005260406000206020528060005260406000206000915091509054906101000a900460ff1681565b60008073ffffffffffffffffffffffffffffffffffffffff16600360008967ffffffffffffffff1667ffffffffffffffff16815260200190815260200160002060009054906101000a900473ffffffffffffffffffffffffffffffffffffffff1673ffffffffffffffffffffffffffffffffffffffff1603610948576040517f08c379a000000000000000000000000000000000000000000000000000000000815260040161093f90611f9d565b60405180910390fd5b6000600260008967ffffffffffffffff1667ffffffffffffffff16815260200190815260200160002060040154036109b5576040517f08c379a00000000000000000000000000000000000000000000000000000000081526004016109ac9061202f565b60405180910390fd5b610a4887878780806020026020016040519081016040528093929190818152602001838360200280828437600081840152601f19601f82011690508083019250505050505050600360008b67ffffffffffffffff1667ffffffffffffffff16815260200190815260200160002060009054906101000a900473ffffffffffffffffffffffffffffffffffffffff16610fb1565b600360008867ffffffffffffffff1667ffffffffffffffff16815260200190815260200160002060009054906101000a900473ffffffffffffffffffffffffffffffffffffffff1673ffffffffffffffffffffffffffffffffffffffff1663434661ef8787878787600260008f67ffffffffffffffff1667ffffffffffffffff168152602001908152602001600020600401546040518763ffffffff1660e01b8152600401610afc9695949392919061218b565b602060405180830381865afa158015610b19573d6000803e3d6000fd5b505050506040513d601f19601f82011682018060405250810190610b3d9190612215565b610b7c576040517f08c379a0000000000000000000000000000000000000000000000000000000008152600401610b739061228e565b60405180910390fd5b60018060003373ffffffffffffffffffffffffffffffffffffffff1673ffffffffffffffffffffffffffffffffffffffff16815260200190815260200160002060008967ffffffffffffffff1667ffffffffffffffff16815260200190815260200160002060006101000a81548160ff021916908315150217905550610c8b87878780806020026020016040519081016040528093929190818152602001838360200280828437600081840152601f19601f82011690508083019250505050505050600360008b67ffffffffffffffff1667ffffffffffffffff16815260200190815260200160002060009054906101000a900473ffffffffffffffffffffffffffffffffffffffff16610fb6565b600190509695505050505050565b610ca1611010565b600260008367ffffffffffffffff1667ffffffffffffffff1681526020019081526020016000206040518060c001604052908160008201548152602001600182015481526020016002820154815260200160038201805480602002602001604051908101604052809291908181526020018280548015610d4057602002820191906000526020600020905b815481526020019060010190808311610d2c575b5050505050815260200160048201548152602001600582018054610d6390611975565b80601f0160208091040260200160405190810160405280929190818152602001828054610d8f90611975565b8015610ddc5780601f10610db157610100808354040283529160200191610ddc565b820191906000526020600020905b815481529060010190602001808311610dbf57829003601f168201915b5050505050815250509050919050565b610df4610e6f565b600073ffffffffffffffffffffffffffffffffffffffff168173ffffffffffffffffffffffffffffffffffffffff1603610e63576040517f08c379a0000000000000000000000000000000000000000000000000000000008152600401610e5a90612320565b60405180910390fd5b610e6c81610eed565b50565b610e77610fbb565b73ffffffffffffffffffffffffffffffffffffffff16610e95610304565b73ffffffffffffffffffffffffffffffffffffffff1614610eeb576040517f08c379a0000000000000000000000000000000000000000000000000000000008152600401610ee29061238c565b60405180910390fd5b565b60008060009054906101000a900473ffffffffffffffffffffffffffffffffffffffff169050816000806101000a81548173ffffffffffffffffffffffffffffffffffffffff021916908373ffffffffffffffffffffffffffffffffffffffff1602179055508173ffffffffffffffffffffffffffffffffffffffff168173ffffffffffffffffffffffffffffffffffffffff167f8be0079c531659141344cd1fd0a4f28419497f9722a3daafe3b4186f6b6457e060405160405180910390a35050565b505050565b505050565b600033905090565b828054828255906000526020600020908101928215610fff579160200282015b82811115610ffe578235825591602001919060010190610fe3565b5b50905061100c9190611046565b5090565b6040518060c001604052806000815260200160008152602001600081526020016060815260200160008152602001606081525090565b5b8082111561105f576000816000905550600101611047565b5090565b600081519050919050565b600082825260208201905092915050565b6000819050602082019050919050565b600067ffffffffffffffff82169050919050565b6110ac8161108f565b82525050565b60006110be83836110a3565b60208301905092915050565b6000602082019050919050565b60006110e282611063565b6110ec818561106e565b93506110f78361107f565b8060005b8381101561112857815161110f88826110b2565b975061111a836110ca565b9250506001810190506110fb565b5085935050505092915050565b6000602082019050818103600083015261114f81846110d7565b905092915050565b600073ffffffffffffffffffffffffffffffffffffffff82169050919050565b600061118282611157565b9050919050565b61119281611177565b82525050565b60006020820190506111ad6000830184611189565b92915050565b6000604051905090565b600080fd5b600080fd5b6111d08161108f565b81146111db57600080fd5b50565b6000813590506111ed816111c7565b92915050565b600060208284031215611209576112086111bd565b5b6000611217848285016111de565b91505092915050565b6000819050919050565b61123381611220565b82525050565b600081519050919050565b600082825260208201905092915050565b60005b83811015611273578082015181840152602081019050611258565b60008484015250505050565b6000601f19601f8301169050919050565b600061129b82611239565b6112a58185611244565b93506112b5818560208601611255565b6112be8161127f565b840191505092915050565b600060a0820190506112de600083018861122a565b6112eb602083018761122a565b6112f8604083018661122a565b611305606083018561122a565b81810360808301526113178184611290565b90509695505050505050565b600061132e82611177565b9050919050565b61133e81611323565b811461134957600080fd5b50565b60008135905061135b81611335565b92915050565b61136a81611220565b811461137557600080fd5b50565b60008135905061138781611361565b92915050565b600080fd5b600080fd5b600080fd5b60008083601f8401126113b2576113b161138d565b5b8235905067ffffffffffffffff8111156113cf576113ce611392565b5b6020830191508360208202830111156113eb576113ea611397565b5b9250929050565b600080600080600080600060c0888a031215611411576114106111bd565b5b600061141f8a828b016111de565b97505060206114308a828b0161134c565b96505060406114418a828b01611378565b95505060606114528a828b01611378565b94505060806114638a828b01611378565b93505060a088013567ffffffffffffffff811115611484576114836111c2565b5b6114908a828b0161139c565b925092505092959891949750929550565b60008115159050919050565b6114b6816114a1565b82525050565b60006020820190506114d160008301846114ad565b92915050565b60008060008060008060008060e0898b0312156114f7576114f66111bd565b5b60006115058b828c016111de565b98505060206115168b828c0161134c565b97505060406115278b828c01611378565b96505060606115388b828c01611378565b95505060806115498b828c01611378565b94505060a089013567ffffffffffffffff81111561156a576115696111c2565b5b6115768b828c0161139c565b935093505060c06115898b828c01611378565b9150509295985092959890939650565b6000819050919050565b60006115be6115b96115b484611157565b611599565b611157565b9050919050565b60006115d0826115a3565b9050919050565b60006115e2826115c5565b9050919050565b6115f2816115d7565b82525050565b600060208201905061160d60008301846115e9565b92915050565b61161c81611177565b811461162757600080fd5b50565b60008135905061163981611613565b92915050565b60008060408385031215611656576116556111bd565b5b60006116648582860161162a565b9250506020611675858286016111de565b9150509250929050565b60008190508260206002028201111561169b5761169a611397565b5b92915050565b6000819050826040600202820111156116bd576116bc611397565b5b92915050565b60008060008060008061014087890312156116e1576116e06111bd565b5b60006116ef89828a016111de565b965050602087013567ffffffffffffffff8111156117105761170f6111c2565b5b61171c89828a0161139c565b9550955050604061172f89828a0161167f565b935050608061174089828a016116a1565b92505061010061175289828a0161167f565b9150509295509295509295565b61176881611220565b82525050565b600081519050919050565b600082825260208201905092915050565b6000819050602082019050919050565b60006117a6838361175f565b60208301905092915050565b6000602082019050919050565b60006117ca8261176e565b6117d48185611779565b93506117df8361178a565b8060005b838110156118105781516117f7888261179a565b9750611802836117b2565b9250506001810190506117e3565b5085935050505092915050565b600082825260208201905092915050565b600061183982611239565b611843818561181d565b9350611853818560208601611255565b61185c8161127f565b840191505092915050565b600060c08301600083015161187f600086018261175f565b506020830151611892602086018261175f565b5060408301516118a5604086018261175f565b50606083015184820360608601526118bd82826117bf565b91505060808301516118d2608086018261175f565b5060a083015184820360a08601526118ea828261182e565b9150508091505092915050565b600060208201905081810360008301526119118184611867565b905092915050565b60006020828403121561192f5761192e6111bd565b5b600061193d8482850161162a565b91505092915050565b7f4e487b7100000000000000000000000000000000000000000000000000000000600052602260045260246000fd5b6000600282049050600182168061198d57607f821691505b6020821081036119a05761199f611946565b5b50919050565b600082825260208201905092915050565b600080fd5b82818337505050565b60006119d183856119a6565b93507f07ffffffffffffffffffffffffffffffffffffffffffffffffffffffffffffff831115611a0457611a036119b7565b5b602083029250611a158385846119bc565b82840190509392505050565b60006020820190508181036000830152611a3c8184866119c5565b90509392505050565b600081519050611a5481611361565b92915050565b600060208284031215611a7057611a6f6111bd565b5b6000611a7e84828501611a45565b91505092915050565b600060069050919050565b600081905092915050565b6000819050919050565b611ab081611220565b82525050565b6000611ac28383611aa7565b60208301905092915050565b6000602082019050919050565b611ae481611a87565b611aee8184611a92565b9250611af982611a9d565b8060005b83811015611b2a578151611b118782611ab6565b9650611b1c83611ace565b925050600181019050611afd565b505050505050565b600060c082019050611b476000830184611adb565b92915050565b600080fd5b7f4e487b7100000000000000000000000000000000000000000000000000000000600052604160045260246000fd5b611b8a8261127f565b810181811067ffffffffffffffff82111715611ba957611ba8611b52565b5b80604052505050565b6000611bbc6111b3565b9050611bc88282611b81565b919050565b600067ffffffffffffffff821115611be857611be7611b52565b5b611bf18261127f565b9050602081019050919050565b6000611c11611c0c84611bcd565b611bb2565b905082815260208101848484011115611c2d57611c2c611b4d565b5b611c38848285611255565b509392505050565b600082601f830112611c5557611c5461138d565b5b8151611c65848260208601611bfe565b91505092915050565b600060208284031215611c8457611c836111bd565b5b600082015167ffffffffffffffff811115611ca257611ca16111c2565b5b611cae84828501611c40565b91505092915050565b60008190508160005260206000209050919050565b60006020601f8301049050919050565b600082821b905092915050565b600060088302611d197fffffffffffffffffffffffffffffffffffffffffffffffffffffffffffffffff82611cdc565b611d238683611cdc565b95508019841693508086168417925050509392505050565b6000611d56611d51611d4c84611220565b611599565b611220565b9050919050565b6000819050919050565b611d7083611d3b565b611d84611d7c82611d5d565b848454611ce9565b825550505050565b600090565b611d99611d8c565b611da4818484611d67565b505050565b5b81811015611dc857611dbd600082611d91565b600181019050611daa565b5050565b601f821115611e0d57611dde81611cb7565b611de784611ccc565b81016020851015611df6578190505b611e0a611e0285611ccc565b830182611da9565b50505b505050565b600082821c905092915050565b6000611e3060001984600802611e12565b1980831691505092915050565b6000611e498383611e1f565b9150826002028217905092915050565b611e6282611239565b67ffffffffffffffff811115611e7b57611e7a611b52565b5b611e858254611975565b611e90828285611dcc565b600060209050601f831160018114611ec35760008415611eb1578287015190505b611ebb8582611e3d565b865550611f23565b601f198416611ed186611cb7565b60005b82811015611ef957848901518255600182019150602085019450602081019050611ed4565b86831015611f165784890151611f12601f891682611e1f565b8355505b6001600288020188555050505b505050505050565b7f76616c696461746f72206973206e6f742073657420666f72207468697320726560008201527f7175657374206964000000000000000000000000000000000000000000000000602082015250565b6000611f87602883611244565b9150611f9282611f2b565b604082019050919050565b60006020820190508181036000830152611fb681611f7a565b9050919050565b7f7175657279206973206e6f742073657420666f7220746869732072657175657360008201527f7420696400000000000000000000000000000000000000000000000000000000602082015250565b6000612019602483611244565b915061202482611fbd565b604082019050919050565b600060208201905081810360008301526120488161200c565b9050919050565b600082825260208201905092915050565b600061206c838561204f565b93507f07ffffffffffffffffffffffffffffffffffffffffffffffffffffffffffffff83111561209f5761209e6119b7565b5b6020830292506120b08385846119bc565b82840190509392505050565b6120c8604083836119bc565b5050565b600060029050919050565b600081905092915050565b6000819050919050565b6120f8604083836119bc565b5050565b600061210883836120ec565b60408301905092915050565b600082905092915050565b6000604082019050919050565b612135816120cc565b61213f81846120d7565b925061214a826120e2565b8060005b83811015612183576121608284612114565b61216a87826120fc565b96506121758361211f565b92505060018101905061214e565b505050505050565b60006101408201905081810360008301526121a781888a612060565b90506121b660208301876120bc565b6121c3606083018661212c565b6121d060e08301856120bc565b6121de61012083018461122a565b979650505050505050565b6121f2816114a1565b81146121fd57600080fd5b50565b60008151905061220f816121e9565b92915050565b60006020828403121561222b5761222a6111bd565b5b600061223984828501612200565b91505092915050565b7f70726f6f6620726573706f6e7365206973206e6f742076616c69640000000000600082015250565b6000612278601b83611244565b915061228382612242565b602082019050919050565b600060208201905081810360008301526122a78161226b565b9050919050565b7f4f776e61626c653a206e6577206f776e657220697320746865207a65726f206160008201527f6464726573730000000000000000000000000000000000000000000000000000602082015250565b600061230a602683611244565b9150612315826122ae565b604082019050919050565b60006020820190508181036000830152612339816122fd565b9050919050565b7f4f776e61626c653a2063616c6c6572206973206e6f7420746865206f776e6572600082015250565b6000612376602083611244565b915061238182612340565b602082019050919050565b600060208201905081810360008301526123a581612369565b905091905056fea2646970667358221220857628239cd49853addeffeeddd315a587291bc33705b81482c0dc3b33e1d0c064736f6c63430008110033",
  "linkReferences": {
    "contracts/lib/Poseidon.sol": {
      "PoseidonUnit6L": [
        {
          "length": 20,
          "start": 1413
        }
      ]
    },
    "contracts/lib/SpongePoseidon.sol": {
      "SpongePoseidon": [
        {
          "length": 20,
          "start": 1287
        }
      ]
    }
  },
  "deployedLinkReferences": {
    "contracts/lib/Poseidon.sol": {
      "PoseidonUnit6L": [
        {
          "length": 20,
          "start": 1143
        }
      ]
    },
    "contracts/lib/SpongePoseidon.sol": {
      "SpongePoseidon": [
        {
          "length": 20,
          "start": 1017
        }
      ]
    }
  }
}