{
  "_format": "hh-sol-artifact-1",
  "contractName": "PoseidonUnit3",
  "sourceName": "contracts/lib/Poseidon.sol",
  "abi": [
    {
      "inputs": [
        {
          "internalType": "uint256[3]",
          "name": "",
          "type": "uint256[3]"
        }
      ],
      "name": "poseidon",
      "outputs": [
        {
          "internalType": "uint256",
          "name": "",
          "type": "uint256"
        }
      ],
      "stateMutability": "view",
      "type": "function"
    }
  ],
  "bytecode": "0x608060405234801561001057600080fd5b50610280806100206000396000f3fe608060405234801561001057600080fd5b506004361061002b5760003560e01c806325cc70e814610030575b600080fd5b61004a600480360381019061004591906101f3565b610060565b604051610057919061022f565b60405180910390f35b6000919050565b6000604051905090565b600080fd5b600080fd5b6000601f19601f8301169050919050565b7f4e487b7100000000000000000000000000000000000000000000000000000000600052604160045260246000fd5b6100c48261007b565b810181811067ffffffffffffffff821117156100e3576100e261008c565b5b80604052505050565b60006100f6610067565b905061010282826100bb565b919050565b600067ffffffffffffffff8211156101225761012161008c565b5b602082029050919050565b600080fd5b6000819050919050565b61014581610132565b811461015057600080fd5b50565b6000813590506101628161013c565b92915050565b600061017b61017684610107565b6100ec565b905080602084028301858111156101955761019461012d565b5b835b818110156101be57806101aa8882610153565b845260208401935050602081019050610197565b5050509392505050565b600082601f8301126101dd576101dc610076565b5b60036101ea848285610168565b91505092915050565b60006060828403121561020957610208610071565b5b6000610217848285016101c8565b91505092915050565b61022981610132565b82525050565b60006020820190506102446000830184610220565b9291505056fea2646970667358221220aa5152e802e4aa7fa080a9a2bb39c27612c53353f156825b954ba2b94871577064736f6c63430008110033",
  "linkReferences": {},
  "deployedLinkReferences": {}
}