{
  "_format": "hh-sol-artifact-1",
  "contractName": "Poseidon",
  "sourceName": "contracts/lib/Poseidon.sol",
  "abi": [
    {
      "inputs": [
        {
          "internalType": "address",
          "name": "_poseidon2ContractAddr",
          "type": "address"
        },
        {
          "internalType": "address",
          "name": "_poseidon3ContractAddr",
          "type": "address"
        }
      ],
      "stateMutability": "nonpayable",
      "type": "constructor"
    },
    {
      "inputs": [
        {
          "internalType": "uint256[2]",
          "name": "inp",
          "type": "uint256[2]"
        }
      ],
      "name": "hash2",
      "outputs": [
        {
          "internalType": "uint256",
          "name": "",
          "type": "uint256"
        }
      ],
      "stateMutability": "view",
      "type": "function"
    },
    {
      "inputs": [
        {
          "internalType": "uint256[3]",
          "name": "inp",
          "type": "uint256[3]"
        }
      ],
      "name": "hash3",
      "outputs": [
        {
          "internalType": "uint256",
          "name": "",
          "type": "uint256"
        }
      ],
      "stateMutability": "view",
      "type": "function"
    }
  ],
  "bytecode": "0x608060405234801561001057600080fd5b506040516107ee3803806107ee8339818101604052810190610032919061011d565b816000806101000a81548173ffffffffffffffffffffffffffffffffffffffff021916908373ffffffffffffffffffffffffffffffffffffffff16021790555080600160006101000a81548173ffffffffffffffffffffffffffffffffffffffff021916908373ffffffffffffffffffffffffffffffffffffffff160217905550505061015d565b600080fd5b600073ffffffffffffffffffffffffffffffffffffffff82169050919050565b60006100ea826100bf565b9050919050565b6100fa816100df565b811461010557600080fd5b50565b600081519050610117816100f1565b92915050565b60008060408385031215610134576101336100ba565b5b600061014285828601610108565b925050602061015385828601610108565b9150509250929050565b6106828061016c6000396000f3fe608060405234801561001057600080fd5b50600436106100365760003560e01c806362a361bb1461003b578063bea140b31461006b575b600080fd5b61005560048036038101906100509190610370565b61009b565b60405161006291906103ac565b60405180910390f35b61008560048036038101906100809190610478565b61013f565b60405161009291906103ac565b60405180910390f35b60008060009054906101000a900473ffffffffffffffffffffffffffffffffffffffff1673ffffffffffffffffffffffffffffffffffffffff166329a5f2f6836040518263ffffffff1660e01b81526004016100f79190610550565b602060405180830381865afa158015610114573d6000803e3d6000fd5b505050506040513d601f19601f820116820180604052508101906101389190610580565b9050919050565b6000600160009054906101000a900473ffffffffffffffffffffffffffffffffffffffff1673ffffffffffffffffffffffffffffffffffffffff166325cc70e8836040518263ffffffff1660e01b815260040161019c9190610631565b602060405180830381865afa1580156101b9573d6000803e3d6000fd5b505050506040513d601f19601f820116820180604052508101906101dd9190610580565b9050919050565b6000604051905090565b600080fd5b600080fd5b6000601f19601f8301169050919050565b7f4e487b7100000000000000000000000000000000000000000000000000000000600052604160045260246000fd5b610241826101f8565b810181811067ffffffffffffffff821117156102605761025f610209565b5b80604052505050565b60006102736101e4565b905061027f8282610238565b919050565b600067ffffffffffffffff82111561029f5761029e610209565b5b602082029050919050565b600080fd5b6000819050919050565b6102c2816102af565b81146102cd57600080fd5b50565b6000813590506102df816102b9565b92915050565b60006102f86102f384610284565b610269565b90508060208402830185811115610312576103116102aa565b5b835b8181101561033b578061032788826102d0565b845260208401935050602081019050610314565b5050509392505050565b600082601f83011261035a576103596101f3565b5b60026103678482856102e5565b91505092915050565b600060408284031215610386576103856101ee565b5b600061039484828501610345565b91505092915050565b6103a6816102af565b82525050565b60006020820190506103c1600083018461039d565b92915050565b600067ffffffffffffffff8211156103e2576103e1610209565b5b602082029050919050565b60006104006103fb846103c7565b610269565b9050806020840283018581111561041a576104196102aa565b5b835b81811015610443578061042f88826102d0565b84526020840193505060208101905061041c565b5050509392505050565b600082601f830112610462576104616101f3565b5b600361046f8482856103ed565b91505092915050565b60006060828403121561048e5761048d6101ee565b5b600061049c8482850161044d565b91505092915050565b600060029050919050565b600081905092915050565b6000819050919050565b6104ce816102af565b82525050565b60006104e083836104c5565b60208301905092915050565b6000602082019050919050565b610502816104a5565b61050c81846104b0565b9250610517826104bb565b8060005b8381101561054857815161052f87826104d4565b965061053a836104ec565b92505060018101905061051b565b505050505050565b600060408201905061056560008301846104f9565b92915050565b60008151905061057a816102b9565b92915050565b600060208284031215610596576105956101ee565b5b60006105a48482850161056b565b91505092915050565b600060039050919050565b600081905092915050565b6000819050919050565b6000602082019050919050565b6105e3816105ad565b6105ed81846105b8565b92506105f8826105c3565b8060005b8381101561062957815161061087826104d4565b965061061b836105cd565b9250506001810190506105fc565b505050505050565b600060608201905061064660008301846105da565b9291505056fea264697066735822122030b56b727dc956a51118ce046d4e58245d0783f677fc55f4ab821cadec82155064736f6c63430008110033",
  "linkReferences": {},
  "deployedLinkReferences": {}
}