{
  "_format": "hh-sol-artifact-1",
  "contractName": "SpongePoseidon",
  "sourceName": "contracts/lib/SpongePoseidon.sol",
  "abi": [
    {
      "inputs": [
        {
          "internalType": "uint256[]",
          "name": "values",
          "type": "uint256[]"
        }
      ],
      "name": "hash",
      "outputs": [
        {
          "internalType": "uint256",
          "name": "",
          "type": "uint256"
        }
      ],
      "stateMutability": "view",
      "type": "function"
    }
  ],
  "bytecode": "0x6107a6610053600b82828239805160001a607314610046577f4e487b7100000000000000000000000000000000000000000000000000000000600052600060045260246000fd5b30600052607381538281f3fe73000000000000000000000000000000000000000030146080604052600436106100355760003560e01c806340ec6e491461003a575b600080fd5b610054600480360381019061004f91906103f8565b61006a565b604051610061919061045e565b60405180910390f35b600080600090506000848490509050600073__$149ddb96bf5d692e763ea65f305faba249$__63f5b4a7886040518060c001604052806100ad8a8a60008961033f565b81526020016100bf8a8a60018961033f565b81526020016100d18a8a60028961033f565b81526020016100e38a8a60038961033f565b81526020016100f58a8a60048961033f565b81526020016101078a8a60058961033f565b8152506040518263ffffffff1660e01b81526004016101269190610524565b602060405180830381865af4158015610143573d6000803e3d6000fd5b505050506040513d601f19601f82011682018060405250810190610167919061056b565b9050600060068361017891906105d7565b9050600563ffffffff168163ffffffff1611156101dc57600060058261019e919061063e565b90506000808263ffffffff16146101bf578160056101bc91906105d7565b90505b600581846101cd919061066f565b6101d791906106a7565b955050505b60005b8463ffffffff168163ffffffff161015610331576000600660058361020491906106d8565b61020e919061066f565b905073__$149ddb96bf5d692e763ea65f305faba249$__63f5b4a7886040518060c001604052808781526020016102478d8d878c61033f565b81526020016102648d8d60018861025e919061066f565b8c61033f565b81526020016102818d8d60028861027b919061066f565b8c61033f565b815260200161029e8d8d600388610298919061066f565b8c61033f565b81526020016102bb8d8d6004886102b5919061066f565b8c61033f565b8152506040518263ffffffff1660e01b81526004016102da9190610524565b602060405180830381865af41580156102f7573d6000803e3d6000fd5b505050506040513d601f19601f8201168201806040525081019061031b919061056b565b935050808061032990610715565b9150506101df565b508194505050505092915050565b60008163ffffffff168363ffffffff16101561037c5784848463ffffffff1681811061036e5761036d610741565b5b905060200201359050610381565b600090505b949350505050565b600080fd5b600080fd5b600080fd5b600080fd5b600080fd5b60008083601f8401126103b8576103b7610393565b5b8235905067ffffffffffffffff8111156103d5576103d4610398565b5b6020830191508360208202830111156103f1576103f061039d565b5b9250929050565b6000806020838503121561040f5761040e610389565b5b600083013567ffffffffffffffff81111561042d5761042c61038e565b5b610439858286016103a2565b92509250509250929050565b6000819050919050565b61045881610445565b82525050565b6000602082019050610473600083018461044f565b92915050565b600060069050919050565b600081905092915050565b6000819050919050565b6104a281610445565b82525050565b60006104b48383610499565b60208301905092915050565b6000602082019050919050565b6104d681610479565b6104e08184610484565b92506104eb8261048f565b8060005b8381101561051c57815161050387826104a8565b965061050e836104c0565b9250506001810190506104ef565b505050505050565b600060c08201905061053960008301846104cd565b92915050565b61054881610445565b811461055357600080fd5b50565b6000815190506105658161053f565b92915050565b60006020828403121561058157610580610389565b5b600061058f84828501610556565b91505092915050565b600063ffffffff82169050919050565b7f4e487b7100000000000000000000000000000000000000000000000000000000600052601160045260246000fd5b60006105e282610598565b91506105ed83610598565b9250828203905063ffffffff811115610609576106086105a8565b5b92915050565b7f4e487b7100000000000000000000000000000000000000000000000000000000600052601260045260246000fd5b600061064982610598565b915061065483610598565b9250826106645761066361060f565b5b828206905092915050565b600061067a82610598565b915061068583610598565b9250828201905063ffffffff8111156106a1576106a06105a8565b5b92915050565b60006106b282610598565b91506106bd83610598565b9250826106cd576106cc61060f565b5b828204905092915050565b60006106e382610598565b91506106ee83610598565b92508282026106fc81610598565b915080821461070e5761070d6105a8565b5b5092915050565b600061072082610598565b915063ffffffff8203610736576107356105a8565b5b600182019050919050565b7f4e487b7100000000000000000000000000000000000000000000000000000000600052603260045260246000fdfea2646970667358221220babef9b33b4d064b2538beca216f4394f785e457ef068b9cad958f7376891f0664736f6c63430008110033",
  "linkReferences": {
    "contracts/lib/Poseidon.sol": {
      "PoseidonUnit6L": [
        {
          "length": 20,
          "start": 208
        },
        {
          "length": 20,
          "start": 613
        }
      ]
    }
  },
  "deployedLinkReferences": {
    "contracts/lib/Poseidon.sol": {
      "PoseidonUnit6L": [
        {
          "length": 20,
          "start": 125
        },
        {
          "length": 20,
          "start": 530
        }
      ]
    }
  }
}